:1080BF0020002A2A2000202A2A2000202020416484
:1080CF0064726573733A20202530345800202020C5
:1080DF002020536C617665206D6F64652000202031
:1080EF002020205265766973696F6E3A0025730000
:1080FF0057726F6E672043504C44206669726D77DC
:10810F0061726500536C61766520616464723A2018
:10811F00256264005265713A202530326264202155
:10812F003D204163743A202530326264004F7665FA
:10813F007263757272656E74203E312E3541206FF9
:10814F006E00202020323456206F757470757420A5
:10815F0021212120202000202020536C61766520D2
:10816F00616464723A20256264005245534554009D
:10817F004F76657263757272656E74203E302E3560
:10818F0041206F6E00202020203556206F757470AF
:10819F007574202121210020202020536C617665E9
:1081AF0020616464723A20256264002020202055EB
:1081BF00203D2025312E32662056004E6577206DEA
:1081CF006F64756C6520696E20706F727420256204
:1081DF006400506C6573652073656C6563743A0059
:1081EF003E25303262582025732020202020202069
:1081FF0020202020200053454C202020202020200C
:10820F002020202020204E4558540053454C20203C
:10821F0020202020202050524556202020202000B2
:10822F0053454C20202020202020205052455620FE
:10823F004E455854004D4F44202056415253202054
:10824F0053595320202020202000502562643A25C6
:10825F00303262582025732020202020202020201B
:10826F00200020202020202020202020202020201F
:10827F002020202020200045534320202020202094
:10828F00002020256320002020202000455343207C
:10829F0045524153452020202020202020202020FF
:1082AF0000455343204552415345202050524556D7
:1082BF00204E4558540020202020457261736520C0
:1082CF006D6F64756C6520202020002020202069B0
:1082DF006E20706F727420256264203F2020200072
:1082EF00534C415645204D4F4445004164647265DF
:1082FF007373202532626400323031352D31322DC7
:10830F003130202D20323161303733360053435313
:06831F002D323030310068
:10B67000017D01C116C110C117C118C111C112C18C
:10B6800013C1154400D9000000004400DD00000093
:09B69000004119A9004119AE00A6
:027037008F4484
:107039009019B074FFF07D017F0012B8727D007F56
:107049000112B872E4901F1EF0901F1EE0FFC39456
:1070590001500B12A330901F1EE004F080EB12BA0E
:1070690073EF24FF9209D20E200903027272E544DC
:1070790070030271ACE4901F21F0901F1EF0901F65
:107089001EE0FFC3940840030271AC74C82FF58257
:10709900E43400F583E0901F20F0F470030271A33B
:1070A900E075F00BA42463F582E5F0343FF583E441
:1070B90093FB740193FA740293F9EA494B70030242
:1070C90071A3E4901F1FF0901F1EE024D0F582E405
:1070D9003400F583E0FF901F1FE0C39F4003027156
:1070E900A3AB1DAA1EA91F901F21E0FF75F01DA4C7
:1070F900F58285F08312072DFD7C00C004C0057D53
:1071090000EF75F01DA429F9EA35F0FA90000D1287
:107119000A6DD007D006120B22901F21E075F01DD1
:10712900A4AB1D251FF9E51E35F0FA90000D120AD2
:107139006D157015701570A870A60308A60208A62B
:1071490001901F1FE01570A870F6901F1EE0FF54F4
:10715900071570A870F6EF131313541FFB7D04E095
:1071690024E1F582E43400F583E0FF901F20E07507
:10717900F00BA42463F582E5F0343FF583740193A1
:10718900FA740293F5828A83120B20901F21E0047E
:10719900F0901F1FE004F00270D0901F1EE004F071
:1071A900027087E4901F1EF0901F1EE0FFC3940831
:1071B900400302725774C82FF582E43400F583E066
:1071C900FFF4700302724E75F00BEFA42463F5828D
:1071D900E5F0343FF583E493FB740193FA74029369
:1071E900F9EA494B605F157015701570A870760043
:1071F9000876000876001570A870E4F6901F1EE066
:10720900FF54071570A870F6EF131313541FFB7D75
:1072190001E0FE24E1F582E43400F583E0FF74C85F
:107229002EF582E43400F583E075F00BA42463F5B0
:1072390082E5F0343FF583740193FA740293F58281
:107249008A83120B20901F1EE004F00271B1E490B2
:107259001F1EF0901F1EE0FFC3788296500B12B8D4
:1072690043901F1EE004F080EAE4FDFF12BAE0E457
:10727900901F1EF07B007A00799312BAB7EEC31300
:10728900FEEF13FFC374079FFFE49EFE901F1EE0ED
:10729900C39FE49E50117BFF7A8079BF12B8F690A4
:1072A9001F1EE004F080CD7BFF7A8079C112B8F609
:1072B9007B007A00799312B8F67BFF7A8079C51240
:1072C900B8F67D01E4FF12BAE07BFF30090F7A803E
:1072D90079CA788DE6F54908E6F54A80047A807915
:1072E900DC1257147D02E4FF12BAE07BFF7A807941
:1072F900ED1257147D03E4FF12BAE07549FF754A90
:0D73090083754B077BFF7A8079FC025714D7
:07B19100EF24FF920A7F0189
:10B19800E4F58420160FD216F58475D103F5BA7537
:0DB1A800BC9875E880C374079F5407F5BB81
:0DB1B50075460275471300D547FCD546F6D8
:10B1C200C2AFC2EDD2EC30EDFDD2AFAFBFEFFFADFB
:10B1D200BEED901F3CCFF0A3EFF0C3E094E8901FC8
:0CB1E2003CE0940350047F0180027F00D9
:01B1EE00223E
:1078B4002009037F0122E4901F35F012BB07C8ECB6
:1078C400C8C9EDC9CAEECACBEFCB900000E0FCA357
:1078D400E0FDA3E0FEA3E0240AFFE43EFEE43DFD58
:1078E400E43CFCD31208D1501A12BB07900000E00C
:1078F400F8A3E0F9A3E0FAA3E0FBD31208D1500304
:10790400027B5C12BB079000001209DCE4901F3676
:10791400F09000D8E0FE901F36E0FFC39E400302C3
:107924007B6B7B017A1F793412A9BA901F34E0C4AF
:10793400540F640260617A007B647D017F0112AAA6
:10794400DE20184B12BB64E4FDFF12BAE07BFF7A21
:107954008079FF12B8F67D01E4FF12BAE0901F3679
:10796400E0FFD39400400B7BFF7A8179138F491297
:1079740057147D02E4FF12BAE07BFF7A8179237504
:107984004902901F34E0FFC4540FF54A125714D231
:1079940018901F357401F0901F36E0FF7542017591
:1079A400431F754437754503E4FB7D0112966390CC
:1079B4001F37E020E303027A3E7A007B647D017F77
:1079C4000112AADE20174E12BB64E4FDFF12BAE0D6
:1079D4007BFF7A81793C1257147D01E4FF12BAE0EF
:1079E4007BFF7A8179511257147D02E4FF12BAE0C9
:1079F400901F36E0FFD39400400B7BFF7A817966B9
:107A04008F491257147D037F0F12BAE07BFF7A81EE
:107A14007979125714D2177F0312B198EF60159039
:107A24001F36E0FF12B9CFC2177F0312B198EF706F
:107A3400F812BB64901F357401F012BB07E47B6439
:107A4400FAF9F8C31208D14003027B53901F36E0C1
:107A5400FF75420175431F75443A7545027B037DEA
:107A640002129663901F3AE0C4F854F0C868FCA36D
:107A7400E0C4540F48FDE41203C2E4FBFA79C87869
:107A84004012019EE4FBFA798078451202A7E4FBD8
:107A9400FA7990784012034460025003027B3F203D
:107AA400104912BB647A007B647D017F0112AADE57
:107AB400E4FDFF12BAE07BFF7A81797F1257147DCF
:107AC40001E4FF12BAE07BFF7A8179941257147DA6
:107AD40002E4FF12BAE0901F36E0FFD39400400B9B
:107AE4007BFF7A8179A68F491257147D03E4FF1234
:107AF400BAE0901F3AE0C4F854F0C868FCA3E0C4AC
:107B0400540F48FDE41203C2E4FBFA79C87840122A
:107B1400019EE4FBFA798078451202A78F4C8E4BC4
:107B24008D4A8C497BFF7A8179BA125714D210900E
:107B340019AF7401F0901F35F08014301011901FAC
:107B440036E0FF9019AFE06F7005C21012BB64906D
:107B54001F36E004F00279152017062010033018B0
:0C7B640006901F357401F0901F35E0FF03
:017B700022F2
:10412D0075840F75A4F575A5FF75A6FF75A70FE42A
:10413D00F584F5BA75BC9875E880F5D1F58475D11F
:10414D0003F58475D48075840175D48012BB8AE41F
:10415D00901F26F0901F24F0901F23F075441675C4
:10416D0045A9901F20F0901F20E0FFC39401500E31
:10417D0012BA26EF6008901F20E004F080E8901F2F
:10418D0020E09000D8F0C214751D01751E00751F3A
:10419D00E9E4901F1EF0901F1EE0FFC3940840033A
:1041AD000246FF74E12FF582E43400F583E4F074E8
:1041BD00D02FF582E43400F583E4F074C82FF58236
:1041CD00E43400F58374FFF0EF131313541FFF90C5
:1041DD001F1EE05407FD7B017A1F791F1295229057
:1041ED001F1FE0D3940050030246F6E4A3F0901F86
:1041FD0020E075F00BA4245BF582E5F0343FF583E8
:10420D00E493FF6011901F1FE0FEEF6E6008901F9A
:10421D0020E004F080D8901F1FE06F600302455E20
:10422D00901F1EE024D0F582E43400F583E4F09075
:10423D001F22F0901F20E0FF75F00BA42462F58281
:10424D00E5F0343FF583E493FE901F22E0FDC39E1D
:10425D00400302452F75F00BEFA4245FF582E5F0C6
:10426D00343FF583E493FB740193FA740293F9EDF3
:10427D0075F01DA4FFE92FF9EA35F0FA90000D1243
:10428D000A6DCFE9CF901F25EFF07003024418E4BB
:10429D00901F21F0901F25E0FF901F21E0C39F404C
:1042AD0003024526901F20E075F00BA4245FF582D4
:1042BD00E5F0343FF583E493FB740193FA740293B4
:1042CD00F9901F22E075F01DA4FFE92FF9EA35F0F2
:1042DD00FAEAC0E0E9C0E0A3E075F01DA4251FF9DE
:1042ED00E51E35F0C8E9C8FCAD1DD0E0F9D0E0FA07
:1042FD007E007F1D1206EE901F23E075F01DA4AB0E
:10430D001D251FF9E51E35F0FAE92405F9E43AFA01
:10431D007D2512BA0AEA494B603C901F1EE0FFD37F
:10432D0094094005EF24378006901F1EE02430FFCE
:10433D00EFC0E0901F23E075F01DA4AB1D251FF904
:10434D00E51E35F0FAE92405F9E43AFA7D2512BAAD
:10435D000AD0E012075A901F23E075F01DA4AB1D83
:10436D00251FF9E51E35F0FAE92405F9E43AFA7D41
:10437D002312BA0AEA494B602D901F21E02430FF29
:10438D00EFC0E0901F23E075F01DA4AB1D251FF9B4
:10439D00E51E35F0FAE92405F9E43AFA7D2312BA5F
:1043AD000AD0E012075AAA44A9457B01EBC0E0EA06
:1043BD00C0E0E9C0E0901F23E075F01DA4AB1D2502
:1043CD001FF9E51E35F0FA90000D120A9DAB1DAADE
:1043DD001EA91F901F23E075F01DA4F58285F083A3
:1043ED0012072D2545F545E43544F544901F23E08E
:1043FD0004F0901F1EE024D0F582E43400F583E034
:10440D0004F0901F21E004F00242A1901F20E075FE
:10441D00F00BA4245FF582E5F0343FF583E493FBC4
:10442D00740193FA740293F9901F22E075F01DA4A4
:10443D00FFE92FF9EA35F0FAEAC0E0E9C0E0A3E0C0
:10444D0075F01DA4251FF9E51E35F0C8E9C8FCADB2
:10445D001DD0E0F9D0E0FA7E007F1D1206EE901F10
:10446D0023E075F01DA4AB1D251FF9E51E35F0FAEF
:10447D00E92405F9E43AFA7D2512BA0AEA494B60B6
:10448D003C901F1EE0FFD394094005EF24378006B2
:10449D00901F1EE02430FFEFC0E0901F23E075F069
:1044AD001DA4AB1D251FF9E51E35F0FAE92405F90C
:1044BD00E43AFA7D2512BA0AD0E012075AAA44A9A5
:1044CD00457B01EBC0E0EAC0E0E9C0E0901F23E0CE
:1044DD0075F01DA4AB1D251FF9E51E35F0FA9000F2
:1044ED000D120A9DAB1DAA1EA91F901F23E075F08A
:1044FD001DA4F58285F08312072D2545F545E4357C
:10450D0044F544901F23E004F0901F1EE024D0F5E5
:10451D0082E43400F583E004F0901F22E004F00201
:10452D004240901F1FE0FF901F1EE0FE24E1F58228
:10453D00E43400F583EFF0901F20E0FF74C82EF5F2
:10454D0082E43400F583EFF0901F24E004F002467E
:10455D00F6E4901F20F09000D8E0FE901F20E0FFC1
:10456D00C39E500DE4FD12B920901F20E004F08091
:10457D00E512BB64E4FDFF12BAE07BFF7A8179CAD4
:10458D00901F1EE0F5491257147D01E4FF12BAE0A9
:10459D007BFF7A8179E1125714E4901F20F07D02A0
:1045AD00E4FF12BAE0901F20E0FF75F00BA4245B2E
:1045BD00F582E5F0343FF583E493F54975F00BEFA3
:1045CD00A4245CF582E5F0343FF583E493FB74019C
:1045DD0093FA7402938B4A8A4BF54C7BFF7A81795F
:1045ED00EF1257147D03E4FF12BAE0901F20E07024
:1045FD00087BFF7A8279058022901F20E075F00BF1
:10460D00A42466F582E5F0343FF583E4937BFF70D7
:10461D00067A82791A80047A82792F1257147F00D4
:10462D0012B89FE4FF12B19812B191EF24FF920BD3
:10463D007F0212B198EF24FF920C7F0312B198EF15
:10464D0024FF920D200A09200B06200C03300DCEFD
:10465D00300A44901F20E075F00BA4245BF582E531
:10466D00F0343FF583E493FB901F1EE0FE1313130C
:10467D00541FFFEE5407FD128325901F1EE014F00A
:10468D00300A0CE4FF12B198EF24FF920A80F190EA
:10469D001F267401F08052300C1B901F20E0D39424
:1046AD00004003E014F0300C0C7F0212B198EF249F
:1046BD00FF920C80F1200D030245AB901F20E07599
:1046CD00F00BA42466F582E5F0343FF583E49360A6
:1046DD0006901F20E004F0200D030245AB7F03126E
:1046ED00B198EF24FF920D80EE901F1EE004F002B2
:1046FD0041A3AB1DAA1EA91F901F23E075F01DA499
:10470D00F58285F083E412076C901F26E06006E4C5
:05471D00F58475EF10AA
:014722002274
:10B843001570A870EFF6A870E6FF131313541F24A6
:10B8530008F582E43400F583E0FEEF5407FF74013A
:0FB86300C8EFC8088002C333D8FC4EF00570222E
:05BB91008F397F002246
:10BACC001207149019B0F0AB3CAA3DA93E740112B8
:04BADC00075AFF22E4
:105B210030190C12BB64E4900004F0A374FFF02060
:105B310009037F0022300F03025BC8E4FDFF12BAA4
:105B4100E0E4901F34F07B007A00799312BAB7EE4B
:105B5100C313FEEF13FFC374079FFFE49EFE901F64
:105B610034E0C39FE49E50117BFF7A8079BF12B865
:105B7100F6901F34E004F080CD7BFF7A8079C1126A
:105B8100B8F67B007A00799312B8F67BFF7A8079B8
:105B9100C512B8F67D01E4FF12BAE07BFF7A807985
:105BA100CA788DE6F54908E6F54A1257147D027F59
:105BB1000112BAE012B4EF7D03E4FF12BAE07BFFF9
:105BC1007A82794412B8F6200F03025EE69000054E
:105BD100E0FF900004E06F7003025D24C208E490CE
:105BE1001F35F0901F34F0901F37F0901F34E0FF05
:105BF100C394084003025CCA74E12FF582E43400C7
:105C0100F583E07003025CC1901F35E004F0900061
:105C110004E0FF901F35E0D39F5003025CC1901F49
:105C210037E0FDE4FF12BAE0E4901F36F0901F3632
:105C3100E075F00BA4245BF582E5F0343FF583E4D5
:105C410093FF601B901F34E024E1F582E43400F5FA
:105C510083E0FEEF6E6008901F36E004F080CE9086
:105C61001F36E0FF75F00BA4245BF582E5F0343FAD
:105C7100F583E493FE603A901F37E0B40304D20841
:105C81008047901F34E0F5498E4A75F00BEFA4244C
:105C91005CF582E5F0343FF583E493FB740193FAFC
:105CA1007402938B4B8A4CF54D7BFF7A8279598034
:105CB100067BFF7A827971125714901F37E004F046
:105CC100901F34E004F0025BEC7D03E4FF12BAE0C4
:105CD1007BFF7A82798612B8F67D037F1012BAE0D3
:105CE1007BFF30080C7A8279907549131257148022
:105CF100077A82799612B8F67D037F0A12BAE0908C
:105D01000004E0D394007BFF400C7A8279907549BE
:105D11001212571480077A82799612B8F69000040D
:105D2100E0A3F030080C300D09201506900004E0C6
:105D310004F0900004E0D394004009300C062013D5
:105D410003E014F0300A0C201109C20FA20A9211CB
:105D510012BB64300B03025EE6201203025EE6E42E
:105D6100900006F0901F34F0900006E0FE1313132C
:105D7100541FFFEE5407FD12BA41EF6006901F3425
:105D8100E004F0900006E004F0E0C3940840D9E498
:105D9100900006F0900006E0FE131313541FFFEE6F
:105DA1005407FD12BA41EF700C900006E004F0E0D8
:105DB100C3940840DF901F34E07002FF2212BB64DD
:105DC1007D03E4FF12BAE0901F34E07BFF70067A96
:105DD10082799B80047A8279B0125714E4FDFF1214
:105DE100BAE07BFF7A8279C51257147D01E4FF1274
:105DF100BAE07BFF7A8279DA900006E0F549125722
:105E0100147F0012B89FE4FF12B19812B191EF24F0
:105E1100FF920B7F0212B198EF24FF920C7F0312C5
:105E2100B198EF24FF920D200A09200B06200C03E4
:105E3100300DCE300A1F300A0CE4FF12B198EF2466
:105E4100FF920A80F112BB6490000574FFF0C21248
:105E5100C2117F0022300B23900006E0FD7BFFE49E
:105E6100FF128325300B0C7F0112B198EF24FF92B2
:105E71000B80F1E4F58475EF10806A300C2E8012EE
:105E8100900006E0131313541FFF7D0812BA41EF6F
:105E9100700B900006E024075407F080E3300C0CEF
:105EA1007F0212B198EF24FF920C80F1200D0302C2
:105EB1005DDD8015900006E0FE131313541FFFEE05
:105EC1005407FD12BA41EF700A900006E00454072E
:105ED100F080E1200D03025DDD7F0312B198EF2414
:105EE100FF920D80EE200F0D200B0A301207A20B3E
:105EF10092127F0122200F0D200C0A301307A20CF1
:105F010092137F0222300A0F20110CD20F12BB64B0
:105F1100900004E004A3F0A20A9211A20B9212A233
:095F21000C9213A20D92157F00F1
:015F2A002254
:105F2B00200903026229E4901F1EF0901F1EE0FF60
:105F3B00131313541F2408F582E43400F583E0FD9A
:105F4B007C00EF5407FF74017E00C8EFC808800582
:105F5B00C333CE33CED8F9FFEE5CFEEF5D4E70034C
:105F6B000260B7E4901F1FF0901F22F0901F22E0F9
:105F7B00FFC39408400302608774D02FF582E4348A
:105F8B0000F583E0FF901F1FE0FD2FFFE433FE9031
:105F9B001F1EE0FCFBD3EF9B7480F86E985003023E
:105FAB006069EC9DA3F0901F22E024C8F582E434D5
:105FBB0000F583E0901F20F0F47003026087E0751A
:105FCB00F00BA42463F582E5F0343FF583E493FBF7
:105FDB00740193FA740293F9EA494B7003026087D8
:105FEB00901F1EE075F01DA4AB1D251FF9E51E3596
:105FFB00F0FA90000D120A6D157015701570A870DF
:10600B00C6EBC608C6EAC608C6E9C6901F1FE01550
:10601B0070A870F6901F22E0FF54071570A870F659
:10602B00EF131313541FFB7D02901F20E0FE75F03E
:10603B000BA4245BF582E5F0343FF583E493FF7505
:10604B00F00BEEA42463F582E5F0343FF583740185
:10605B0093FA740293F5828A83120B20801E901F91
:10606B0022E024D0F582E43400F583E0FF901F1F7B
:10607B00E02FF0901F22E004F0025F77901F1EE0EC
:10608B00FF131313541F2408F582E43400F583C067
:10609B0083C082E0FEEF5407FF7401C8EFC808808D
:1060AB0002C333D8FCF45ED082D083F0901F1EE085
:1060BB0004F0E0C394C05003025F369019A9E024AA
:1060CB00C8F582E43400F583E0FFF470030261E667
:1060DB00901F1FEFF0E4A3F09019A9E024D0F582F4
:1060EB00E43400F583E0FF901F20E0FEC39F4003E4
:1060FB000261E6901F1FE075F00BA42463F582E5A7
:10610B00F0343FF583E493FB740193FA740293F933
:10611B00EA494B6065157015701570A8707601080B
:10612B00761F0876231570A870EEF69019A9E0FF7C
:10613B0054071570A870F6EF131313541FFB7D0350
:10614B00901F1FE0FE75F00BA4245BF582E5F03485
:10615B003FF583E493FF75F00BEEA42463F582E522
:10616B00F0343FF583740193FA740293F5828A83BA
:10617B00120B20901F21EFF08005E4901F21F0906F
:10618B001F21E0FFD394004049C2AF7E00EEC0E078
:10619B00EFC0E0901F20E0FF9019AEE02FFFE4333B
:1061AB00FE7C007D1D12078EAB1DE51F2FF9E51E32
:1061BB003EFA90000D120A6DC8E9C8CCEACCCDEBC3
:1061CB00CD7B017A1F7923D0E0FFD0E0FE1206EEE3
:1061DB00D2AF901F20E004F00260E39019A9E024F5
:1061EB00D0F582E43400F583E0FF9019AEE02FF098
:1061FB009019A9E004F0E0B40806E4F09019AEF0B1
:10620B009019B0E0F46017E0FE131313541FFFEE68
:10621B005407FD7BFF1283259019B074FFF012BB5E
:10622B0007C8ECC8C9EDC9CAEECACBEFCB9019AA07
:10623B00E0FCA3E0FDA3E0FEA3E0240AFFE43EFEA6
:10624B00E43DFDE43CFCD31208D1501712BB079080
:10625B0019AAE0F8A3E0F9A3E0FAA3E0FBD3120834
:10626B00D1406F12BB079019AA1209DCE4FF12B1DF
:10627B009812B191EF24FF920B7F0212B198EF2489
:10628B00FF920C7F0312B198EF24FF920D3009059A
:10629B00120BF4803D12BB07E47B2C7A01F9F8C397
:1062AB001208D1502D300E05C20E12BB647D017F3A
:1062BB000512BAE07BFF7A8279EF1257147D027FC9
:1062CB000512BAE012BA5A8F497BFF7A8279FA1219
:1062DB00571430143112BB07E47B0AFAF9F8C312D6
:1062EB0008D15022C214E4901F1FF09000D8E0FE9A
:1062FB00901F1FE0FFC39E500DE4FD12B920901FAD
:06630B001FE004F080E534
:016311002269
:103A48004C45442D4465627567004C45442D5075BE
:103A58006C7365720044696E203556004F70744966
:103A68006E0043504C4400446F75742035562F3215
:103A780034560052656C616973004F70744F7574E9
:103A880000446F757420332E335600446F757420CC
:103A9800352E305600446F757420323456005569FF
:103AA8006E20302D322E35560055696E202B2D3163
:103AB80030560049696E20302D322E356D4100494F
:103AC800696E20302D32356D410055696E20302DDC
:103AD800322E3556204673740055696E202B2D31D1
:103AE800305620466173740049696E20302D322E9D
:103AF800356D41204673740049696E20302D32358A
:103B08006D41204673740055696E202B2D31305657
:103B180020446966660055696E202B2D3130562089
:103B2800466C740043696E20302D31306E46004378
:103B3800696E20302D3175460050543130302D38A3
:103B4800005054313030302D380041443539300080
:103B580050543130302D32005054313030302D3205
:103B6800004345524E4F582D3200554F7574203042
:103B78002D322E355600554F7574202B2D31305669
:103B880000494F757420302D322E356D4100494F54
:103B9800757420302D32356D41004C69712E4865A1
:103BA800206C6576656C00554F7574203230305640
:103BB80000554F7574203330305600554F757420BA
:103BC8003130562F3235306D41002452657624004D
:103BD800013400000050254F7574000000010001F9
:103BE8000000000000437F00003F80000004180030
:103BF8000001502555696E230000010008040000EB
:103C0800000000000000000000000418000001503F
:103C18002555696E2300000100040400000000001F
:103C2800000000000000000418000001502555693C
:103C38006E230000010002040000000000000000E4
:103C4800000000000418000001502555696E23008B
:103C5800000100080400000000000000000000004F
:103C6800000134000008502552616E6765000100AC
:103C78000000000000000000000000000000041820
:103C88000000015025556F757423000100080200DB
:103C9800000000402000003DCCCCCD0418000001FD
:103CA8005025556F7574230001000802C1200000DB
:103CB800412000003F0000000406FD000150254996
:103CC800696E2300000100080400000000000000E5
:103CD8000000000000041DF70001502543696E2311
:103CE80000000100040400000000000000000000C3
:103CF80000000408000001502554230000000001C2
:103D0800000802000000000000000000000000049D
:103D180006FD00095025457863697400010000011B
:103D2800000000000000000000000000040800007F
:103D38000150255423000000000100080200000083
:103D480000000000000000000004080000015025E9
:103D580054230000000001000202000000000000DF
:103D68000000000000000407000001502554230053
:103D78000000000100020200000000000000000036
:103D88000000000406FD00015025496F75742300EA
:103D9800010008020000000041A000003DCCCCCD8D
:103DA80004180000015025556F75742300010001A7
:103DB80002C1200000412000003DCCCCCD0406FD0E
:103DC800000950254578636974000100000100006E
:103DD800000042C800003F800000045A000009505B
:103DE800254C4F667300000100000200000000002F
:103DF80000000000000000045D00000950254C4749
:103E080061696E000100000200000000000000006F
:103E18000000000002030000085025546F66660089
:103E28000001000000000000000000000000000089
:103E38000002030000085025546F6E0000000100C6
:103E48000000000000000000000000000000045A0C
:103E580000000150254C696E0000000100000100BF
:103E68000000000000000000000000013200000017
:103E7800502544696E23000001000801000000007D
:103E8800000000000000000001320000005025443E
:103E9800696E23000001000401000000000000001A
:103EA800000000000001320000005025446F7574C6
:103EB800230001000801000000003F8000003F804F
:103EC80000000132000000502552656C23000001FB
:103ED800000401000000003F8000003F8000000156
:103EE8003200000050254F757423000001000401C2
:103EF800000000003F8000003F8000000418000020
:103F0800015025554423000000010008030000006B
:103F180000434800003F80000004180000015025BD
:103F28005523000000000100080300000000000005
:103F38000000000000000406FA0001502549230093
:103F4800000000010008030000000000000000005D
:103F580000000001FF3A48FF3BD801FFB1EF02FF24
:103F68003A520000000100000020FF3A5DFF3E7356
:103F780001FF9B0221FF3A64FF3E9001FF9B022252
:103F8800FF3A6AFF3E7301FF9B0240FF3A6FFF3E14
:103F9800AD01FF8E4841FF3A7BFF3ECA01FF8E48C4
:103FA80042FF3A82FF3EE701FF8E4843FF3A89FF0E
:103FB8003EAD01FF8E4844FF3A93FF3EAD01FF8EB0
:103FC8004845FF3A9DFF3EAD01FF8E4860FF3AA687
:103FD800FF3BF501FF631261FF3AB1FF3BF501FFBB
:103FE800631262FF3ABBFF3CC001FF631263FF3AF2
:103FF800C7FF3CC001FF631264FF3AD2FF3BF501E3
:10400800FF66BD65FF3AE1FF3BF501FF66BD66FF50
:104018003AF0FF3CC001FF66BD67FF3B00FF3CC0B4
:1040280001FF66BD68FF3B0FFF3C1201FF63126989
:10403800FF3B1EFF3C2F01FF7E1D70FF3B2CFF3C0A
:10404800DD01FF7B7171FF3B37FF3CDD01FF7B71B9
:1040580072FF3B41FF3CFA02FF51F573FF3B49FFFA
:104068003CFA02FF51F574FF3B52FF3D3401FF6DEE
:104078004975FF3B58FF3D5101FF472376FF3B60E1
:10408800FF3D5101FF472377FF3B69FF3D6E01FF6D
:10409800472380FF3B72FF3C8601FF878681FF3BF9
:1040A8007EFF3CA301FF4C9482FF3B89FF3D8B01BF
:1040B800FF878683FF3B96FF3D8B01FF878684FF42
:1040C8003BA2FF3DC506FF16BF85FF3BAFFF3F0480
:1040D80003FF295286FF3BB9FF3F0403FF2952879C
:1040E800FF3BC3FF3DA801FF8786000000000000DA
:1040F80000000000003CA3D70A3D23D70A3DA3D700
:104108000A3E23D70A3EA3D70A3F23D70A3FA3D79D
:104118000A4023D70A05040302010006070602071E
:05412800030004050185
:06B6990004150000000092
:108CCB00E5702412F8E6FFE5702413F8E6FD755302
:038CDB00017B0614
:108CDE00D2B1C2B0C2B2E4901F3EF0901F3EE0FE91
:108CEE00C39404504CEFC8EEC8088002C333D8FCBE
:108CFE005408D394004003D38001C392B300000004
:108D0E000000000000000000000000000000000055
:108D1E0000D2B000000000000000000000000000C3
:108D2E0000000000000000C2B0901F3EE004F08082
:108D3E00AAE4901F3EF0901F3EE0FFC39403504CF8
:108D4E00EDC8EFC8088002C333D8FC5404D3940096
:108D5E004003D38001C392B3000000000000000066
:108D6E00000000000000000000000000D2B0000073
:108D7E0000000000000000000000000000000000E5
:108D8E000000C2B0901F3EE004F080AAE4901F3EA7
:108D9E00F0901F3EE0FFC39404504CEBC8EFC808A0
:108DAE008002C333D8FC5408D394004003D380010F
:108DBE00C392B3000000000000000000000000009D
:108DCE0000000000000000D2B00000000000000013
:108DDE0000000000000000000000000000C2B09083
:108DEE001F3EE004F080AAD2B20000000000000096
:108DFE0000000000000000000000000000D2B000E3
:108E0E000000000000000000000000000000000054
:108E1E00000000C2B0C2B2C2B3E55324FF92B0D27A
:108E2E00B2C2B1000000000000000000000000000F
:098E3E0000000000000000C2B2B7
:018E47002208
:10BA8B00E5702409F8E6FFE570240AF8E6FD7B066D
:06BA9B00E4F553028CDE0D
:05ABFF00F8E6FD7BFFFC
:03AC0400CCEBCCCA
:10AC07007B0312BA9BE4901F38F0EC5480D3940076
:10AC17004003D38001C392B300000000000000008E
:10AC2700000000000000000000000000D2B000009B
:10AC3700000000000000000000000000000000000D
:10AC47000000C2B0EC25E0FC901F38E004F0E0B44F
:10AC570008B8C2B3D2B20000000000000000000034
:10AC670000000000000000000000D2B0000000005B
:10AC770000000000000000000000000000000000CD
:04AC8700C2B0C2B2E3
:01AC8B0022A6
:10A60400E5702405F8EFF6E5702412F8E6FFE5702E
:0CA614002413F8E6FDE5702405F8E6FBD1
:03A62000CCEBCCB4
:10A623007B0212BA9BE4901F38F0EC5480D3940061
:10A633004003D38001C392B3000000000000000078
:10A64300000000000000000000000000D2B0000085
:10A6530000000000000000000000000000000000F7
:10A663000000C2B0EC25E0FC901F38E004F0E0B439
:10A6730008B8C2B3D2B2000000000000000000001E
:10A6830000000000000000000000D2B00000000045
:10A6930000000000000000000000000000000000B7
:04A6A300C2B0C2B2CD
:01A6A7002290
:0CA74B00F8E6FD7B00E5702408F97A00B8
:06A757008B468A47894889
:10A75D00E4FB12BA9BD2B200000000000000000022
:10A76D000000000000000000000000D2B00000005A
:10A77D0000000000000000000000000000000000CC
:10A78D0000C2B0C2B2E4901F38F00000000000001B
:10A79D000000000000000000000000000000D2B02A
:10A7AD00000000000000000000000000000000009C
:10A7BD0000000000C2B0901F39E025E0FFA2B4E414
:10A7CD00334FF0901F38E004F0E0B408BD901F390E
:0AA7DD00E0AB46AA47A94802075A5C
:06AB6F008B468A4789486D
:10AB75007B0112BA9BD2B200000000000000000069
:10AB85000000000000000000000000D2B00000003E
:10AB950000000000000000000000000000000000B0
:10ABA50000C2B0C2B2E4901F38F0000000000000FF
:10ABB5000000000000000000000000000000D2B00E
:10ABC5000000000000000000000000000000000080
:10ABD50000000000C2B0901F39E025E0FFA2B4E4F8
:10ABE500334FF0901F38E004F0E0B408BD901F39F2
:0AABF500E0AB46AA47A94802075A40
:03ADA400CCEDCC27
:10ADA7007B05E4FD12BA9BE4901F28F0EC5480D396
:10ADB70094004003D38001C392B300000000000059
:10ADC7000000000000000000000000000000D2B0FA
:10ADD700000000000000000000000000000000006C
:10ADE70000000000C2B0EC25E0FC901F28E004F052
:10ADF700E0B408B8C2B3D2B20000000000000000FF
:10AE0700000000000000000000000000D2B00000B9
:10AE1700000000000000000000000000000000002B
:06AE27000000C2B0C2B23F
:01AE2D002202
:06A9BA008B488A49894A1E
:10A9C0007B04E4FD12BA9BD2B2000000000000003C
:10A9D00000000000000000000000000000D2B000F5
:10A9E0000000000000000000000000000000000067
:10A9F000000000C2B0C2B2E4901F3CF000000000B2
:10AA00000000000000000000000000000000000046
:10AA1000D2B00000000000000000000000000000B4
:10AA2000000000000000C2B0901F3DE025E0FFA242
:10AA3000B4E4334FF0901F3CE004F0E0B408BD9064
:0CAA40001F3DE0AB48AA49A94A02075A92
:10BA41007B017A1F7938129522901F38E0D3940038
:08BA510040047F0180027F0028
:01BA590022CA
:069522008B468A478948D0
:109528007B0712BA9BD2B3000000000000000000C5
:109538000000000000000000000000D2B0000000A1
:109548000000000000000000000000000000000013
:1095580000C2B0D2B300000000000000000000000C
:10956800000000000000000000D2B0000000000071
:10957800000000000000000000000000000000C221
:10958800B0C2B300000000000000000000000000AE
:1095980000000000000000D2B00000000000000041
:1095A80000000000000000000000000000C2B0E45D
:1095B800901F39F0C2B30000000000000000000056
:1095C80000000000000000000000D2B00000000011
:1095D8000000000000000000000000000000000083
:1095E800C2B0901F39E004F0E0B406C830B409AB4B
:1095F80046AA47A948E4805FE4901F39F0000000BC
:109608000000000000000000000000000000000052
:1096180000D2B000000000000000000000000000C0
:1096280000000000000000C2B0901F3BE025E0FFF2
:10963800901F3AE033FEA2B4E433FDEF4DFFEEF0A5
:10964800A3EFF0901F39E004F0E0B410B0901F3A97
:0A965800E0AB46AA47A94812075AE2
:0196620022E5
:10B73A00901F49EFF0A3EDF0A3EBF012BA41EF70BE
:10B74A0002FF22901F49E0FFA3E0FD7B017A1F79E7
:10B75A0048129522901F4BE0FF901F48E06F70043B
:06B76A007F0180027F0058
:01B7700022B6
:03832500CCEBCCD2
:108328007B0712BA9BD2B3000000000000000000D7
:108338000000000000000000000000D2B0000000B3
:108348000000000000000000000000000000000025
:1083580000C2B0C2B300000000000000000000002E
:10836800000000000000000000D2B0000000000083
:10837800000000000000000000000000000000C233
:10838800B0C2B300000000000000000000000000C0
:1083980000000000000000D2B00000000000000053
:1083A80000000000000000000000000000C2B0E46F
:1083B800901F38F0D2B30000000000000000000059
:1083C80000000000000000000000D2B00000000023
:1083D8000000000000000000000000000000000095
:1083E800C2B0901F38E004F0E0B406C8D2B2000072
:1083F8000000000000000000000000000000000075
:108408000000C2B2D2B3000000000000000000006B
:1084180000000000000000000000D2B000000000D2
:108428000000000000000000000000000000000044
:10843800C2B0C2B30000000000000000000000004D
:108448000000000000000000D2B0000000000000A2
:108458000000000000000000000000000000C2B0A2
:10846800D2B300000000000000000000000000007F
:10847800000000000000D2B0000000000000000072
:10848800000000000000000000000000C2B0E490FE
:108498001F38F0C2B3000000000000000000000018
:1084A800000000000000000000D2B0000000000042
:1084B800000000000000000000000000000000C2F2
:1084C800B0901F38E004F0E0B406C8E4901F38F01C
:1084D800EC5480D394004003D38001C392B30000CE
:1084E8000000000000000000000000000000000084
:1084F8000000D2B0000000000000000000000000F2
:108508000000000000000000C2B0EC25E0FC901F55
:1085180038E004F0E0B410B8D2B200000000000067
:108528000000000000000000000000000000C2B2CF
:0A853800E4901F39F0A3F020B427EF
:0D85420075460175470300D547FCD546F688
:10854F00901F3AE004F07006901F39E004F0901F7E
:0A855F0039E0B427DBA3E0B410D626
:0185690022EF
:108E48001570A870EBF61570A870EDF61570A8707F
:048E5800EFF61570AC
:108E5C00A8700808E664016003028EEAE570240439
:108E6C00F8E6FEE5702403F8E6FF75F008A42EF58D
:108E7C0082E435F0F583E58224B1F582E58334197B
:108E8C00F583E4F0F584E5EF20E119E5702404F8AE
:108E9C00E6FDEF75F008A42D24B1F9E43419FA7B42
:108EAC000112AB6FE5702403F8E6FFE5702404F8BB
:108EBC00E6FD75F008EFA42DF582E435F0F583E5B9
:108ECC008224B1F582E5833419F583E0FB12A620E8
:108EDC00E5702403F8E6FFE570240412ABFFA870DC
:108EEC000808E664026003028FB3E5702406F8CB31
:108EFC00E6CB08E6FA08E6F9120714A870F6603E0D
:108F0C00E5702404F8E6FFE5702403F8E675F00834
:108F1C00A42FF582E435F0F583E58224B1F582E5E2
:108F2C00833419F583E0FFE5702405F8E6FE74013F
:108F3C00C8EEC8088002C333D8FC4FF0803DE57002
:108F4C002404F8E6FFE5702403F8E675F008A42F76
:108F5C00F582E435F0F583E58224B1F582E58334BE
:108F6C0019F583E0FFE5702405F8E6FE7401C8EE00
:108F7C00C8088002C333D8FCF45FF0E5702403F812
:108F8C00E6FFE5702404F8E6FD75F008EFA42DF576
:108F9C0082E435F0F583E58224B1F582E58334195A
:098FAC00F583E0FB12A6207F0012
:078FB500E5702409F57022AC
:109B02001570A870EBF61570A870EDF61570A870B8
:049B1200EFF61570E5
:109B1600A8700808E664036003029C09E570240641
:109B2600F8CBE6CB08E6FA08E6F9120714603EE53C
:109B3600702404F8E6FFE5702403F8E675F008A43F
:109B46002FF582E435F0F583E58224B1F582E583CD
:109B56003419F583E0FFE5702405F8E6FE7401C8C4
:109B6600EEC8088002C333D8FC4FF0803DE5702470
:109B760004F8E6FFE5702403F8E675F008A42FF56F
:109B860082E435F0F583E58224B1F582E583341964
:109B9600F583E0FFE5702405F8E6FE7401C8EEC81B
:109BA600088002C333D8FCF45FF0E5702403F8E6BE
:109BB600FFE5702404F8E6FD7B00A9707A0012A781
:109BC60057E5702405F974017E00C8E7C8088005CA
:109BD600C333CE33CED8F9FFA870E6FDEF5DD3943C
:109BE600007480948040047F0180027F00E5702429
:109BF60006F8CBE6CB08E6FA08E6F9EF12075A7F35
:059C06000180027F0057
:079C0B00E5702409F5702249
:10B1EF001570A870EBF61570A870EDF61570A870B5
:10B1FF00EFF6A87008E6B4010DA8700808E6FFE5A1
:10B20F0070240312ABFFA87008E6B40222A87008DE
:10B21F0008E6FFE5702403F8E6FDE5702405F8CB9A
:10B22F00E6CB08E6FA08E6F9120714FB12A6207F10
:08B23F0000E5702408F57022FF
:108786001570A870EBF61570A870EDF61570A87048
:08879600EFF6E57024F9F5701F
:10879E002408F8E66402600302898DE570240CF863
:1087AE00CBE6CB08E6FA08E6F91208F5A87012092E
:1087BE00D0E5702407F8E6B40209E4FBFA79C8782C
:1087CE00428022E5702407F8E6B48209E4FBFA79C8
:1087DE002078408010E5702407F8E6B4832FE4FB80
:1087EE00FA79C87841E8C0E0A87012095FD0E0F8C5
:1087FE001202A77B007AFF797F784712019E12033F
:10880E00FBE5702404F8EEF608EFF68046E57024DA
:10881E0007F8E6B4873DE4FBFA79A07841E8C0E0BA
:10882E00A87012095FD0E0F81202A7E4FBFAF978FB
:10883E003F1200AD7B007AFF797F784712019E12BE
:10884E0003FBE5702404F8EEF608EFF6E570240B52
:10885E00F8760112BA8BE5702406F8E4F6E570247A
:10886E0006F8E6FFC39404503FEF94014003D38013
:10887E0001C392B3000000000000000000000000E1
:10888E000000000000000000D2B000000000000058
:10889E000000000000000000000000000000C2B058
:1088AE00E5702406F80680B5E5702406F8E4F6E5D2
:1088BE00702406F8E6C394045051E570240BF8E6D4
:1088CE00FF5408D394004003D38001C392B3000039
:1088DE00000000000000000000000000000000008A
:1088EE000000D2B0000000000000000000000000F8
:1088FE000000000000000000C2B0E570240BF8EF8D
:10890E0025E0F6E5702406F80680A4E5702406F846
:10891E00E4F6E5702406F8E6C394105060E5702482
:10892E0004F8E6FE08E6FFEE5480FCD3E49400EC77
:10893E0094004003D38001C392B3000000000000F6
:10894E000000000000000000000000000000D2B097
:10895E000000000000000000000000000000000009
:10896E0000000000C2B0E5702404F8EF25E0FFEE31
:10897E0033F608EFF6E5702406F8068095D2B17F3F
:01898E0000E8
:07898F00E570240FF57022D2
:104C94001570A870EBF61570A870EDF61570A87075
:084CA400EFF6E57024F9F5704C
:104CAC00E5702408F8E6640260030251ECE5702418
:104CBC000CF8CBE6CB08E6FA08E6F91208F5A87072
:104CCC001209D0E4FFFE7D207C41A87012097712F6
:104CDC000344600B4009A8701209E841200000E46D
:104CEC00FFFE7D207CC1A870120977120344500985
:104CFC00A8701209E8C1200000E4FFFE7D207C4171
:104D0C00A8701209771200ADE4FBFA79A078411271
:104D1C0002A77B007AFF797F784712019EE4FBFAA9
:104D2C00F9783F1200AD1203FBE5702404F8EEF69F
:104D3C0008EFF612BA8BC2B30000000000000000AE
:104D4C00000000000000000000000000D2B00000D5
:104D5C000000000000000000000000000000000047
:104D6C000000C2B0C2B30000000000000000000050
:104D7C0000000000000000000000D2B000000000A5
:104D8C000000000000000000000000000000000017
:104D9C00C2B0E570240BF8E6FFC394045049E570EB
:104DAC002406F8E4F6E5702406F8E6C394164003EE
:104DBC00024F960000000000000000000000000000
:104DCC0000000000000000D2B00000000000000055
:104DDC0000000000000000000000000000C2B0E570
:104DEC00702406F80680BEC2B3000000000000006C
:104DFC0000000000000000000000000000D2B00025
:104E0C000000000000000000000000000000000096
:104E1C00000000C2B0D2B30000000000000000008F
:104E2C000000000000000000000000D2B0000000F4
:104E3C000000000000000000000000000000000066
:104E4C0000C2B0C2B300000000000000000000006F
:104E5C00000000000000000000D2B00000000000C4
:104E6C00000000000000000000000000000000C274
:104E7C00B0C2B30000000000000000000000000001
:104E8C0000000000000000D2B00000000000000094
:104E9C0000000000000000000000000000C2B0EFA5
:104EAC005402D394004003D38001C392B30000009A
:104EBC0000000000000000000000000000000000E6
:104ECC0000D2B00000000000000000000000000054
:104EDC0000000000000000C2B0E570240BF8E6549E
:104EEC0001D394004003D38001C392B300000000AF
:104EFC0000000000000000000000000000000000A6
:104F0C00D2B0000000000000000000000000000013
:104F1C00000000000000C2B0E5702406F8E4F6E5DD
:104F2C00702406F8E6C394105060E5702404F8E68B
:104F3C00FE08E6FFEE5480FCD3E49400EC940040B1
:104F4C0003D38001C392B3000000000000000000F6
:104F5C000000000000000000000000D2B0000000C3
:104F6C000000000000000000000000000000000035
:104F7C0000C2B0E5702404F8EF25E0FFEE33F6082C
:104F8C00EFF6E5702406F8068095C2B30000000029
:104F9C000000000000000000000000000000000005
:104FAC00D2B0000000000000000000000000000073
:104FBC00000000000000C2B0C2B3000000000000FE
:104FCC000000000000000000000000000000D2B053
:104FDC0000000000000000000000000000000000C5
:104FEC0000000000C2B0E570240BF8E6FFD3940378
:104FFC004049E5702406F8E4F6E5702406F8E6C3AB
:10500C00941640030251EA0000000000000000006A
:10501C000000000000000000000000D2B000000002
:10502C000000000000000000000000000000000074
:10503C0000C2B0E5702406F80680BEC2B3000000C2
:10504C000000000000000000000000000000000054
:10505C0000D2B000000000000000000000000000C2
:10506C0000000000000000C2B0D2B300000000003D
:10507C00000000000000000000000000000000D252
:10508C00B000000000000000000000000000000064
:10509C000000000000C2B0C2B3000000000000001D
:1050AC0000000000000000000000000000D2B00072
:1050BC0000000000000000000000000000000000E4
:1050CC00000000C2B0C2B3000000000000000000ED
:1050DC000000000000000000000000D2B000000042
:1050EC0000000000000000000000000000000000B4
:1050FC0000C2B0EF5402D394004003D38001C3929A
:10510C00B3000000000000000000000000000000E0
:10511C000000000000D2B000000000000000000001
:10512C000000000000000000000000C2B0E5702488
:10513C000BF8E65401D394004003D38001C392B31F
:10514C000000000000000000000000000000000053
:10515C0000000000D2B000000000000000000000C1
:10516C0000000000000000000000C2B0E570240642
:10517C00F8E4F6E5702406F8E6C394105060E57088
:10518C002404F8E6FE08E6FFEE5480FCD3E4940019
:10519C00EC94004003D38001C392B30000000000E4
:1051AC00000000000000000000000000000000D221
:1051BC00B000000000000000000000000000000033
:1051CC000000000000C2B0E5702404F8EF25E0FFF9
:1051DC00EE33F608EFF6E5702406F8068095D2B1AA
:0251EC007F0042
:0751EE00E570240FF57022AB
:0B9122007D527F0312912D7D037F0121
:10912D001570A870EDF61570A870EFF61570157026
:10913D00C2B3C2B10000000000000000000000003A
:10914D000000000000000000A870E4F6A870E6C35F
:10915D0094045031C2B0C2B3000000000000000002
:10916D00000000000000000000000000D2B0000070
:10917D0000000000000000000000000000000000E2
:10918D0000000680C7A870E4F6A870087608A870DD
:10919D00E6C39404504AC2B008E6FFA8700808560A
:1091AD0094004003D38001C392B30000000000007F
:1091BD000000000000000000000000000000D2B020
:1091CD000000000000000000000000000000000092
:1091DD0000000000A87008EFC313F6A8700680AE5B
:1091ED00D2B20000000000000000000000000000EE
:1091FD00000000000000C2B2A870E4F6A870087666
:10920D0080A870E6C39408504DC2B008E6FFE57023
:10921D002403F8E65FD394004003D38001C392B3D7
:10922D000000000000000000000000000000000031
:10923D0000000000D2B0000000000000000000009F
:10924D0000000000000000000000A87008EFC3132C
:10925D00F6A8700680ABD2B1C2B3000000000000CA
:0E926D000000000000000000000000000000F3
:07927B00E5702404F57022E8
:0AA7E7001570A870EFF615701570DC
:10A7F100C2B3C2B100000000000000000000000070
:10A801000000000000000000A870E4F6A8700876BF
:10A8110080A870E6C39408504AC2B008E6FFA87049
:10A8210008085694004003D38001C392B30000008E
:10A831000000000000000000000000000000000017
:10A8410000D2B00000000000000000000000000085
:10A8510000000000000000A87008EFC313F6A87004
:10A861000680AED2B1C2B3000000000000000000BB
:0BA871000000000000000000000000DC
:07A87C000570057005702254
:0B8996007B00E5702409F97A007F04E3
:1089A100157015701570A870C6EBC608C6EAC60822
:0D89B100C6E9C61570A870EFF615701570B8
:1089BE00C2B1000000000000000000000000000036
:1089CE00000000000000A870E4F6A870E6FFC39453
:1089DE0004503BC2B0EFB40103D38001C392B30085
:1089EE000000000000000000000000000000000079
:1089FE00000000D2B00000000000000000000000E7
:108A0E00000000000000000000A8700680BCA870E6
:108A1E00E4F6A870087608A870E6C39404504AC21B
:108A2E00B008E6FFA87008085694004003D38001F2
:108A3E00C392B30000000000000000000000000020
:108A4E0000000000000000D2B00000000000000096
:108A5E0000000000000000000000000000A87008E8
:108A6E00EFC313F6A8700680AED2B200000000006D
:108A7E00000000000000000000000000000000C226
:108A8E00B2A870E4F6E5702403F8CBE6CB08E6FA5C
:108A9E0008E6F9120A3200000000A870E6C3941826
:108AAE005070C2B000000000000000000000000086
:108ABE000000000000000000E5702403F8CBE6CBB8
:108ACE0008E6FA08E6F91208F578011208E2C8EC91
:108ADE00C8C9EDC9CAEECACBEFCBA2B4E4334BFF83
:108AEE00EAFEE9FDE8FCE5702403F8CBE6CB08E6E8
:108AFE00FA08E6F9120945D2B000000000000000A5
:108B0E0000000000000000000000000000A8700639
:108B1E008088D2B1000000000000000000000000BC
:088B2E0000000000000000003F
:078B3600E5702406F5702232
:10A55600E570240BF8E6FFE570240CF8E6FD7B07B2
:10A566008F468D47CAEBCA7B8012AC04E4FBAD472D
:10A57600AF4612A6207B80AD47AF4612A620755384
:0DA58600017B06AD47AF46128CDE1291221C
:0DA5930075486475490300D549FCD548F6AC
:10A5A000EA5407FF75F008E546A42547F582E4352F
:10A5B000F0F583E58224D1F582E583341AF583EF43
:10A5C000F0CFEACFCDEFCD7F0212912D75F008E5E7
:10A5D00046A42547F582E435F0F583E58224E1F5CC
:10A5E00082E583341BF583E4F012BB07E54675F082
:10A5F00008A4254725E025E024F9F582E4341AF57E
:04A60000830209DCEC
:106312001570A870EBF61570A870EDF61570A870E0
:08632200EFF6E57024F7F570B9
:10632A00240AF8E6B4010312A556E570240AF8E631
:10633A00FF64027042E570240DF8E6B40839E5708E
:10634A00240EF8CBE6CB08E6FA08E6F9120714FEA3
:10635A00E570240CF8E6FDE570240BF8E675F00804
:10636A00A42DF582E435F0F583E58224D1F582E5A2
:10637A0083341AF583EEF0EF640360030266B4E532
:10638A0070240DF8E6D3940740057F000266B6E54F
:10639A0070240BF8E6FFE570240C12A74BE5702475
:1063AA0008F8E65401D39400405F12BB07ECC0E042
:1063BA00EDC0E0EEC0E0EFC0E0E570240BF8E67552
:1063CA00F008A4FFE570240CF8EF2625E025E02468
:1063DA00F9F582E4341AF583E0FCA3E0FDA3E0FEBC
:1063EA00A3E0242CFBEE3401FAE43DF9E43CF8D0B6
:1063FA00E0FFD0E0FED0E0FDD0E0FCC31208D150AF
:10640A000312A5567F000266B6E570240CF8E6FF73
:10641A00E570240BF8E675F008A42FF582E435F050
:10642A00F583E58224E1F582E583341BF583E0FFF9
:10643A00E570240DF8E66F60057F000266B612BBB0
:10644A0007EFC0E0E570240BF8E6F975F008A4FF41
:10645A00E570240CF8E6FB2F25E025E024F9F58207
:10646A00E4341AF583D0E0FF1209DCCFE9CFCDEB93
:10647A00CD128CD97B00E570240412899CE5702426
:10648A0009F8E66468702CE570240CF8E6FFE570FC
:10649A00240BF8E6FE75F008A42FF582E435F0F532
:1064AA0083E58224E1F582E583341BF583E0045415
:1064BA0003802AE570240CF8E6FFE570240BF8E661
:1064CA00FE75F008A42FF582E435F0F583E5822401
:1064DA00E1F582E583341BF583E0045407FD75F08A
:1064EA0008EEA42FF582E435F0F583E58224E1F580
:1064FA0082E583341BF583EDF0E570240CF8E6FFA2
:10650A00E570240BF8E6FE75F008A42FF582E43551
:10651A00F0F583E58224E1F582E583341BF583E017
:10652A00C454F04408FD75F008EEA42FF582E43552
:10653A00F0F583E58224D1F582E583341AF583E008
:10654A004DFD7F0212912DE5702404F812095FE4D3
:10655A001203BDE4FBFA7980784B1202A7E5702496
:10656A000CF8E6FBE570240BF8E675F008A42BF5A9
:10657A0082E435F0F583E58224D1F582E583341A85
:10658A00F583E025E025E024FDF582E43440F58337
:10659A0012099012019EA8701209D0E5702409F818
:1065AA00E6B460028014E5702409F8E6B46102805A
:1065BA0043E5702409F8E6B46211A870E8C0E01255
:1065CA00095FE4FBFA7980783F8018E5702409F8BE
:1065DA00E6B46317A870E8C0E012095FE4FBFA7931
:1065EA0020784112019ED0E0F88034E5702409F841
:1065FA00E6B4682EE4FBFA79207840E8C0E0A87097
:10660A0012095FD0E0F81202A7E4FBFA79A07841F8
:10661A0012019EE4FBFA792078C11200ADA870122B
:10662A0009D0E5702409F8E6FF64616009EF646344
:10663A006004EFB4682A7F007E507DC37C47A8704F
:10664A0012097712019EE4FBFAF9783F1200AD12A3
:10665A0003FBEC1203BD7B007A5079C3784780288C
:10666A007F007E247D747C49A87012097712019EEE
:10667A00E4FBFAF9783F1200AD1203FBEC1203BDFA
:10668A007B007A24797478491202A7A8701209D07B
:10669A00A87012095FE570240EF8CBE6CB08E6FA7B
:0C66AA0008E6F91209457F0480027F0019
:0766B600E5702411F57022CC
:1051F5001570A870EBF61570A870EDF61570A8700F
:08520500EFF6E57024F3F570EB
:10520D00240EF8E6B4012DE570240FF8E6FFE570E5
:10521D002410F8E6FD7B0F12A566E5702410F8E664
:10522D0025E025E024D9F582E4341AF583120A012C
:10523D003F800000E570240EF8E66402600302531F
:10524D0004E5702411F8E664086003025304E57068
:10525D002412F8CBE6CB08E6FA08E6F91208F5E5D4
:10526D00702410F8E6FB25E025E024D9F582E4341E
:10527D001AF5831209DCEB25E025E024D9F582E44B
:10528D00341AF583E0FCA3E0FDA3E0FEA3E0FF7B71
:10529D000A7AD77923783C1203446002502AE570CC
:1052AD002410F8E625E025E024D9F582E4341AF53A
:1052BD0083E0FCA3E0FDA3E0FEA3E0FFE4FBFA79AD
:1052CD00207841120344502FE5702410F8E625E0B4
:1052DD0025E024D9F582E4341AF583120A013F80C2
:1052ED000000E5702412F8CBE6CB08E6FA08E6F9E3
:1052FD00120A323F800000E570240EF8E664036068
:10530D00030256A9E5702411F8E6D3940740057FF2
:10531D00000256ABE570240FF8E6FFE5702410127D
:10532D00A74BE5702408F8E65401D39400406F12A2
:10533D00BB07ECC0E0EDC0E0EEC0E0EFC0E0E57013
:10534D00240FF8E675F008A4FFE5702410F8EF2699
:10535D0025E025E024F9F582E4341AF583E0FCA379
:10536D00E0FDA3E0FEA3E0242CFBEE3401FAE43DC6
:10537D00F9E43CF8D0E0FFD0E0FED0E0FDD0E0FC59
:10538D00C31208D15013E570240FF8E6FFE5702421
:10539D0010F8E6FD7B0F12A5667F000256ABE57097
:1053AD002410F8E6FDE570240FF8E6FE75F008A46C
:1053BD002DF582E435F0F583E58224E1F582E58370
:1053CD00341BF583E0FFE5702411F8E66F60057F6F
:1053DD00000256ABCFEECF128CD9128996E5702410
:1053ED0010F8E6FFE570240FF8E6FE75F008A42F1F
:1053FD00F582E435F0F583E58224E1F582E5833429
:10540D001BF583E0045407FD75F008EEA42FF5821B
:10541D00E435F0F583E58224E1F582E583341BF56F
:10542D0083EDF0E5702410F8E6FFE570240FF8E643
:10543D0075F008A42FF582E435F0F583E58224E1BB
:10544D00F582E583341BF583E0C454F0440FFD7FF2
:10545D000212912DE5702409F812095FE41203BDC3
:10546D00E4FBFA7980784B1202A77B0A7AD779236D
:10547D00784012019EA8701209D0A87012095FE53C
:10548D00702404F81209D0E5702411F8E6D39400C5
:10549D00403BA870E8C0E012095FE570240FF8E604
:1054AD0075F008A4FBE5702410F8EB2625E025E047
:1054BD002419F582E4341BF583E0F8A3E0F9A3E0A9
:1054CD00FAA3E0FB1200A9D0E0F81209D0E5702490
:1054DD0004F812095FE570240FF8E675F008A4FBD7
:1054ED00E5702410F8EB2625E025E02419F582E47B
:1054FD00341BF5831209DCA870E8C0E012095FECDB
:10550D00C0E0EDC0E0EEC0E0EFC0E0E5702410F8C3
:10551D00E625E025E024D9F582E4341AF583E0FC94
:10552D00A3E0FDA3E0FEA3E0FF7B6F7A1279837801
:10553D003A12019EC8ECC8C9EDC9CAEECACBEFCB71
:10554D00D0E0FFD0E0FED0E0FDD0E0FC1202A7D00D
:10555D00E0F81209D0E570240DF8E6B47318A870C0
:10556D00E8C0E012095FE4FBFA792078411202A746
:10557D00D0E0F81209D07F757E787D0C7C35A8704F
:10558D0012097712019EA87012097712019EA87058
:10559D0012097712019EECC0E0EDC0E0EEC0E0EF25
:1055AD00C0E07FFA7EED7D6B7C3AA8701209771210
:1055BD00019EA87012097712019ED0E0FBD0E0FA8F
:1055CD00D0E0F9D0E0F81200ADECC0E0EDC0E0EEB7
:1055DD00C0E0EFC0E07F177ED97D167C40A8701229
:1055ED00097712019ED0E0FBD0E0FAD0E0F9D0E0CF
:1055FD00F81200AD7BD37A4D79E278411200ADA857
:10560D00701209D0A870E8C0E012095F7B337A935D
:10561D00798878431200A9D0E0F81209D0E4FFFE92
:10562D007D207C41A87012097712019EE4FBFAF9E6
:10563D00783F1200AD1203FBEC1203BDE4FBFA79C7
:10564D002078411202A7A8701209D07F007EC07D7C
:10565D00797C44A870120977120344600B4009A8A5
:10566D00701209E84479F99AE4FFFE7D487CC3A8DD
:10567D00701209771203445009A8701209E8C47911
:10568D00F99AA87012095FE5702412F8CBE6CB08E1
:0E569D00E6FA08E6F91209457F0480027F0153
:0756AB00E5702415F57022E3
:104723001570A870EBF61570A870EDF61570A870EB
:08473300EFF6E57024F6F570C5
:10473B00240BF8E664017055E570240AF8E6B477AB
:10474B0012E570240CF8E6FFE570240DF8E6FD7B0E
:10475B00888010E570240CF8E6FFE570240DF8E670
:10476B00FD7B8C12A566E570240DF8E6FFE5702441
:10477B000CF8E675F008A42FF582E435F0F583E527
:10478B008224E1F582E583341BF583E4F0E57024A4
:10479B000BF8E664036003024C8BE570240EF8E61D
:1047AB00D3940240057F00024C8DE570240CF8E693
:1047BB00FFE570240DF8E6FD7B00E5702404F97A23
:1047CB000012A757E5702404F8E65401D394005067
:1047DB000302486912BB07ECC0E0EDC0E0EEC0E09D
:1047EB00EFC0E0E570240CF8E675F008A4FFE57067
:1047FB00240DF8EF2625E025E024F9F582E4341AA0
:10480B00F583E0FCA3E0FDA3E0FEA3E0242CFBEE8C
:10481B003401FAE43DF9E43CF8D0E0FFD0E0FED0FF
:10482B00E0FDD0E0FCC31208D1502EE570240AF84D
:10483B00E6B47712E570240CF8E6FFE570240DF86A
:10484B00E6FD7B888010E570240CF8E6FFE570240C
:10485B000DF8E6FD7B8C12A5667F00024C8DE57092
:10486B00240DF8E6FDE570240CF8E6FE75F008A4BF
:10487B002DF582E435F0F583E58224E1F582E583BD
:10488B00341BF583E0FFE5702405F8EFF65401FFC8
:10489B00E570240EF8EF6660057F00024C8DCFEEBD
:1048AB00CF128CD97B00E570240612899CE570240D
:1048BB000AF8E66477600302495AE570240DF8E6BE
:1048CB00FFE570240CF8E6FE75F008A42FF582E4E2
:1048DB0035F0F583E58224E1F582E583341BF5831E
:1048EB00E0045401FD75F008EEA42FF582E435F0D9
:1048FB00F583E58224E1F582E583341BF583EDF046
:10490B00E570240DF8E6FF75F008EEA42FF582E4B0
:10491B0035F0F583E58224E1F582E583341BF583DD
:10492B00E070047D8880027D987F0212912DE570E6
:10493B002406F812095FE41203BDE4FBFA798078D0
:10494B004B1202A77B0A7AD779A3783C0249EAE596
:10495B0070240DF8E6FFE570240CF8E6FE75F00800
:10496B00A42FF582E435F0F583E58224E1F582E5A9
:10497B0083341BF583E0045401FD75F008EEA42F7E
:10498B00F582E435F0F583E58224E1F582E58334A5
:10499B001BF583EDF0E570240DF8E6FF75F008EEDE
:1049AB00A42FF582E435F0F583E58224E1F582E569
:1049BB0083341BF583E0C454F0448CFD7F021291C9
:1049CB002DE5702406F812095FE41203BDE4FBFA2F
:1049DB007980784B1202A77B0A7AD779A3783E129B
:1049EB00019EA8701209D0E570240AF8E6FF6475E1
:1049FB006008EF64766003024AE6A870E8C0E01234
:104A0B00095F7B6F7A127983783A1202A7D0E0F8AC
:104A1B001209D0E570240AF8E6B47618A870E8C03D
:104A2B00E012095FE4FBFA792078411202A7D0E08B
:104A3B00F81209D07F757E787D0C7C35A870120931
:104A4B007712019EA87012097712019EA8701209A5
:104A5B007712019EECC0E0EDC0E0EEC0E0EFC0E0ED
:104A6B007FFA7EED7D6B7C3AA87012097712019E5E
:104A7B00A87012097712019ED0E0FBD0E0FAD0E0CB
:104A8B00F9D0E0F81200ADECC0E0EDC0E0EEC0E014
:104A9B00EFC0E07F177ED97D167C40A87012097796
:104AAB0012019ED0E0FBD0E0FAD0E0F9D0E0F81292
:104ABB0000AD7BD37A4D79E278411200ADA870122C
:104ACB0009D0A870E8C0E012095F7B337A9379882C
:104ADB0078431200A9D0E0F8024C09E570240AF8DB
:104AEB00E664776003024C0CA870E8C0E012095F23
:104AFB007B007A247974784912019ED0E0F8120970
:104B0B00D07F5D7E0B7D237C2CA870120977120160
:104B1B009EA87012097712019EA8701209771201D4
:104B2B009EA87012097712019EECC0E0EDC0E0EE7A
:104B3B00C0E0EFC0E07F177EEE7D8B7C32A8701259
:104B4B00097712019EA87012097712019EA87012A4
:104B5B00097712019EC8ECC8C9EDC9CAEECACBEFE2
:104B6B00CBD0E0FFD0E0FED0E0FDD0E0FC1200A9FE
:104B7B00ECC0E0EDC0E0EEC0E0EFC0E07F4B7E5F4D
:104B8B007D047C38A87012097712019EA870120957
:104B9B007712019ED0E0FBD0E0FAD0E0F9D0E0F83C
:104BAB001200ADECC0E0EDC0E0EEC0E0EFC0E07F86
:104BBB004B7E767D6C7C3DA87012097712019ED0DE
:104BCB00E0FBD0E0FAD0E0F9D0E0F81200AD7B1FAB
:104BDB007A85796B78BE1200ADA8701209D0E4FF0C
:104BEB00FEFDFCA8701209771203446014A8701222
:104BFB000977E4FFFE7D7A7C441202A7A8701209A4
:104C0B00D0E4FFFE7DC87C42A87012097712019E8A
:104C1B00E4FBFAF9783F1200AD1203FBEC1203BD73
:104C2B00E4FBFA79C878421202A7A8701209D07F68
:104C3B005C7EFF7D797C44A8701209771203446077
:104C4B000B4009A8701209E84479FF5CE4FFFE7D74
:104C5B00487CC3A8701209771203445009A870123C
:104C6B0009E8C479FF5CA87012095FE570240FF89E
:104C7B00CBE6CB08E6FA08E6F91209457F04800279
:024C8B007F01A7
:074C8D00E5702412F570220E
:106D49001570A870EBF61570A870EDF61570A8709F
:086D5900EFF6E57024F7F57078
:106D6100E570240AF8E66401704FE570240BF8E63B
:106D7100FFE570240CF8E6FD7B0512A566E570249D
:106D81000CF8E6FFE570240BF8E675F008A42FF582
:106D910082E435F0F583E58224E1F582E583341B55
:106DA100F583E4F0EF25E025E024D9F582E4341AF7
:106DB100F583120A013F800000E570240AF8E664B9
:106DC10003600302702EE570240DF8E6D3940740AA
:106DD100057F00027030E570240BF8E6FFE57024B2
:106DE1000CF8E6FD7B00E5702404F97A0012A75740
:106DF100E5702404F8E65401D39400406F12BB07F8
:106E0100ECC0E0EDC0E0EEC0E0EFC0E0E570240BC7
:106E1100F8E675F008A4FFE570240CF8EF2625E0EC
:106E210025E024F9F582E4341AF583E0FCA3E0FDC2
:106E3100A3E0FEA3E0242CFBEE3401FAE43DF9E4E7
:106E41003CF8D0E0FFD0E0FED0E0FDD0E0FCC31282
:106E510008D15013E570240BF8E6FFE570240CF817
:106E6100E6FD7B0512A5667F00027030E570240CFB
:106E7100F8E6FDE570240BF8E6FE75F008A42DF5A3
:106E810082E435F0F583E58224E1F582E583341B64
:106E9100F583E0FFE570240DF8E66F60057F0002E1
:106EA1007030CFEECF128CD97B00E57024051289AA
:106EB1009CE570240CF8E6FFE570240BF8E6FE75FE
:106EC100F008A42FF582E435F0F583E58224E1F59D
:106ED10082E583341BF583E0045407FD75F008EE69
:106EE100A42FF582E435F0F583E58224E1F582E50E
:106EF10083341BF583EDF0E570240CF8E6FFE570B3
:106F0100240BF8E675F008A42FF582E435F0F5833B
:106F1100E58224E1F582E583341BF583E0C454F076
:106F21004405FD7F0212912DE5702405F812095FD9
:106F3100E41203BDE4FBFA7980784B1202A77B0AC5
:106F41007AD779A3783F12019EC8ECC8C9EDC9CAA6
:106F5100EECACBEFCB7F0A7ED77D237C3F1200A9FF
:106F6100A8701209D0A870E8C0E012095FE4FBFA2A
:106F7100797A78441202A7D0E0F81209D0A870E813
:106F8100C0E012095F7B007A247974784912019E6E
:106F9100D0E0F81209D0A870E8C0E012095F7B9A2E
:106FA1007A99798878431200A9D0E0F81209D0E4DF
:106FB100FFFE7DC87C42A87012097712019EE4FB96
:106FC100FAF9783F1200AD1203FBEC1203BDE4FBAA
:106FD100FA79C878421202A7A8701209D0E4FFFE1C
:106FE1007D167C43A870120977120344600B400997
:106FF100A8701209E84479FF5CE4FFFE7D5C7CC265
:10700100A8701209771203445009A8701209E8C444
:1070110079FF5CA87012095FE570240EF8CBE6CB0E
:0F70210008E6FA08E6F91209457F0480027F01AC
:07703000E5702411F5702248
:0CA883007F011292827FFC12A88F7F00E0
:08A88F001570A870EFF61570BA
:10A89700C2B3C2B1000000000000000000000000C9
:10A8A7000000000000000000A870E4F6A870E6C3EE
:10A8B70094085047D2B008E6FF548094004003D371
:10A8C7008001C392B30000000000000000000000F8
:10A8D700000000000000000000C2B00000000000FF
:10A8E700000000000000000000000000000000A8B9
:10A8F7007008EF25E0F6A8700680B1D2B1C2B300A8
:10A907000000000000000000000000000000000040
:03A917000000003D
:05A91A0005700570222C
:109282001570A870EDF61570A870EFF615701570D0
:10929200C2B3C2B1000000000000000000000000E4
:1092A2000000000000000000A8700808E62450A892
:1092B2007008F6A870E4F6A870E6C394085047D286
:1092C200B008E6FF548094004003D38001C392B3F8
:1092D200000000000000000000000000000000008C
:1092E20000000000C2B0000000000000000000000A
:1092F20000000000000000000000A87008EF25E058
:10930200F6A8700680B1A8700808E62450A8700874
:10931200F6A870E4F6A870E6C394085040D2B0C232
:10932200B300000000000000000000000000000088
:109332000000000000C2B0000000000000000000B9
:10934200000000000000000000000008E8C0E0E6A5
:1093520025E0FFD0E0F8EFF6A8700680B8A870E428
:10936200F6A870E6C39408504ED2B0E5702403F814
:10937200E6FF5480D394004003D38001C392B3002C
:1093820000000000000000000000000000000000DB
:10939200000000C2B0000000000000000000000059
:1093A200000000000000000000E5702403F8EF2533
:1093B200E0F6A8700680AAD2B1C2B3000000000095
:0F93C2000000000000000000000000000000009C
:0793D100E5702404F5702291
:108FBC00157015701570A870C6EBC608C6EAC60801
:098FCC00C6E9C6E57024FCF5704D
:108FD500C2B1000000000000000000000000000019
:108FE500000000000000F8087601A870E4F6A870FB
:108FF500E6C394085047D2B008E6FF548094004079
:1090050003D38001C392B3000000000000000000FC
:109015000000000000000000000000C2B0000000D9
:10902500000000000000000000000000000000003B
:0D90350000A87008EF25E0F6A8700680B1D5
:10904200A87008087605A8700808E6D394004022A4
:10905200E5702403F87613E5702403F8E6D3940050
:10906200400900E5702403F81680ECA87008081681
:0290720080D4A8
:10907400A870E4F6E5702404F8CBE6CB08E6FA0819
:10908400E6F9120A3200000000A870E6C3941850F2
:1090940070D2B000000000000000000000000000DA
:1090A40000000000000000E5702404F8CBE6CB08C3
:1090B400E6FA08E6F91208F578011208E2C8ECC8E5
:1090C400C9EDC9CAEECACBEFCBA2B4E4334BFFEA75
:1090D400FEE9FDE8FCE5702404F8CBE6CB08E6FAEB
:1090E40008E6F9120945C2B00000000000000000C3
:1090F400000000000000000000000000A8700680CE
:1091040088D2B10000000000000000000000000050
:079114000000000000000054
:07911B00E5702407F5702246
:1066BD001570A870EBF61570A870EDF61570A87032
:0866CD00EFF6E57024F6F5700C
:1066D500240BF8E6640160030267ACE570240CF84E
:1066E500E6FFE570240D12BA967D027F00129282B4
:1066F5001D7F021292827DD07F031292827FF0125B
:10670500A88FE5702404F81209E8000000007FA0B6
:106715007E867D017C00E5702404F8120977C3129A
:0767250008D1505730B554B4
:10672C00E5702408F87601E5702408F8E6D39400A7
:10673C004023E5702409F87603E5702409F8E6D3C4
:10674C009400400900E5702409F81680ECE57024EB
:05675C0008F81680D2D0
:10676100E5702404F812095FEF2401FFE43EFEE422
:106771003DFDE43CFCE5702404F81209D080937DD2
:106781000F12A883E570240DF8E6FFE570240CF8DC
:10679100E675F008A42FF582E435F0F583E582244F
:1067A10089F582E583341BF583E4F0E570240BF869
:1067B100E664036003026A39E570240EF8E6D394B7
:1067C1000740057F00026A3BE570240CF8E6FFE50F
:1067D10070240D12BA96E5702404F81209E800003D
:1067E1000000E47F107E27FDFCE5702404F8120907
:0A67F10077C31208D1505730B55499
:1067FB00E5702408F87601E5702408F8E6D39400D8
:10680B004023E5702409F87603E5702409F8E6D3F4
:10681B009400400900E5702409F81680ECE570241B
:05682B0008F81680D200
:10683000E5702404F812095FEF2401FFE43EFEE452
:106840003DFDE43CFCE5702404F81209D08094E49A
:106850007F107E27FDFCE5702404F8120977C3122F
:1068600008D17004FF026A3BE570240DF8E6FEE5EE
:1068700070240CF8E675F008A42EF582E435F0F5E6
:1068800083E5822489F582E583341BF583E0FDE509
:1068900070240EF8E66D60057F00026A3BE5702407
:1068A0000DF8E6FFE570240CF8E6FCED045407FD56
:1068B00075F008ECA42FF582E435F0F583E5822429
:1068C00089F582E583341BF583EDF075F008ECA4BF
:1068D0002EF582E435F0F583E5822489F582E5839F
:1068E000341BF583E0C454F0440FFD12A8837B00F1
:1068F000E5702404F97A00128FBCE5702404F812C4
:10690000095F78081208E2EC1203BDA8701209D0E2
:10691000E4FBFA7980784FE8C0E0A87012095FD0F4
:10692000E0F81202A7E4FBFA79A0784012019EA8D1
:10693000701209D0E570240AF8E6B46402803FE5DD
:1069400070240AF8E6B4652DE4FBFA79207840E873
:10695000C0E0A87012095FD0E0F81202A7E4FBFAC9
:1069600079A0784112019EE4FBFA792078C11200E7
:10697000ADA870803EE570240AF8E6B46617A870EA
:10698000E8C0E012095FE4FBFA7980783F12019ECB
:10699000D0E0F8801EE570240AF8E6B46718A87005
:1069A000E8C0E012095FE4FBFA7920784112019E09
:1069B000D0E0F81209D0E570240AF8E6FF646560BB
:1069C00004EFB4672A7F007E407D1C7C46A87012CD
:1069D000097712019EE4FBFAF9783F1200AD120329
:1069E000FBEC1203BD7B007A40791C784680287F3F
:1069F000007E507DC37C47A87012097712019EE487
:106A0000FBFAF9783F1200AD1203FBEC1203BD7BD9
:106A1000007A5079C378471202A7A8701209D0A84B
:106A20007012095FE570240FF8CBE6CB08E6FA0890
:0B6A3000E6F91209457F0480027F0197
:076A3B00E5702412F5702242
:107B71001570A870EBF61570A870EDF61570A87069
:087B8100EFF6E57024F5F57044
:107B8900240CF8E664036003027E14E570240FF800
:107B9900E6FED3940340057F00027E167401C8EE09
:107BA900C8088002C333D8FCA8700808F675840198
:107BB900E5702403F81209E800000000A870E4F653
:107BC900A870E6C3940A4003027C81E4F5CCF5CDA4
:107BD900F5C975C804E570240DF8E6FFE570240EB3
:107BE90012BA96E570240DF8E6FFE570240EF8E662
:107BF900FDE4FB12BA9B7F0012B89FE570240DF8D3
:107C0900E6FFE570240EF8E6FD7B00A970097A000D
:107C190012A757A8700808C9E8C9A87008E65760EC
:107C290005E5C830E7D0E4F5C8E5702403F8E8C0F5
:107C3900E012095FECC0E0EDC0E0EEC0E0EFC0E0AB
:107C4900AFCDEFFEADCC7C00E42DFFEC3ECBEFCB0E
:107C5900FAE4F9F8D0E0FFD0E0FED0E0FDD0E0FC96
:107C6900EF2BFFEE3AFEE93DFDE83CFCD0E0F812CF
:107C790009D0A87006027BC9E5C85480FFBF012757
:107C8900E570240BF8E6B4700FE5702407F81209C3
:107C9900E8411FFFFF027DF7E5702407F81209E8A4
:107CA9004479FFFE027DF7E5702403F812095FE4C9
:107CB9001203BDECC0E0EDC0E0EEC0E0EFC0E0A80B
:107CC90070E6FCE41203C7C8ECC8C9EDC9CAEECA1C
:107CD900CBEFCBD0E0FFD0E0FED0E0FDD0E0FC124E
:107CE90002A7E4FBFA79C478421202A7E4FBFA7905
:107CF90040784112019EE5702407F81209D0E57019
:107D09002407F8E8C0E012095F7B007A24797478C7
:107D1900491202A7D0E0F81209D0E570240BF8E661
:107D290064707BCD7ACC798C783F7044E8C0E0E50B
:107D3900702407F812095FD0E0F81202A77B007AD5
:107D4900B8790878491202A77B287A6B796E784E40
:107D590012019EE5702407F81209D0E5702407F88E
:107D6900E8C0E012095F7B777ABE799F783D804150
:107D7900E8C0E0E5702407F812095FD0E0F81202C4
:107D8900A7E4FBFA79AF78451202A77B287A6B79C9
:107D99006E784E12019EE5702407F81209D0E5703D
:107DA9002407F8E8C0E012095F7B9A7A9979F97893
:107DB900401200A9D0E0F81209D0E4FFFE7D7A7CD8
:107DC90044E5702407F812097712019EE4FBFAF9D9
:107DD900783F1200AD1203FBEC1203BDE4FBFA7904
:107DE9007A78441202A7E5702407F81209D0E570E1
:107DF9002407F812095FE5702410F8CBE6CB08E6F2
:0D7E0900FA08E6F91209457F0480027F01A6
:077E1600E5702413F5702252
:1016BF001570A870EBF61570A870EDF61570A87080
:0816CF00EFF6E57024F0F57060
:1016D700E5702412F8E675F008A4FFE5702413F806
:1016E700EF26FFE570240DF8EFF6E5702411F8E614
:1016F70064046003021817E5702414F8E67032E5F5
:1017070070240DF8E625E025E02439F582E4341B42
:10171700F583120A0142960000E5702415F8CBE61E
:10172700CB08E6FA08E6F9120A32429600000218D8
:1017370012E5702414F8E6B40132E570240DF8E6DA
:1017470025E025E024C1F582E4341BF583120A0164
:1017570000000000E5702415F8CBE6CB08E6FA0890
:10176700E6F9120A3200000000021812E57024148C
:10177700F8E6B40231E570240DF8E625E025E0240B
:1017870059F582E4341BF583120A013F800000E516
:10179700702415F8CBE6CB08E6FA08E6F9120A3208
:1017A7003F8000008065E5702414F8E6FFB4032B42
:1017B700E570240DF8E625E02479F582E4341BF57D
:1017C70083E4F0A3743CF0E5702415F8CBE6CB086E
:1017D700E6FA08E6F9E475F03C802DEFB4042CE551
:1017E70070240DF8E625E02409F582E4341DF5831D
:1017F700E4F0A37405F0E5702415F8CBE6CB08E612
:10180700FA08E6F9E475F00512088E7F0002202831
:10181700E570240DF8E62419F582E4341DF583E01C
:1018270060030218EE12BB07E570240DF8E625E009
:1018370025E02491F582E4341BF583E0F8A3E0F971
:10184700A3E0FAA3E0FBC3EF9BFFEE9AFEED99FD41
:10185700EC98FCECC0E0EDC0E0EEC0E0EFC0E0E5E6
:1018670070240DF8E625E02479F582E4341BF5832E
:10187700E0FEA3E0FF7C007D6412078ECBEFCBCAAE
:10188700EECAE4F9F8D0E0FFD0E0FED0E0FDD0E00A
:10189700FCC31208D140030219CAE570240DF8E60B
:1018A7002419F582E4341DF5837401F012BB07E5B2
:1018B70070240DF8E6FB25E025E02491F582E43459
:1018C7001BF5831209DCEB25E025E02439F582E4DA
:1018D700341BF583E0FCA3E0FDA3E0FEA3E0FFA833
:1018E700701209D002199312BB07E570240DF8E6B0
:1018F70025E025E02491F582E4341BF583E0F8A385
:10190700E0F9A3E0FAA3E0FBC3EF9BFFEE9AFEED3D
:1019170099FDEC98FCECC0E0EDC0E0EEC0E0EFC054
:10192700E0E570240DF8E625E02409F582E4341D8E
:10193700F583E0FEA3E0FF7C007D6412078ECBEF0A
:10194700CBCAEECAE4F9F8D0E0FFD0E0FED0E0FD64
:10195700D0E0FCC31208D1506AE570240DF8E624E4
:1019670019F582E4341DF583E4F012BB07E5702412
:101977000DF8E625E025E02491F582E4341BF58394
:101987001209DCA8701209E800000000A9701570A0
:1019970015701570A870760008760008C6E9C61598
:1019A70070A870E4F6E5702417F8E61570A870F6CD
:1019B700E5702417F8E6FB7D02E5702415F8E6FFCD
:1019C7001216BFE5702411F8E664016003021A6A73
:1019D700E5702412F8E6FFE5702413F8E6FD7B0EA8
:1019E70012AC04E5702412F8E6FFE5702413F8E65C
:0C19F700FD7B0E12A620128CCB12912258
:101A0300E570240EF87664E570240EF8E6D39400AE
:101A13004023E570240FF87603E570240FF8E6D32E
:101A23009400400900E570240FF81680ECE570245B
:051A33000EF81680D240
:101A38007D077F0212912DE570240DF8E62419F533
:101A480082E4341DF5837401F012BB07E570240DA0
:101A5800F8E625E025E02491F582E4341BF58312AD
:101A680009DCE5702411F8E664026003021D40E514
:101A7800702414F8E6703FE5702415F8CBE6CB081F
:101A8800E6FA08E6F91208F5E4FBFAF9F812034455
:101A98005024E5702415F8CBE6CB08E6FA08E6F9F9
:101AA8001208F5E570240DF8E625E025E02439F55F
:101AB80082E4341B8058E5702414F8E6B40124E568
:101AC800702415F8CBE6CB08E6FA08E6F91208F513
:101AD800E570240DF8E625E025E024C1F582E4341C
:101AE8001B802BE5702414F8E6B40229E570241550
:101AF800F8CBE6CB08E6FA08E6F91208F5E5702413
:101B08000DF8E625E025E02459F582E4341BF58339
:101B18001209DC8062E5702414F8E6FFB4032BE5B3
:101B2800702415F8CBE6CB08E6FA08E6F912082B7C
:101B3800FDE570240DF8E625E02479F582E4341BF0
:101B4800F583E5F0F0A3EDF0802DEFB40429E570FE
:101B58002415F8CBE6CB08E6FA08E6F912082BFFBD
:101B6800E570240DF8E625E02409F582E4341DF536
:101B780083E5F0F0A3EFF0E5702414F8E6D39400C1
:101B880040057F00022028E5702415F8CBE6CB0835
:101B9800E6FA08E6F91208F5A8701209D0E4FFFE83
:101BA800FDFCA8701209771203445009A8701209A5
:101BB800E800000000E4FFFE7DC87C42A87012091E
:101BC80077120344600B4009A8701209E842C80064
:101BD80000E4FBFA79C87842E8C0E0A87012095F0F
:101BE800D0E0F81202A77B007AFF797F78471201CC
:101BF8009E1203FBE570240AF8EEF608EFF6E5708E
:101C08002412F8E6FFE5702413F8E6FDE4FB12A6BB
:101C180020E570240CF8E4F6E570240CF8E6FFC320
:101C280094045033EF940140047F0480027F001233
:101C3800A604E5702412F8E6FFE5702413F8E6FD23
:101C4800E5702405F8E64408FB12A62012A60BE569
:101C580070240CF80680C1E570240CF8E4F6E570F1
:101C6800240CF8E6C39404504DE5702414F8E654A7
:101C780008D3940040047F0480027F0012A604E584
:101C8800702412F8E6FFE5702413F8E6FDE57024E9
:101C980005F8E64408FB12A62012A60BE5702414EA
:101CA800F8E8C0E0E625E0FFD0E0F8EFF6E57024BC
:101CB8000CF806021C66E570240CF8E4F6E57024BE
:101CC8000CF8E6C39410505DE570240AF8E65480D9
:101CD800FED3E49400EE940040047F0480027F0069
:101CE80012A604E5702412F8E6FFE5702413F8E65E
:101CF800FDE5702405F8E64408FB12A62012A60BA1
:101D0800E570240AF8E8C0E0C9E8C909E725E0FF5A
:101D180019E733FED0E0F8EEF608EFF6E570240C8C
:101D2800F806021CC5E5702412F8E6FFE5702413D6
:101D3800F8E6FD7B0E12A620E5702411F8E6640390
:101D48006003022026E5702414F8E67013E5702479
:101D58000DF8E625E025E02439F582E4341B8036C9
:101D6800E5702414F8E6B40113E570240DF8E625AF
:101D7800E025E024C1F582E4341B801AE5702414C0
:101D8800F8E6B40221E570240DF8E625E025E02404
:101D980059F582E4341BF583E0FCA3E0FDA3E0FEE3
:101DA800A3E0FF02200DE5702414F8E6FEB4032832
:101DB800E570240DF8E625E02479F582E4341BF576
:101DC80083E0F9A3E0FDE5702415F8CBE6CB08E63F
:101DD800FA08E6C98DF0802AEEB4042EE570240DC9
:101DE800F8E625E02409F582E4341DF583E0F9A33B
:101DF800E0FFE5702415F8CBE6CB08E6FA08E6C95B
:101E08008FF012088E7F02022028E5702414F8E66D
:101E1800640560057F00022028E5702412F8E6FFBB
:101E2800E5702413F8E6FD7B00E5702404F97A00D8
:101E380012A757E5702404F8E65401D3940040052E
:101E48007F00022028128CCB7B00E57024061289C3
:101E58009C7D077F0212912DE5702406F812095F18
:101E6800E41203BDE4FBFA7980784B1202A77B0ADF
:101E78007AD779A3784012019E7B0A7AD77923789A
:101E8800C01200ADA8701209D0A870E8C0E012090D
:101E98005F7B387A1F7943784112019ED0E0F812AF
:101EA80009D0A870E8C0E012095FECC0E0EDC0E01E
:101EB800EEC0E0EFC0E0E570240DF8E625E025E08F
:101EC8002439F582E4341BF583E0FCA3E0FDA3E0AC
:101ED800FEA3E0FFE4FBFA797A78441202A7C8EC83
:101EE800C8C9EDC9CAEECACBEFCBD0E0FFD0E0FE3F
:101EF800D0E0FDD0E0FC1202A7D0E0F81209D07BB8
:101F0800CD7ACC792C7840E8C0E0A87012095FD06F
:101F1800E0F81202A7C8ECC8C9EDC9CAEECACBEFEF
:101F2800CBE4FFFE7DC87C421200A9A8701209D03C
:101F3800E570240DF8E625E025E024C1F582E434B7
:101F48001BF583E0F8A3E0F9A3E0FAA3E0FBE8C0FF
:101F5800E0A87012095FD0E0F81200A9E570240D1E
:101F6800F8E625E025E02459F582E4341BF583E002
:101F7800F8A3E0F9A3E0FAA3E0FB12019EA870120F
:101F880009D07F007E507DC37C47A8701209771264
:101F9800019EE4FBFAF9783F1200AD1203FBEC1244
:101FA80003BD7B007A5079C378471202A7A8701244
:101FB80009D0E570240DF8E62419F582E4341DF5FE
:101FC80083E06401705412BB07E570240DF8E62520
:101FD800E025E02491F582E4341BF583E0F8A3E0E2
:101FE800F9A3E0FAA3E0FBC3EF9BFFEE9AFEED999D
:101FF800FDEC98FCE47B64FAF9F8C31208D1501A96
:10200800A87012095FE5702415F8CBE6CB08E6FA4C
:1020180008E6F91209457F0480067F0080027F01E7
:07202800E5702418F5702299
:107E1D001570A870EBF61570A870EDF61570A870BA
:087E2D00EFF6E57024F5F57095
:107E3500E570240CF8E664017021E570240DF8E680
:107E4500FFE570240EF8E6FD7BFF12A620E5702401
:107E55000DF8E6FFE570240E12ABFFE570240CF873
:107E6500E6640360030280B6E570240FF8E670123D
:107E7500E570240DF8E6FFE570240EF8E6FD7BFEBF
:107E85008010E570240DF8E6FFE570240EF8E6FD98
:107E95007BFD12A620E570240DF8E6FFE570240EA3
:037EA50012BA9678
:107EA800E5702409F8760AE5702409F8E6D3940009
:107EB8004023E570240AF87603E570240AF8E6D32F
:107EC8009400400900E570240AF81680ECE5702457
:057ED80009F81680D23C
:107EDD0030B418E570240DF8E6FFE570240EF8E6D1
