:1080940020002A2A2000202A2A20002020204164AF
:1080A40064726573733A20202530345800202020F0
:1080B4002020536C617665206D6F6465200020205C
:1080C4002020205265766973696F6E3A002573002B
:1080D40057726F6E672043504C44206669726D7707
:1080E40061726500536C61766520616464723A2044
:1080F400256264005265713A202530326264202181
:108104003D204163743A202530326264004F766525
:108114007263757272656E74203E312E3541206F24
:108124006E00202020323456206F757470757420D0
:1081340021212120202000202020536C61766520FD
:10814400616464723A2025626400524553455400C8
:108154004F76657263757272656E74203E302E358B
:1081640041206F6E00202020203556206F757470DA
:108174007574202121210020202020536C61766514
:1081840020616464723A2025626400202020205516
:10819400203D2025312E32662056004E6577206D15
:1081A4006F64756C6520696E20706F72742025622F
:1081B4006400506C6573652073656C6563743A0084
:1081C4003E25303262582025732020202020202094
:1081D40020202020200053454C2020202020202037
:1081E4002020202020204E4558540053454C202068
:1081F40020202020202050524556202020202000DE
:1082040053454C2020202020202020505245562029
:108214004E455854004D4F4420205641525320207F
:1082240053595320202020202000502562643A25F1
:108234003032625820257320202020202020202046
:10824400200020202020202020202020202020204A
:1082540020202020202000455343202020202020BF
:1082640000202025632000202020200045534320A7
:10827400455241534520202020202020202020202A
:108284000045534320455241534520205052455602
:10829400204E4558540020202020457261736520EB
:1082A4006D6F64756C6520202020002020202069DB
:1082B4006E20706F727420256264203F202020009D
:1082C400534C415645204D4F44450041646472650A
:1082D4007373202532626400323031352D30362DEF
:1082E4003132202D2032613231336138005343530F
:0682F4002D323030310094
:10B66A00017D01C116C110C117C118C111C112C192
:10B67A0013C1154400A9000000004400AD000000F9
:09B68A000041114100411146008C
:02700C008F44AF
:10700E0090114874FFF07D017F0012B86C7D007FF7
:10701E000112B86CE4901A26F0901A26E0FFC39481
:10702E0002500B12A32A901A26E004F080EB12BA3B
:10703E006DEF24FF9209D20E200903027247E54438
:10704E007003027181E4901A29F0901A26F0901ABA
:10705E0026E0FFC39410400302718174882FF582DD
:10706E00E43400F583E0901A28F0F470030271788E
:10707E00E075F00BA42459F582E5F0343FF583E476
:10708E0093FB740193FA740293F9EA494B7003026D
:10709E007178E4901A27F0901A26E02498F582E48D
:1070AE003400F583E0FF901A27E0C39F400302717E
:1070BE0078AB1DAA1EA91F901A29E0FF75F01DA41A
:1070CE00F58285F08312072DFD7C00C004C0057D7E
:1070DE0000EF75F01DA429F9EA35F0FA90000D12B3
:1070EE000A6DD007D006120B22901A29E075F01DFA
:1070FE00A4AB1D251FF9E51E35F0FA90000D120AFE
:10710E006D157015701570A870A60308A60208A656
:10711E0001901A27E01570A870F6901A26E0FF5419
:10712E00071570A870F6EF131313541FFB7D04E0C0
:10713E0024B1F582E43400F583E0FF901A28E0755F
:10714E00F00BA42459F582E5F0343FF583740193D6
:10715E00FA740293F5828A83120B20901A29E004A6
:10716E00F0901A27E004F00270A5901A26E004F0C1
:10717E0002705CE4901A26F0901A26E0FFC3941079
:10718E00400302722C74882FF582E43400F583E0FC
:10719E00FFF4700302722375F00BEFA42459F582ED
:1071AE00E5F0343FF583E493FB740193FA74029394
:1071BE00F9EA494B605F157015701570A87076006E
:1071CE000876000876001570A870E4F6901A26E08E
:1071DE00FF54071570A870F6EF131313541FFB7DA1
:1071EE0001E0FE24B1F582E43400F583E0FF7488FB
:1071FE002EF582E43400F583E075F00BA42459F5E6
:10720E0082E5F0343FF583740193FA740293F582AC
:10721E008A83120B20901A26E004F0027186E49005
:10722E001A26F0901A26E0FFC3788296500B12B8F9
:10723E003D901A26E004F080EAE4FDFF12BADAE48B
:10724E00901A26F07B007A00799312BAB1EEC3132E
:10725E00FEEF13FFC374079FFFE49EFE901A26E015
:10726E00C39FE49E50117BFF7A80799412B8F09000
:10727E001A26E004F080CD7BFF7A80799612B8F062
:10728E007B007A00799312B8F07BFF7A80799A129C
:10729E00B8F07D01E4FF12BADA7BFF30090F7A8075
:1072AE00799F788DE6F54908E6F54A80047A80796B
:1072BE00B11256E97D02E4FF12BADA7BFF7A8079C9
:1072CE00C21256E97D03E4FF12BADA7549FF754A18
:0D72DE0082754BDC7BFF7A8079D10256E986
:07B18B00EF24FF920A7F018F
:10B19200E4F58420160FD216F58475D103F5BA753D
:0DB1A200BC9875E880C374079F5407F5BB87
:0DB1AF0075460275471300D547FCD546F6DE
:10B1BC00C2AFC2EDD2EC30EDFDD2AFAFBFEFFFAD01
:10B1CC00BEED901A44CFF0A3EFF0C3E094E8901AD0
:0CB1DC0044E0940350047F0180027F00D7
:01B1E8002244
:107889002009037F0122E4901A3DF012BB01C8ECE4
:10789900C8C9EDC9CAEECACBEFCB900000E0FCA382
:1078A900E0FDA3E0FEA3E0240AFFE43EFEE43DFD83
:1078B900E43CFCD31208D1501A12BB01900000E03D
:1078C900F8A3E0F9A3E0FAA3E0FBD31208D150032F
:1078D900027B3112BB019000001209DCE4901A3ED0
:1078E900F09000A8E0FE901A3EE0FFC39E4003021C
:1078F9007B407B017A1A793C12A9B4901A3CE0C406
:10790900540F640260617A007B647D017F0112AAD1
:10791900D820184B12BB5EE4FDFF12BADA7BFF7A5E
:107929008079D412B8F07D01E4FF12BADA901A3ED8
:10793900E0FFD39400400B7BFF7A8079E88F4912EE
:1079490056E97D02E4FF12BADA7BFF7A8079F8758D
:107959004902901A3CE0FFC4540FF54A1256E9D285
:1079690018901A3D7401F0901A3EE0FF75420175B6
:10797900431A75443F754503E4FB7D0112965D90FA
:107989001A3FE020E303027A137A007B647D017FCA
:107999000112AAD820174E12BB5EE4FDFF12BADA13
:1079A9007BFF7A8179111256E97D01E4FF12BADA77
:1079B9007BFF7A8179261256E97D02E4FF12BADA51
:1079C900901A3EE0FFD39400400B7BFF7A81793B0C
:1079D9008F491256E97D037F0F12BADA7BFF7A814C
:1079E900794E1256E9D2177F0312B192EF601590C2
:1079F9001A3EE0FF12B9C9C2177F0312B192EF70A4
:107A0900F812BB5E901A3D7401F012BB01E47B646D
:107A1900FAF9F8C31208D14003027B28901A3EE014
:107A2900FF75420175431A7544427545027B037D12
:107A39000212965D901A42E0C4F854F0C868FCA39B
:107A4900E0C4540F48FDE41203C2E4FBFA79C87894
:107A59004012019EE4FBFA798078451202A7E4FB03
:107A6900FA7990784012034460025003027B142093
:107A7900104912BB5E7A007B647D017F0112AAD88E
:107A8900E4FDFF12BADA7BFF7A8179541256E97D57
:107A990001E4FF12BADA7BFF7A8179691256E97D2E
:107AA90002E4FF12BADA901A3EE0FFD39400400BC9
:107AB9007BFF7A81797B8F491256E97D03E4FF12B6
:107AC900BADA901A42E0C4F854F0C868FCA3E0C4DA
:107AD900540F48FDE41203C2E4FBFA79C878401256
:107AE900019EE4FBFA798078451202A78F4C8E4BF0
:107AF9008D4A8C497BFF7A81798F1256E9D2109091
:107B090011477401F0901A3DF08014301011901A49
:107B19003EE0FF901147E06F7005C21012BB5E9006
:107B29001A3EE004F00278EA201706201003301804
:0C7B390006901A3D7401F0901A3DE0FF28
:017B4500221D
:1041020075840F75A4F575A5FF75A6FF75A70FE455
:10411200F584F5BA75BC9875E880F5D1F58475D14A
:1041220003F58475D48075840175D48012BB84E450
:10413200901A2EF0901A2CF0901A2BF075440F75ED
:104142004541901A28F0901A28E0FFC39402500EBD
:1041520012BA20EF6008901A28E004F080E8901A62
:1041620028E09000A8F0C214751D01751E00751F8D
:10417200C1E4901A26F0901A26E0FFC3941040037F
:104182000246D474B12FF582E43400F583E4F0746E
:10419200982FF582E43400F583E4F074882FF582D9
:1041A200E43400F58374FFF0EF131313541FFF90F0
:1041B2001A26E05407FD7B017A1A792712951C9082
:1041C2001A27E0D3940050030246CBE4A3F0901ADE
:1041D20028E075F00BA42451F582E5F0343FF58315
:1041E200E493FF6011901A27E0FEEF6E6008901AC8
:1041F20028E004F080D8901A27E06F60030245336C
:10420200901A26E02498F582E43400F583E4F090D5
:104212001A2AF0901A28E0FF75F00BA42458F582B0
:10422200E5F0343FF583E493FE901A2AE0FDC39E45
:10423200400302450475F00BEFA42455F582E5F026
:10424200343FF583E493FB740193FA740293F9ED1E
:1042520075F01DA4FFE92FF9EA35F0FA90000D126E
:104262000A6DCFE9CF901A2DEFF070030243EDE40F
:10427200901A29F0901A2DE0FF901A29E0C39F406E
:10428200030244FB901A28E075F00BA42455F58232
:10429200E5F0343FF583E493FB740193FA740293DF
:1042A200F9901A2AE075F01DA4FFE92FF9EA35F01A
:1042B200FAEAC0E0E9C0E0A3E075F01DA4251FF909
:1042C200E51E35F0C8E9C8FCAD1DD0E0F9D0E0FA32
:1042D2007E007F1D1206EE901A2BE075F01DA4AB36
:1042E2001D251FF9E51E35F0FAE92405F9E43AFA2D
:1042F2007D2512BA04EA494B603C901A26E0FFD3AE
:1043020094094005EF24378006901A26E02430FFF6
:10431200EFC0E0901A2BE075F01DA4AB1D251FF92C
:10432200E51E35F0FAE92405F9E43AFA7D2512BAD8
:1043320004D0E012075A901A2BE075F01DA4AB1DB1
:10434200251FF9E51E35F0FAE92405F9E43AFA7D6C
:104352002312BA04EA494B602D901A29E02430FF57
:10436200EFC0E0901A2BE075F01DA4AB1D251FF9DC
:10437200E51E35F0FAE92405F9E43AFA7D2312BA8A
:1043820004D0E012075AAA44A9457B01EBC0E0EA37
:10439200C0E0E9C0E0901A2BE075F01DA4AB1D252A
:1043A2001FF9E51E35F0FA90000D120A9DAB1DAA09
:1043B2001EA91F901A2BE075F01DA4F58285F083CB
:1043C20012072D2545F545E43544F544901A2BE0B6
:1043D20004F0901A26E02498F582E43400F583E094
:1043E20004F0901A29E004F0024276901A28E0754F
:1043F200F00BA42455F582E5F0343FF583E493FBFA
:10440200740193FA740293F9901A2AE075F01DA4CC
:10441200FFE92FF9EA35F0FAEAC0E0E9C0E0A3E0EB
:1044220075F01DA4251FF9E51E35F0C8E9C8FCADDD
:104432001DD0E0F9D0E0FA7E007F1D1206EE901A40
:104442002BE075F01DA4AB1D251FF9E51E35F0FA12
:10445200E92405F9E43AFA7D2512BA04EA494B60E7
:104462003C901A26E0FFD394094005EF24378006DA
:10447200901A26E02430FFEFC0E0901A2BE075F08E
:104482001DA4AB1D251FF9E51E35F0FAE92405F937
:10449200E43AFA7D2512BA04D0E012075AAA44A9D6
:1044A200457B01EBC0E0EAC0E0E9C0E0901A2BE0F6
:1044B20075F01DA4AB1D251FF9E51E35F0FA90001D
:1044C2000D120A9DAB1DAA1EA91F901A2BE075F0B2
:1044D2001DA4F58285F08312072D2545F545E435A7
:1044E20044F544901A2BE004F0901A26E02498F543
:1044F20082E43400F583E004F0901A2AE004F0022A
:104502004215901A27E0FF901A26E0FE24B1F582A8
:10451200E43400F583EFF0901A28E0FF74882EF55A
:1045220082E43400F583EFF0901A2CE004F00246A6
:10453200CBE4901A28F09000A8E0FE901A28E0FF41
:10454200C39E500DE4FD12B91A901A28E004F080BF
:10455200E512BB5EE4FDFF12BADA7BFF7A81799F36
:10456200901A26E0F5491256E97D01E4FF12BADA03
:104572007BFF7A8179B61256E9E4901A28F07D021F
:10458200E4FF12BADA901A28E0FF75F00BA4245166
:10459200F582E5F0343FF583E493F54975F00BEFCE
:1045A200A42452F582E5F0343FF583E493FB7401D1
:1045B20093FA7402938B4A8A4BF54C7BFF7A81798A
:1045C200C41256E97D03E4FF12BADA901A28E070A9
:1045D200087BFF7A8179DA8022901A28E075F00B45
:1045E200A4245CF582E5F0343FF583E4937BFF700D
:1045F200067A8179EF80047A8279041256E97F0083
:1046020012B899E4FF12B19212B18BEF24FF920B10
:104612007F0212B192EF24FF920C7F0312B192EF4C
:1046220024FF920D200A09200B06200C03300DCE28
:10463200300A44901A28E075F00BA42451F582E563
:10464200F0343FF583E493FB901A26E0FE13131334
:10465200541FFFEE5407FD1282FA901A26E014F05E
:10466200300A0CE4FF12B192EF24FF920A80F1901B
:104672001A2E7401F08052300C1B901A28E0D39449
:10468200004003E014F0300C0C7F0212B192EF24D0
:10469200FF920C80F1200D03024580901A28E075EC
:1046A200F00BA4245CF582E5F0343FF583E49360DB
:1046B20006901A28E004F0200D030245807F0312C1
:1046C200B192EF24FF920D80EE901A26E004F002E0
:1046D2004178AB1DAA1EA91F901A2BE075F01DA4EC
:1046E200F58285F083E412076C901A2EE06006E4EE
:0546F200F58475EF10D6
:0146F70022A0
:10B83D001570A870EFF6A870E6FF131313541F24AC
:10B84D0008F582E43400F583E0FEEF5407FF740140
:0FB85D00C8EFC8088002C333D8FC4EF005702234
:05BB8B008F397F00224C
:10BAC600120714901148F0AB3CAA3DA93E7401122E
:04BAD600075AFF22EA
:105AF60030190C12BB5EE4900004F0A374FFF02092
:105B060009037F0022300F03025B9DE4FDFF12BAFA
:105B1600DAE4901A3CF07B007A00799312BAB1EE7F
:105B2600C313FEEF13FFC374079FFFE49EFE901A94
:105B36003CE0C39FE49E50117BFF7A80799412B8B3
:105B4600F0901A3CE004F080CD7BFF7A80799612C3
:105B5600B8F07B007A00799312B8F07BFF7A8079EF
:105B66009A12B8F07D01E4FF12BADA7BFF7A8079E7
:105B76009F788DE6F54908E6F54A1256E97D027FDB
:105B86000112BADA12B4E97D03E4FF12BADA7BFF36
:105B96007A82791912B8F0200F03025EBB900005D5
:105BA600E0FF900004E06F7003025CF9C208E49025
:105BB6001A3DF0901A3CF0901A3FF0901A3CE0FF24
:105BC600C394104003025C9F74B12FF582E4340045
:105BD600F583E07003025C96901A3DE004F09000B5
:105BE60004E0FF901A3DE0D39F5003025C96901AA2
:105BF6003FE0FDE4FF12BADAE4901A3EF0901A3E56
:105C0600E075F00BA42451F582E5F0343FF583E40A
:105C160093FF601B901A3CE024B1F582E43400F552
:105C260083E0FEEF6E6008901A3EE004F080CE90AE
:105C36001A3EE0FF75F00BA42451F582E5F0343FDF
:105C4600F583E493FE603A901A3FE0B40304D20869
:105C56008047901A3CE0F5498E4A75F00BEFA42474
:105C660052F582E5F0343FF583E493FB740193FA31
:105C76007402938B4B8A4CF54D7BFF7A82792E808A
:105C8600067BFF7A8279461256E9901A3FE004F0C5
:105C9600901A3CE004F0025BC17D03E4FF12BADA1D
:105CA6007BFF7A82795B12B8F07D037F1012BADA35
:105CB6007BFF30080C7A8279657549131256E980A4
:105CC600077A82796B12B8F07D037F0A12BADA90EE
:105CD6000004E0D394007BFF400C7A827965754915
:105CE600121256E980077A82796B12B8F090000496
:105CF600E0A3F030080C300D09201506900004E0F2
:105D060004F0900004E0D394004009300C06201300
:105D160003E014F0300A0C201109C20FA20A9211F6
:105D260012BB5E300B03025EBB201203025EBBE4B5
:105D3600900006F0901A3CF0900006E0FE13131354
:105D4600541FFFEE5407FD12BA3BEF6006901A3C53
:105D5600E004F0900006E004F0E0C3941040D9E4BB
:105D6600900006F0900006E0FE131313541FFFEE9A
:105D76005407FD12BA3BEF700C900006E004F0E009
:105D8600C3941040DF901A3CE07002FF2212BB5E03
:105D96007D03E4FF12BADA901A3CE07BFF70067AC4
:105DA60082797080047A8279851256E9E4FDFF12C1
:105DB600BADA7BFF7A82799A1256E97D01E4FF12FC
:105DC600BADA7BFF7A8279AF900006E0F54912567F
:105DD600E97F0012B899E4FF12B19212B18BEF2459
:105DE600FF920B7F0212B192EF24FF920C7F0312F7
:105DF600B192EF24FF920D200A09200B06200C0316
:105E0600300DCE300A1F300A0CE4FF12B192EF2497
:105E1600FF920A80F112BB5E90000574FFF0C21279
:105E2600C2117F0022300B23900006E0FD7BFFE4C9
:105E3600FF1282FA300B0C7F0112B192EF24FF920F
:105E46000B80F1E4F58475EF10806A300C2E801219
:105E5600900006E0131313541FFF7D1012BA3BEF98
:105E6600700B900006E0240F540FF080E3300C0C0A
:105E76007F0212B192EF24FF920C80F1200D0302F3
:105E86005DB28015900006E0FE131313541FFFEE5B
:105E96005407FD12BA3BEF700A900006E004540F57
:105EA600F080E1200D03025DB27F0312B192EF2470
:105EB600FF920D80EE200F0D200B0A301207A20B69
:105EC60092127F0122200F0D200C0A301307A20C1C
:105ED60092137F0222300A0F20110CD20F12BB5EE2
:105EE600900004E004A3F0A20A9211A20B9212A25F
:095EF6000C9213A20D92157F001D
:015EFF002280
:105F00002009030261FEE4901A26F0901A26E0FFB1
:105F1000131313541F2408F582E43400F583E0FDC5
:105F20007C00EF5407FF74017E00C8EFC8088005AD
:105F3000C333CE33CED8F9FFEE5CFEEF5D4E700377
:105F400002608CE4901A27F0901A2AF0901A2AE046
:105F5000FFC39410400302605C74982FF582E43410
:105F600000F583E0FF901A27E0FD2FFFE433FE9059
:105F70001A26E0FCFBD3EF9B7480F86E9850030266
:105F8000603EEC9DA3F0901A2AE02488F582E43468
:105F900000F583E0901A28F0F4700302605CE0756D
:105FA000F00BA42459F582E5F0343FF583E493FB2C
:105FB000740193FA740293F9EA494B700302605C2E
:105FC000901A26E075F01DA4AB1D251FF9E51E35BE
:105FD000F0FA90000D120A6D157015701570A8700A
:105FE000C6EBC608C6EAC608C6E9C6901A27E01579
:105FF00070A870F6901A2AE0FF54071570A870F682
:10600000EF131313541FFB7D02901A28E0FE75F066
:106010000BA42451F582E5F0343FF583E493FF753A
:10602000F00BEEA42459F582E5F0343FF5837401BA
:1060300093FA740293F5828A83120B20801E901AC1
:106040002AE02498F582E43400F583E0FF901A27D3
:10605000E02FF0901A2AE004F0025F4C901A26E03C
:10606000FF131313541F2408F582E43400F583C092
:1060700083C082E0FEEF5407FF7401C8EFC80880B8
:1060800002C333D8FCF45ED082D083F0901A26E0AD
:1060900004F0E0C394805003025F0B901141E024B0
:1060A00088F582E43400F583E0FFF470030261BBFD
:1060B000901A27EFF0E4A3F0901141E02498F582C4
:1060C000E43400F583E0FF901A28E0FEC39F40030C
:1060D0000261BB901A27E075F00BA42459F582E504
:1060E000F0343FF583E493FB740193FA740293F95F
:1060F000EA494B6065157015701570A87076010837
:10610000761A08762B1570A870EEF6901141E0FF14
:1061100054071570A870F6EF131313541FFB7D037B
:10612000901A27E0FE75F00BA42451F582E5F034B7
:106130003FF583E493FF75F00BEEA42459F582E557
:10614000F0343FF583740193FA740293F5828A83E5
:10615000120B20901A29EFF08005E4901A29F09094
:106160001A29E0FFD394004049C2AF7E00EEC0E0A0
:10617000EFC0E0901A28E0FF901146E02FFFE433D3
:10618000FE7C007D1D12078EAB1DE51F2FF9E51E5D
:106190003EFA90000D120A6DC8E9C8CCEACCCDEBEE
:1061A000CD7B017A1A792BD0E0FFD0E0FE1206EE0B
:1061B000D2AF901A28E004F00260B8901141E024B8
:1061C00098F582E43400F583E0FF901146E02FF06B
:1061D000901141E004F0E0B41006E4F0901146F0B4
:1061E000901148E0F46017E0FE131313541FFFEE04
:1061F0005407FD7BFF1282FA90114874FFF012BB26
:1062000001C8ECC8C9EDC9CAEECACBEFCB901142A8
:10621000E0FCA3E0FDA3E0FEA3E0240AFFE43EFED1
:10622000E43DFDE43CFCD31208D1501712BB0190B1
:106230001142E0F8A3E0F9A3E0FAA3E0FBD31208CF
:10624000D1406F12BB019011421209DCE4FF12B180
:106250009212B18BEF24FF920B7F0212B192EF24C6
:10626000FF920C7F0312B192EF24FF920D300905CB
:10627000120BF4803D12BB01E47B2C7A01F9F8C3C8
:106280001208D1502D300E05C20E12BB5E7D017F6B
:106290000512BADA7BFF7A8279C41256E97D027F51
:1062A0000512BADA12BA548F497BFF7A8279CF127B
:1062B00056E930143112BB01E47B0AFAF9F8C31233
:1062C00008D15022C214E4901A27F09000A8E0FEF2
:1062D000901A27E0FFC39E500DE4FD12B91A901AE0
:0662E00027E004F080E558
:0162E6002295
:103A5B004C45442D4465627567004C45442D5075AB
:103A6B006C7365720044696E203556004F70744953
:103A7B006E0043504C4400446F75742035562F3202
:103A8B0034560052656C616973004F70744F7574D6
:103A9B000055696E20302D322E35560055696E203B
:103AAB002B2D3130560049696E20302D322E356D5D
:103ABB00410049696E20302D32356D410055696EDC
:103ACB0020302D322E3556204673740055696E20EA
:103ADB002B2D31305620466173740049696E2030AE
:103AEB002D322E356D41204673740049696E20309E
:103AFB002D32356D41204673740055696E202B2D88
:103B0B0031305620446966660055696E202B2D3185
:103B1B00305620466C740043696E20302D31306E68
:103B2B00460043696E20302D3175460050543130BC
:103B3B00302D38005054313030302D380041443561
:103B4B0039300050543130302D3200505431303038
:103B5B00302D32004345524E4F582D3200554F7584
:103B6B007420302D322E355600554F7574202B2D69
:103B7B0031305600494F757420302D322E356D4142
:103B8B0000494F757420302D32356D41004C6971F1
:103B9B002E4865206C6576656C00554F7574203228
:103BAB0030305600554F7574203330305600554F1A
:103BBB007574203130562F3235306D4100245265EB
:103BCB00762400013400000050254F75740000006E
:103BDB000100010000000000437F00003F80000057
:103BEB000418000001502555696E230000010008E0
:103BFB00040000000000000000000000000418009A
:103C0B000001502555696E230000010004040000DB
:103C1B00000000000000000000000418000001502C
:103C2B002555696E2300000100020400000000000E
:103C3B000000000000000004180000015025556929
:103C4B006E230000010008040000000000000000CB
:103C5B00000000000134000008502552616E6765BA
:103C6B000001000000000000000000000000000048
:103C7B000004180000015025556F757423000100D6
:103C8B00080200000000402000003DCCCCCD041801
:103C9B000000015025556F7574230001000802C107
:103CAB00200000412000003F0000000406FD000141
:103CBB00502549696E230000010008040000000034
:103CCB000000000000000000041DF7000150254318
:103CDB00696E2300000100040400000000000000D6
:103CEB0000000000000408000001502554230000D0
:103CFB0000000100080200000000000000000000AE
:103D0B0000000406FD000950254578636974000125
:103D1B000000010000000000000000000000000493
:103D2B000800000150255423000000000100080288
:103D3B00000000000000000000000000040800006C
:103D4B000150255423000000000100020200000076
:103D5B0000000000000000000004070000015025D7
:103D6B0054230000000001000202000000000000CC
:103D7B000000000000000406FD00015025496F758E
:103D8B00742300010008020000000041A000003D68
:103D9B00CCCCCD04180000015025556F7574230051
:103DAB0001000102C1200000412000003DCCCCCD20
:103DBB000406FD0009502545786369740001000075
:103DCB00010000000042C800003F800000045A00C0
:103DDB00000950254C4F66730000010000020000E3
:103DEB0000000000000000000000045D000009500E
:103DFB00254C4761696E00010000020000000000C5
:103E0B000000000000000002030000085025546F62
:103E1B0066660000010000000000000000000000CA
:103E2B000000000002030000085025546F6E0000D4
:103E3B000001000000000000000000000000000076
:103E4B0000045A00000150254C696E00000001006F
:103E5B000001000000000000000000000000013223
:103E6B00000000502544696E23000001000801008A
:103E7B000000000000000000000000013200000004
:103E8B00502544696E23000001000401000000006E
:103E9B00000000000000000001320000005025442B
:103EAB006F7574230001000801000000003F8000C3
:103EBB00003F8000000132000000502552656C234A
:103ECB00000001000401000000003F8000003F8063
:103EDB000000013200000050254F757423000001D3
:103EEB00000401000000003F8000003F8000000440
:103EFB001800000150255544230000000100080361
:103F0B0000000000434800003F8000000418000040
:103F1B00015025552300000000010008030000009C
:103F2B000000000000000000000406FA000150250C
:103F3B0049230000000001000803000000000000FE
:103F4B0000000000000001FF3A5BFF3BCE01FFB118
:103F5B00E902FF3A650000000100000020FF3A7003
:103F6B00FF3E6901FF9AFC21FF3A77FF3E8601FF76
:103F7B009AFC22FF3A7DFF3E6901FF9AFC40FF3A13
:103F8B0082FF3EA301FF8E4241FF3A8EFF3EC001EE
:103F9B00FF8E4242FF3A95FF3EDD01FF8E4260FFEE
:103FAB003A9CFF3BEB01FF62E761FF3AA7FF3BEB5C
:103FBB0001FF62E762FF3AB1FF3CB601FF62E763C4
:103FCB00FF3ABDFF3CB601FF62E764FF3AC8FF3B17
:103FDB00EB01FF669265FF3AD7FF3BEB01FF669261
:103FEB0066FF3AE6FF3CB601FF669267FF3AF6FFC3
:103FFB003CB601FF669268FF3B05FF3C0801FF6280
:10400B00E769FF3B14FF3C2501FF7DF270FF3B226C
:10401B00FF3CD301FF7B4671FF3B2DFF3CD301FFE0
:10402B007B4672FF3B37FF3CF002FF51CA73FF3BED
:10403B003FFF3CF002FF51CA74FF3B48FF3D2A0192
:10404B00FF6D1E75FF3B4EFF3D4701FF46F876FFA8
:10405B003B56FF3D4701FF46F877FF3B5FFF3D6453
:10406B0001FF46F880FF3B68FF3C7C01FF878081A6
:10407B00FF3B74FF3C9901FF4C6982FF3B7FFF3D87
:10408B008101FF878083FF3B8CFF3D8101FF878090
:10409B0084FF3B98FF3DBB06FF16BF85FF3BA5FF8B
:1040AB003EFA03FF296586FF3BAFFF3EFA03FF296C
:1040BB006587FF3BB9FF3D9E01FF87800000000035
:1040CB00000000000000003CA3D70A3D23D70A3DA7
:1040DB00A3D70A3E23D70A3EA3D70A3F23D70A3FCB
:1040EB00A3D70A4023D70A050403020100060706DB
:0740FB0002070300040501A8
:06B6930004150000000098
:108CC500E5702412F8E6FFE5702413F8E6FD755308
:038CD500017B061A
:108CD800D2B1C2B0C2B2E4901A46F0901A46E0FE91
:108CE800C39404504CEFC8EEC8088002C333D8FCC4
:108CF8005408D394004003D38001C392B30000000A
:108D0800000000000000000000000000000000005B
:108D180000D2B000000000000000000000000000C9
:108D280000000000000000C2B0901A46E004F08085
:108D3800AAE4901A46F0901A46E0FFC39403504CF8
:108D4800EDC8EFC8088002C333D8FC5404D394009C
:108D58004003D38001C392B300000000000000006C
:108D6800000000000000000000000000D2B0000079
:108D780000000000000000000000000000000000EB
:108D88000000C2B0901A46E004F080AAE4901A46A7
:108D9800F0901A46E0FFC39404504CEBC8EFC808A3
:108DA8008002C333D8FC5408D394004003D3800115
:108DB800C392B300000000000000000000000000A3
:108DC80000000000000000D2B00000000000000019
:108DD80000000000000000000000000000C2B09089
:108DE8001A46E004F080AAD2B20000000000000099
:108DF80000000000000000000000000000D2B000E9
:108E0800000000000000000000000000000000005A
:108E1800000000C2B0C2B2C2B3E55324FF92B0D280
:108E2800B2C2B10000000000000000000000000015
:098E380000000000000000C2B2BD
:018E4100220E
:10BA8500E5702409F8E6FFE570240AF8E6FD7B0673
:06BA9500E4F553028CD819
:05ABF900F8E6FD7BFF02
:03ABFE00CCEBCCD1
:10AC01007B0312BA95E4901A40F0EC5480D394007F
:10AC11004003D38001C392B3000000000000000094
:10AC2100000000000000000000000000D2B00000A1
:10AC31000000000000000000000000000000000013
:10AC41000000C2B0EC25E0FC901A40E004F0E0B452
:10AC510008B8C2B3D2B2000000000000000000003A
:10AC610000000000000000000000D2B00000000061
:10AC710000000000000000000000000000000000D3
:04AC8100C2B0C2B2E9
:01AC850022AC
:10A5FE00E5702405F8EFF6E5702412F8E6FFE57035
:0CA60E002413F8E6FDE5702405F8E6FBD7
:03A61A00CCEBCCBA
:10A61D007B0212BA95E4901A40F0EC5480D394006A
:10A62D004003D38001C392B300000000000000007E
:10A63D00000000000000000000000000D2B000008B
:10A64D0000000000000000000000000000000000FD
:10A65D000000C2B0EC25E0FC901A40E004F0E0B43C
:10A66D0008B8C2B3D2B20000000000000000000024
:10A67D0000000000000000000000D2B0000000004B
:10A68D0000000000000000000000000000000000BD
:04A69D00C2B0C2B2D3
:01A6A1002296
:0CA74500F8E6FD7B00E5702408F97A00BE
:06A751008B468A4789488F
:10A75700E4FB12BA95D2B20000000000000000002E
:10A767000000000000000000000000D2B000000060
:10A7770000000000000000000000000000000000D2
:10A7870000C2B0C2B2E4901A40F00000000000001E
:10A797000000000000000000000000000000D2B030
:10A7A70000000000000000000000000000000000A2
:10A7B70000000000C2B0901A41E025E0FFA2B4E417
:10A7C700334FF0901A40E004F0E0B408BD901A410E
:0AA7D700E0AB46AA47A94802075A62
:06AB69008B468A47894873
:10AB6F007B0112BA95D2B200000000000000000075
:10AB7F000000000000000000000000D2B000000044
:10AB8F0000000000000000000000000000000000B6
:10AB9F0000C2B0C2B2E4901A40F000000000000002
:10ABAF000000000000000000000000000000D2B014
:10ABBF000000000000000000000000000000000086
:10ABCF0000000000C2B0901A41E025E0FFA2B4E4FB
:10ABDF00334FF0901A40E004F0E0B408BD901A41F2
:0AABEF00E0AB46AA47A94802075A46
:03AD9E00CCEDCC2D
:10ADA1007B05E4FD12BA95E4901A30F0EC5480D39F
:10ADB10094004003D38001C392B30000000000005F
:10ADC1000000000000000000000000000000D2B000
:10ADD1000000000000000000000000000000000072
:10ADE10000000000C2B0EC25E0FC901A30E004F055
:10ADF100E0B408B8C2B3D2B2000000000000000005
:10AE0100000000000000000000000000D2B00000BF
:10AE11000000000000000000000000000000000031
:06AE21000000C2B0C2B245
:01AE27002208
:06A9B4008B488A49894A24
:10A9BA007B04E4FD12BA95D2B20000000000000048
:10A9CA0000000000000000000000000000D2B000FB
:10A9DA00000000000000000000000000000000006D
:10A9EA00000000C2B0C2B2E4901A44F000000000B5
:10A9FA00000000000000000000000000000000004D
:10AA0A00D2B00000000000000000000000000000BA
:10AA1A00000000000000C2B0901A45E025E0FFA245
:10AA2A00B4E4334FF0901A44E004F0E0B408BD9067
:0CAA3A001A45E0AB48AA49A94A02075A95
:10BA3B007B017A1A794012951C901A40E0D394003E
:08BA4B0040047F0180027F002E
:01BA530022D0
:06951C008B468A478948D6
:109522007B0712BA95D2B3000000000000000000D1
:109532000000000000000000000000D2B0000000A7
:109542000000000000000000000000000000000019
:1095520000C2B0D2B3000000000000000000000012
:10956200000000000000000000D2B0000000000077
:10957200000000000000000000000000000000C227
:10958200B0C2B300000000000000000000000000B4
:1095920000000000000000D2B00000000000000047
:1095A20000000000000000000000000000C2B0E463
:1095B200901A41F0C2B30000000000000000000059
:1095C20000000000000000000000D2B00000000017
:1095D2000000000000000000000000000000000089
:1095E200C2B0901A41E004F0E0B406C830B409AB4E
:1095F20046AA47A948E4805FE4901A41F0000000BF
:109602000000000000000000000000000000000058
:1096120000D2B000000000000000000000000000C6
:1096220000000000000000C2B0901A43E025E0FFF5
:10963200901A42E033FEA2B4E433FDEF4DFFEEF0A8
:10964200A3EFF0901A41E004F0E0B410B0901A4297
:0A965200E0AB46AA47A94812075AE8
:01965C0022EB
:10B73400901A51EFF0A3EDF0A3EBF012BA3BEF70C7
:10B7440002FF22901A51E0FFA3E0FD7B017A1A79EF
:10B754005012951C901A53E0FF901A50E06F700439
:06B764007F0180027F005E
:01B76A0022BC
:0382FA00CCEBCCFE
:1082FD007B0712BA95D2B300000000000000000009
:10830D000000000000000000000000D2B0000000DE
:10831D000000000000000000000000000000000050
:10832D0000C2B0C2B3000000000000000000000059
:10833D00000000000000000000D2B00000000000AE
:10834D00000000000000000000000000000000C25E
:10835D00B0C2B300000000000000000000000000EB
:10836D0000000000000000D2B0000000000000007E
:10837D0000000000000000000000000000C2B0E49A
:10838D00901A40F0D2B30000000000000000000081
:10839D0000000000000000000000D2B0000000004E
:1083AD0000000000000000000000000000000000C0
:1083BD00C2B0901A40E004F0E0B406C8D2B200009A
:1083CD0000000000000000000000000000000000A0
:1083DD000000C2B2D2B30000000000000000000097
:1083ED0000000000000000000000D2B000000000FE
:1083FD000000000000000000000000000000000070
:10840D00C2B0C2B300000000000000000000000078
:10841D000000000000000000D2B0000000000000CD
:10842D000000000000000000000000000000C2B0CD
:10843D00D2B30000000000000000000000000000AA
:10844D00000000000000D2B000000000000000009D
:10845D00000000000000000000000000C2B0E49029
:10846D001A40F0C2B3000000000000000000000040
:10847D00000000000000000000D2B000000000006D
:10848D00000000000000000000000000000000C21D
:10849D00B0901A40E004F0E0B406C8E4901A40F041
:1084AD00EC5480D394004003D38001C392B30000F9
:1084BD0000000000000000000000000000000000AF
:1084CD000000D2B00000000000000000000000001D
:1084DD000000000000000000C2B0EC25E0FC901A86
:1084ED0040E004F0E0B410B8D2B20000000000008B
:1084FD000000000000000000000000000000C2B2FB
:0A850D00E4901A41F0A3F020B42717
:0D85170075460175470300D547FCD546F6B3
:10852400901A42E004F07006901A41E004F0901AA8
:0A85340041E0B427DBA3E0B410D649
:01853E00221A
:108E42001570A870EBF61570A870EDF61570A87085
:048E5200EFF61570B2
:108E5600A8700808E664016003028EE4E570240445
:108E6600F8E6FEE5702403F8E6FF75F008A42EF593
:108E760082E435F0F583E5822449F582E5833411F1
:108E8600F583E4F0F584E5EF20E119E5702404F8B4
:108E9600E6FDEF75F008A42D2449F9E43411FA7BB8
:108EA6000112AB69E5702403F8E6FFE5702404F8C7
:108EB600E6FD75F008EFA42DF582E435F0F583E5BF
:108EC600822449F582E5833411F583E0FB12A61A64
:108ED600E5702403F8E6FFE570240412ABF9A870E8
:108EE6000808E664026003028FADE5702406F8CB3D
:108EF600E6CB08E6FA08E6F9120714A870F6603E13
:108F0600E5702404F8E6FFE5702403F8E675F0083A
:108F1600A42FF582E435F0F583E5822449F582E550
:108F2600833411F583E0FFE5702405F8E6FE74014D
:108F3600C8EEC8088002C333D8FC4FF0803DE57008
:108F46002404F8E6FFE5702403F8E675F008A42F7C
:108F5600F582E435F0F583E5822449F582E583342C
:108F660011F583E0FFE5702405F8E6FE7401C8EE0E
:108F7600C8088002C333D8FCF45FF0E5702403F818
:108F8600E6FFE5702404F8E6FD75F008EFA42DF57C
:108F960082E435F0F583E5822449F582E5833411D0
:098FA600F583E0FB12A61A7F001E
:078FAF00E5702409F57022B2
:109AFC001570A870EBF61570A870EDF61570A870BF
:049B0C00EFF61570EB
:109B1000A8700808E664036003029C03E57024064D
:109B2000F8CBE6CB08E6FA08E6F9120714603EE542
:109B3000702404F8E6FFE5702403F8E675F008A445
:109B40002FF582E435F0F583E5822449F582E5833B
:109B50003411F583E0FFE5702405F8E6FE7401C8D2
:109B6000EEC8088002C333D8FC4FF0803DE5702476
:109B700004F8E6FFE5702403F8E675F008A42FF575
:109B800082E435F0F583E5822449F582E5833411DA
:109B9000F583E0FFE5702405F8E6FE7401C8EEC821
:109BA000088002C333D8FCF45FF0E5702403F8E6C4
:109BB000FFE5702404F8E6FD7B00A9707A0012A787
:109BC00051E5702405F974017E00C8E7C8088005D6
:109BD000C333CE33CED8F9FFA870E6FDEF5DD39442
:109BE000007480948040047F0180027F00E570242F
:109BF00006F8CBE6CB08E6FA08E6F9EF12075A7F3B
:059C00000180027F005D
:079C0500E5702409F570224F
:10B1E9001570A870EBF61570A870EDF61570A870BB
:10B1F900EFF6A87008E6B4010DA8700808E6FFE5A7
:10B2090070240312ABF9A87008E6B40222A87008EA
:10B2190008E6FFE5702403F8E6FDE5702405F8CBA0
:10B22900E6CB08E6FA08E6F9120714FB12A61A7F1C
:08B2390000E5702408F5702205
:108780001570A870EBF61570A870EDF61570A8704E
:08879000EFF6E57024F9F57025
:108798002408F8E664026003028987E570240CF86F
:1087A800CBE6CB08E6FA08E6F91208F5A870120934
:1087B800D0E5702407F8E6B40209E4FBFA79C87832
:1087C800428022E5702407F8E6B48209E4FBFA79CE
:1087D8002078408010E5702407F8E6B4832FE4FB86
:1087E800FA79C87841E8C0E0A87012095FD0E0F8CB
:1087F8001202A77B007AFF797F784712019E120345
:10880800FBE5702404F8EEF608EFF68046E57024E0
:1088180007F8E6B4873DE4FBFA79A07841E8C0E0C0
:10882800A87012095FD0E0F81202A7E4FBFAF97801
:108838003F1200AD7B007AFF797F784712019E12C4
:1088480003FBE5702404F8EEF608EFF6E570240B58
:10885800F8760112BA85E5702406F8E4F6E5702486
:1088680006F8E6FFC39404503FEF94014003D38019
:1088780001C392B3000000000000000000000000E7
:108888000000000000000000D2B00000000000005E
:108898000000000000000000000000000000C2B05E
:1088A800E5702406F80680B5E5702406F8E4F6E5D8
:1088B800702406F8E6C394045051E570240BF8E6DA
:1088C800FF5408D394004003D38001C392B300003F
:1088D8000000000000000000000000000000000090
:1088E8000000D2B0000000000000000000000000FE
:1088F8000000000000000000C2B0E570240BF8EF93
:1089080025E0F6E5702406F80680A4E5702406F84C
:10891800E4F6E5702406F8E6C394105060E5702488
:1089280004F8E6FE08E6FFEE5480FCD3E49400EC7D
:1089380094004003D38001C392B3000000000000FC
:108948000000000000000000000000000000D2B09D
:10895800000000000000000000000000000000000F
:1089680000000000C2B0E5702404F8EF25E0FFEE37
:1089780033F608EFF6E5702406F8068095D2B17F45
:0189880000EE
:07898900E570240FF57022D8
:104C69001570A870EBF61570A870EDF61570A870A0
:084C7900EFF6E57024F9F57077
:104C8100E5702408F8E6640260030251C1E570246E
:104C91000CF8CBE6CB08E6FA08E6F91208F5A8709D
:104CA1001209D0E4FFFE7D207C41A8701209771221
:104CB1000344600B4009A8701209E841200000E498
:104CC100FFFE7D207CC1A8701209771203445009B0
:104CD100A8701209E8C1200000E4FFFE7D207C419C
:104CE100A8701209771200ADE4FBFA79A07841129D
:104CF10002A77B007AFF797F784712019EE4FBFAD5
:104D0100F9783F1200AD1203FBE5702404F8EEF6CA
:104D110008EFF612BA85C2B30000000000000000DF
:104D2100000000000000000000000000D2B0000000
:104D31000000000000000000000000000000000072
:104D41000000C2B0C2B3000000000000000000007B
:104D510000000000000000000000D2B000000000D0
:104D61000000000000000000000000000000000042
:104D7100C2B0E570240BF8E6FFC394045049E57016
:104D81002406F8E4F6E5702406F8E6C39416400319
:104D9100024F6B0000000000000000000000000056
:104DA10000000000000000D2B00000000000000080
:104DB10000000000000000000000000000C2B0E59B
:104DC100702406F80680BEC2B30000000000000097
:104DD10000000000000000000000000000D2B00050
:104DE10000000000000000000000000000000000C2
:104DF100000000C2B0D2B3000000000000000000BB
:104E01000000000000000000000000D2B00000001F
:104E11000000000000000000000000000000000091
:104E210000C2B0C2B300000000000000000000009A
:104E3100000000000000000000D2B00000000000EF
:104E4100000000000000000000000000000000C29F
:104E5100B0C2B3000000000000000000000000002C
:104E610000000000000000D2B000000000000000BF
:104E710000000000000000000000000000C2B0EFD0
:104E81005402D394004003D38001C392B3000000C5
:104E91000000000000000000000000000000000011
:104EA10000D2B0000000000000000000000000007F
:104EB10000000000000000C2B0E570240BF8E654C9
:104EC10001D394004003D38001C392B300000000DA
:104ED10000000000000000000000000000000000D1
:104EE100D2B000000000000000000000000000003F
:104EF100000000000000C2B0E5702406F8E4F6E509
:104F0100702406F8E6C394105060E5702404F8E6B6
:104F1100FE08E6FFEE5480FCD3E49400EC940040DC
:104F210003D38001C392B300000000000000000021
:104F31000000000000000000000000D2B0000000EE
:104F41000000000000000000000000000000000060
:104F510000C2B0E5702404F8EF25E0FFEE33F60857
:104F6100EFF6E5702406F8068095C2B30000000054
:104F71000000000000000000000000000000000030
:104F8100D2B000000000000000000000000000009E
:104F9100000000000000C2B0C2B300000000000029
:104FA1000000000000000000000000000000D2B07E
:104FB10000000000000000000000000000000000F0
:104FC10000000000C2B0E570240BF8E6FFD39403A3
:104FD1004049E5702406F8E4F6E5702406F8E6C3D6
:104FE100941640030251BF000000000000000000C1
:104FF1000000000000000000000000D2B00000002E
:10500100000000000000000000000000000000009F
:1050110000C2B0E5702406F80680BEC2B3000000ED
:10502100000000000000000000000000000000007F
:1050310000D2B000000000000000000000000000ED
:1050410000000000000000C2B0D2B3000000000068
:10505100000000000000000000000000000000D27D
:10506100B00000000000000000000000000000008F
:105071000000000000C2B0C2B30000000000000048
:1050810000000000000000000000000000D2B0009D
:10509100000000000000000000000000000000000F
:1050A100000000C2B0C2B300000000000000000018
:1050B1000000000000000000000000D2B00000006D
:1050C10000000000000000000000000000000000DF
:1050D10000C2B0EF5402D394004003D38001C392C5
:1050E100B30000000000000000000000000000000C
:1050F1000000000000D2B00000000000000000002D
:105101000000000000000000000000C2B0E57024B3
:105111000BF8E65401D394004003D38001C392B34A
:10512100000000000000000000000000000000007E
:1051310000000000D2B000000000000000000000EC
:1051410000000000000000000000C2B0E57024066D
:10515100F8E4F6E5702406F8E6C394105060E570B3
:105161002404F8E6FE08E6FFEE5480FCD3E4940044
:10517100EC94004003D38001C392B300000000000F
:10518100000000000000000000000000000000D24C
:10519100B00000000000000000000000000000005E
:1051A1000000000000C2B0E5702404F8EF25E0FF24
:1051B100EE33F608EFF6E5702406F8068095D2B1D5
:0251C1007F006D
:0751C300E570240FF57022D6
:0B911C007D527F031291277D037F012D
:109127001570A870EDF61570A870EFF6157015702C
:10913700C2B3C2B100000000000000000000000040
:109147000000000000000000A870E4F6A870E6C365
:1091570094045031C2B0C2B3000000000000000008
:10916700000000000000000000000000D2B0000076
:1091770000000000000000000000000000000000E8
:1091870000000680C7A870E4F6A870087608A870E3
:10919700E6C39404504AC2B008E6FFA87008085610
:1091A70094004003D38001C392B300000000000085
:1091B7000000000000000000000000000000D2B026
:1091C7000000000000000000000000000000000098
:1091D70000000000A87008EFC313F6A8700680AE61
:1091E700D2B20000000000000000000000000000F4
:1091F700000000000000C2B2A870E4F6A87008766C
:1092070080A870E6C39408504DC2B008E6FFE57029
:109217002403F8E65FD394004003D38001C392B3DD
:109227000000000000000000000000000000000037
:1092370000000000D2B000000000000000000000A5
:1092470000000000000000000000A87008EFC31332
:10925700F6A8700680ABD2B1C2B3000000000000D0
:0E9267000000000000000000000000000000F9
:07927500E5702404F57022EE
:0AA7E1001570A870EFF615701570E2
:10A7EB00C2B3C2B100000000000000000000000076
:10A7FB000000000000000000A870E4F6A8700876C6
:10A80B0080A870E6C39408504AC2B008E6FFA8704F
:10A81B0008085694004003D38001C392B300000094
:10A82B00000000000000000000000000000000001D
:10A83B0000D2B0000000000000000000000000008B
:10A84B0000000000000000A87008EFC313F6A8700A
:10A85B000680AED2B1C2B3000000000000000000C1
:0BA86B000000000000000000000000E2
:07A87600057005700570225A
:0B8990007B00E5702409F97A007F04E9
:10899B00157015701570A870C6EBC608C6EAC60828
:0D89AB00C6E9C61570A870EFF615701570BE
:1089B800C2B100000000000000000000000000003C
:1089C800000000000000A870E4F6A870E6FFC39459
:1089D80004503BC2B0EFB40103D38001C392B3008B
:1089E800000000000000000000000000000000007F
:1089F800000000D2B00000000000000000000000ED
:108A0800000000000000000000A8700680BCA870EC
:108A1800E4F6A870087608A870E6C39404504AC221
:108A2800B008E6FFA87008085694004003D38001F8
:108A3800C392B30000000000000000000000000026
:108A480000000000000000D2B0000000000000009C
:108A580000000000000000000000000000A87008EE
:108A6800EFC313F6A8700680AED2B2000000000073
:108A7800000000000000000000000000000000C22C
:108A8800B2A870E4F6E5702403F8CBE6CB08E6FA62
:108A980008E6F9120A3200000000A870E6C394182C
:108AA8005070C2B00000000000000000000000008C
:108AB8000000000000000000E5702403F8CBE6CBBE
:108AC80008E6FA08E6F91208F578011208E2C8EC97
:108AD800C8C9EDC9CAEECACBEFCBA2B4E4334BFF89
:108AE800EAFEE9FDE8FCE5702403F8CBE6CB08E6EE
:108AF800FA08E6F9120945D2B000000000000000AB
:108B080000000000000000000000000000A870063F
:108B18008088D2B1000000000000000000000000C2
:088B2800000000000000000045
:078B3000E5702406F5702238
:10A55000E570240BF8E6FFE570240CF8E6FD7B07B8
:10A560008F468D47CAEBCA7B8012ABFEE4FBAD473A
:10A57000AF4612A61A7B80AD47AF4612A61A755396
:0DA58000017B06AD47AF46128CD812911C2E
:0DA58D0075486475490300D549FCD548F6B2
:10A59A00EA5407FF75F008E546A42547F582E43535
:10A5AA00F0F583E5822489F582E5833413F583EF98
:10A5BA00F0CFEACFCDEFCD7F0212912775F008E5F3
:10A5CA0046A42547F582E435F0F583E58224A9F50A
:10A5DA0082E5833415F583E4F012BB01E54675F094
:10A5EA0008A4254725E025E024D9F582E43413F5AB
:04A5FA00830209DCF3
:1062E7001570A870EBF61570A870EDF61570A8700C
:0862F700EFF6E57024F7F570E5
:1062FF00240AF8E6B4010312A550E570240AF8E663
:10630F00FF64027042E570240DF8E6B40839E570B9
:10631F00240EF8CBE6CB08E6FA08E6F9120714FECE
:10632F00E570240CF8E6FDE570240BF8E675F0082F
:10633F00A42DF582E435F0F583E5822489F582E515
:10634F00833413F583EEF0EF64036003026689E58F
:10635F0070240DF8E6D3940740057F0002668BE5A5
:10636F0070240BF8E6FFE570240C12A745E57024A6
:10637F0008F8E65401D39400405F12BB01ECC0E073
:10638F00EDC0E0EEC0E0EFC0E0E570240BF8E6757D
:10639F00F008A4FFE570240CF8EF2625E025E02493
:1063AF00D9F582E43413F583E0FCA3E0FDA3E0FE0E
:1063BF00A3E0242CFBEE3401FAE43DF9E43CF8D0E1
:1063CF00E0FFD0E0FED0E0FDD0E0FCC31208D150DA
:1063DF000312A5507F0002668BE570240CF8E6FFD0
:1063EF00E570240BF8E675F008A42FF582E435F07C
:1063FF00F583E58224A9F582E5833415F583E0FF63
:10640F00E570240DF8E66F60057F0002668B12BB06
:10641F0001EFC0E0E570240BF8E6F975F008A4FF72
:10642F00E570240CF8E6FB2F25E025E024D9F58252
:10643F00E43413F583D0E0FF1209DCCFE9CFCDEBC5
:10644F00CD128CD37B00E5702404128996E570245D
:10645F0009F8E66468702CE570240CF8E6FFE57027
:10646F00240BF8E6FE75F008A42FF582E435F0F55D
:10647F0083E58224A9F582E5833415F583E004547E
:10648F0003802AE570240CF8E6FFE570240BF8E68C
:10649F00FE75F008A42FF582E435F0F583E582242C
:1064AF00A9F582E5833415F583E0045407FD75F0F3
:1064BF0008EEA42FF582E435F0F583E58224A9F5E3
:1064CF0082E5833415F583EDF0E570240CF8E6FFD3
:1064DF00E570240BF8E6FE75F008A42FF582E4357D
:1064EF00F0F583E58224A9F582E5833415F583E081
:1064FF00C454F04408FD75F008EEA42FF582E4357E
:10650F00F0F583E5822489F582E5833413F583E082
:10651F004DFD7F02129127E5702404F812095FE404
:10652F001203BDE4FBFA7980784B1202A7E57024C1
:10653F000CF8E6FBE570240BF8E675F008A42BF5D4
:10654F0082E435F0F583E5822489F582E5833413FF
:10655F00F583E025E025E024D2F582E43440F5838D
:10656F0012099012019EA8701209D0E5702409F843
:10657F00E6B460028014E5702409F8E6B461028085
:10658F0043E5702409F8E6B46211A870E8C0E01280
:10659F00095FE4FBFA7980783F8018E5702409F8E9
:1065AF00E6B46317A870E8C0E012095FE4FBFA795C
:1065BF0020784112019ED0E0F88034E5702409F86C
:1065CF00E6B4682EE4FBFA79207840E8C0E0A870C2
:1065DF0012095FD0E0F81202A7E4FBFA79A0784124
:1065EF0012019EE4FBFA792078C11200ADA8701257
:1065FF0009D0E5702409F8E6FF64616009EF646370
:10660F006004EFB4682A7F007E507DC37C47A8707A
:10661F0012097712019EE4FBFAF9783F1200AD12CE
:10662F0003FBEC1203BD7B007A5079C378478028B7
:10663F007F007E247D747C49A87012097712019E19
:10664F00E4FBFAF9783F1200AD1203FBEC1203BD25
:10665F007B007A24797478491202A7A8701209D0A6
:10666F00A87012095FE570240EF8CBE6CB08E6FAA6
:0C667F0008E6F91209457F0480027F0044
:07668B00E5702411F57022F7
:1051CA001570A870EBF61570A870EDF61570A8703A
:0851DA00EFF6E57024F3F57017
:1051E200240EF8E6B4012DE570240FF8E6FFE57011
:1051F2002410F8E6FD7B0F12A560E5702410F8E696
:1052020025E025E02499F582E43413F583120A019E
:105212003F800000E570240EF8E66402600302524B
:10522200D9E5702411F8E6640860030252D9E570EA
:105232002412F8CBE6CB08E6FA08E6F91208F5E5FF
:10524200702410F8E6FB25E025E02499F582E43489
:1052520013F5831209DCEB25E025E02499F582E4BD
:105262003413F583E0FCA3E0FDA3E0FEA3E0FF7BA3
:105272000A7AD77923783C1203446002502AE570F7
:105282002410F8E625E025E02499F582E43413F5AC
:1052920083E0FCA3E0FDA3E0FEA3E0FFE4FBFA79D8
:1052A200207841120344502FE5702410F8E625E0DF
:1052B20025E02499F582E43413F583120A013F8034
:1052C2000000E5702412F8CBE6CB08E6FA08E6F90E
:1052D200120A323F800000E570240EF8E664036093
:1052E2000302567EE5702411F8E6D3940740057F49
:1052F20000025680E570240FF8E6FFE570241012D4
:10530200A745E5702408F8E65401D39400406F12D3
:10531200BB01ECC0E0EDC0E0EEC0E0EFC0E0E57044
:10532200240FF8E675F008A4FFE5702410F8EF26C4
:1053320025E025E024D9F582E43413F583E0FCA3CB
:10534200E0FDA3E0FEA3E0242CFBEE3401FAE43DF1
:10535200F9E43CF8D0E0FFD0E0FED0E0FDD0E0FC84
:10536200C31208D15013E570240FF8E6FFE570244C
:1053720010F8E6FD7B0F12A5607F00025680E570F3
:105382002410F8E6FDE570240FF8E6FE75F008A497
:105392002DF582E435F0F583E58224A9F582E583D3
:1053A2003415F583E0FFE5702411F8E66F60057FA0
:1053B20000025680CFEECF128CD3128990E5702472
:1053C20010F8E6FFE570240FF8E6FE75F008A42F4A
:1053D200F582E435F0F583E58224A9F582E583348C
:1053E20015F583E0045407FD75F008EEA42FF5824D
:1053F200E435F0F583E58224A9F582E5833415F5D9
:1054020083EDF0E5702410F8E6FFE570240FF8E66E
:1054120075F008A42FF582E435F0F583E58224A91E
:10542200F582E5833415F583E0C454F0440FFD7F23
:1054320002129127E5702409F812095FE41203BDF4
:10544200E4FBFA7980784B1202A77B0A7AD7792398
:10545200784012019EA8701209D0A87012095FE567
:10546200702404F81209D0E5702411F8E6D39400F0
:10547200403BA870E8C0E012095FE570240FF8E62F
:1054820075F008A4FBE5702410F8EB2625E025E072
:105492002419F582E43414F583E0F8A3E0F9A3E0DB
:1054A200FAA3E0FB1200A9D0E0F81209D0E57024BB
:1054B20004F812095FE570240FF8E675F008A4FB02
:1054C200E5702410F8EB2625E025E02419F582E4A6
:1054D2003414F5831209DCA870E8C0E012095FEC0D
:1054E200C0E0EDC0E0EEC0E0EFC0E0E5702410F8EF
:1054F200E625E025E02499F582E43413F583E0FC07
:10550200A3E0FDA3E0FEA3E0FF7B6F7A127983782C
:105512003A12019EC8ECC8C9EDC9CAEECACBEFCB9C
:10552200D0E0FFD0E0FED0E0FDD0E0FC1202A7D038
:10553200E0F81209D0E570240DF8E6B47318A870EB
:10554200E8C0E012095FE4FBFA792078411202A771
:10555200D0E0F81209D07F757E787D0C7C35A8707A
:1055620012097712019EA87012097712019EA87083
:1055720012097712019EECC0E0EDC0E0EEC0E0EF50
:10558200C0E07FFA7EED7D6B7C3AA870120977123B
:10559200019EA87012097712019ED0E0FBD0E0FABA
:1055A200D0E0F9D0E0F81200ADECC0E0EDC0E0EEE2
:1055B200C0E0EFC0E07F177ED97D167C40A8701254
:1055C200097712019ED0E0FBD0E0FAD0E0F9D0E0FA
:1055D200F81200AD7BD37A4D79E278411200ADA882
:1055E200701209D0A870E8C0E012095F7B337A9389
:1055F200798878431200A9D0E0F81209D0E4FFFEBE
:105602007D207C41A87012097712019EE4FBFAF911
:10561200783F1200AD1203FBEC1203BDE4FBFA79F2
:105622002078411202A7A8701209D07F007EC07DA7
:10563200797C44A870120977120344600B4009A8D0
:10564200701209E84479F99AE4FFFE7D487CC3A808
:10565200701209771203445009A8701209E8C4793C
:10566200F99AA87012095FE5702412F8CBE6CB080C
:0E567200E6FA08E6F91209457F0480027F017E
:07568000E5702415F570220E
:1046F8001570A870EBF61570A870EDF61570A87017
:08470800EFF6E57024F6F570F0
:10471000240BF8E664017055E570240AF8E6B477D6
:1047200012E570240CF8E6FFE570240DF8E6FD7B39
:10473000888010E570240CF8E6FFE570240DF8E69B
:10474000FD7B8C12A560E570240DF8E6FFE5702472
:104750000CF8E675F008A42FF582E435F0F583E552
:104760008224A9F582E5833415F583E4F0E570240D
:104770000BF8E664036003024C60E570240EF8E673
:10478000D3940240057F00024C62E570240CF8E6E9
:10479000FFE570240DF8E6FD7B00E5702404F97A4E
:1047A0000012A751E5702404F8E65401D394005098
:1047B0000302483E12BB01ECC0E0EDC0E0EEC0E0F9
:1047C000EFC0E0E570240CF8E675F008A4FFE57092
:1047D000240DF8EF2625E025E024D9F582E43413F2
:1047E000F583E0FCA3E0FDA3E0FEA3E0242CFBEEB8
:1047F0003401FAE43DF9E43CF8D0E0FFD0E0FED02B
:10480000E0FDD0E0FCC31208D1502EE570240AF878
:10481000E6B47712E570240CF8E6FFE570240DF895
:10482000E6FD7B888010E570240CF8E6FFE5702437
:104830000DF8E6FD7B8C12A5607F00024C62E570EE
:10484000240DF8E6FDE570240CF8E6FE75F008A4EA
:104850002DF582E435F0F583E58224A9F582E58320
:104860003415F583E0FFE5702405F8EFF65401FFF9
:10487000E570240EF8EF6660057F00024C62CFEE13
:10488000CF128CD37B00E5702406128996E5702444
:104890000AF8E66477600302492FE570240DF8E614
:1048A000FFE570240CF8E6FE75F008A42FF582E40D
:1048B00035F0F583E58224A9F582E5833415F58387
:1048C000E0045401FD75F008EEA42FF582E435F004
:1048D000F583E58224A9F582E5833415F583EDF0AF
:1048E000E570240DF8E6FF75F008EEA42FF582E4DC
:1048F00035F0F583E58224A9F582E5833415F58347
:10490000E070047D8880027D987F02129127E57017
:104910002406F812095FE41203BDE4FBFA798078FB
:104920004B1202A77B0A7AD779A3783C0249BFE5EC
:1049300070240DF8E6FFE570240CF8E6FE75F0082B
:10494000A42FF582E435F0F583E58224A9F582E50C
:10495000833415F583E0045401FD75F008EEA42FAF
:10496000F582E435F0F583E58224A9F582E5833408
:1049700015F583EDF0E570240DF8E6FF75F008EE0F
:10498000A42FF582E435F0F583E58224A9F582E5CC
:10499000833415F583E0C454F0448CFD7F021291FA
:1049A00027E5702406F812095FE41203BDE4FBFA60
:1049B0007980784B1202A77B0A7AD779A3783E12C6
:1049C000019EA8701209D0E570240AF8E6FF64750C
:1049D0006008EF64766003024ABBA870E8C0E0128A
:1049E000095F7B6F7A127983783A1202A7D0E0F8D8
:1049F0001209D0E570240AF8E6B47618A870E8C069
:104A0000E012095FE4FBFA792078411202A7D0E0B6
:104A1000F81209D07F757E787D0C7C35A87012095C
:104A20007712019EA87012097712019EA8701209D0
:104A30007712019EECC0E0EDC0E0EEC0E0EFC0E018
:104A40007FFA7EED7D6B7C3AA87012097712019E89
:104A5000A87012097712019ED0E0FBD0E0FAD0E0F6
:104A6000F9D0E0F81200ADECC0E0EDC0E0EEC0E03F
:104A7000EFC0E07F177ED97D167C40A870120977C1
:104A800012019ED0E0FBD0E0FAD0E0F9D0E0F812BD
:104A900000AD7BD37A4D79E278411200ADA8701257
:104AA00009D0A870E8C0E012095F7B337A93798857
:104AB00078431200A9D0E0F8024BDEE570240AF832
:104AC000E664776003024BE1A870E8C0E012095F7A
:104AD0007B007A247974784912019ED0E0F812099B
:104AE000D07F5D7E0B7D237C2CA87012097712018C
:104AF0009EA87012097712019EA870120977120100
:104B00009EA87012097712019EECC0E0EDC0E0EEA5
:104B1000C0E0EFC0E07F177EEE7D8B7C32A8701284
:104B2000097712019EA87012097712019EA87012CF
:104B3000097712019EC8ECC8C9EDC9CAEECACBEF0D
:104B4000CBD0E0FFD0E0FED0E0FDD0E0FC1200A929
:104B5000ECC0E0EDC0E0EEC0E0EFC0E07F4B7E5F78
:104B60007D047C38A87012097712019EA870120982
:104B70007712019ED0E0FBD0E0FAD0E0F9D0E0F867
:104B80001200ADECC0E0EDC0E0EEC0E0EFC0E07FB1
:104B90004B7E767D6C7C3DA87012097712019ED009
:104BA000E0FBD0E0FAD0E0F9D0E0F81200AD7B1FD6
:104BB0007A85796B78BE1200ADA8701209D0E4FF37
:104BC000FEFDFCA8701209771203446014A870124D
:104BD0000977E4FFFE7D7A7C441202A7A8701209CF
:104BE000D0E4FFFE7DC87C42A87012097712019EB6
:104BF000E4FBFAF9783F1200AD1203FBEC1203BD9F
:104C0000E4FBFA79C878421202A7A8701209D07F93
:104C10005C7EFF7D797C44A87012097712034460A2
:104C20000B4009A8701209E84479FF5CE4FFFE7D9F
:104C3000487CC3A8701209771203445009A8701267
:104C400009E8C479FF5CA87012095FE570240FF8C9
:104C5000CBE6CB08E6FA08E6F91209457F048002A4
:024C60007F01D2
:074C6200E5702412F5702239
:106D1E001570A870EBF61570A870EDF61570A870CA
:086D2E00EFF6E57024F7F570A3
:106D3600E570240AF8E66401704FE570240BF8E666
:106D4600FFE570240CF8E6FD7B0512A560E57024CE
:106D56000CF8E6FFE570240BF8E675F008A42FF5AD
:106D660082E435F0F583E58224A9F582E5833415BE
:106D7600F583E4F0EF25E025E02499F582E4341369
:106D8600F583120A013F800000E570240AF8E664E4
:106D9600036003027003E570240DF8E6D394074000
:106DA600057F00027005E570240BF8E6FFE5702408
:106DB6000CF8E6FD7B00E5702404F97A0012A75171
:106DC600E5702404F8E65401D39400406F12BB0129
:106DD600ECC0E0EDC0E0EEC0E0EFC0E0E570240BF3
:106DE600F8E675F008A4FFE570240CF8EF2625E018
:106DF60025E024D9F582E43413F583E0FCA3E0FD15
:106E0600A3E0FEA3E0242CFBEE3401FAE43DF9E412
:106E16003CF8D0E0FFD0E0FED0E0FDD0E0FCC312AD
:106E260008D15013E570240BF8E6FFE570240CF842
:106E3600E6FD7B0512A5607F00027005E570240C57
:106E4600F8E6FDE570240BF8E6FE75F008A42DF5CE
:106E560082E435F0F583E58224A9F582E5833415CD
:106E6600F583E0FFE570240DF8E66F60057F00020C
:106E76007005CFEECF128CD37B00E5702405128906
:106E860096E570240CF8E6FFE570240BF8E6FE752F
:106E9600F008A42FF582E435F0F583E58224A9F500
:106EA60082E5833415F583E0045407FD75F008EE9A
:106EB600A42FF582E435F0F583E58224A9F582E571
:106EC600833415F583EDF0E570240CF8E6FFE570E4
:106ED600240BF8E675F008A42FF582E435F0F58367
:106EE600E58224A9F582E5833415F583E0C454F0E0
:106EF6004405FD7F02129127E5702405F812095F0B
:106F0600E41203BDE4FBFA7980784B1202A77B0AF0
:106F16007AD779A3783F12019EC8ECC8C9EDC9CAD1
:106F2600EECACBEFCB7F0A7ED77D237C3F1200A92A
:106F3600A8701209D0A870E8C0E012095FE4FBFA55
:106F4600797A78441202A7D0E0F81209D0A870E83E
:106F5600C0E012095F7B007A247974784912019E99
:106F6600D0E0F81209D0A870E8C0E012095F7B9A59
:106F76007A99798878431200A9D0E0F81209D0E40A
:106F8600FFFE7DC87C42A87012097712019EE4FBC1
:106F9600FAF9783F1200AD1203FBEC1203BDE4FBD5
:106FA600FA79C878421202A7A8701209D0E4FFFE47
:106FB6007D167C43A870120977120344600B4009C2
:106FC600A8701209E84479FF5CE4FFFE7D5C7CC290
:106FD600A8701209771203445009A8701209E8C470
:106FE60079FF5CA87012095FE570240EF8CBE6CB3A
:0F6FF60008E6FA08E6F91209457F0480027F01D8
:07700500E5702411F5702273
:0CA87D007F0112927C7FFC12A8897F00F2
:08A889001570A870EFF61570C0
:10A89100C2B3C2B1000000000000000000000000CF
:10A8A1000000000000000000A870E4F6A870E6C3F4
:10A8B10094085047D2B008E6FF548094004003D377
:10A8C1008001C392B30000000000000000000000FE
:10A8D100000000000000000000C2B0000000000005
:10A8E100000000000000000000000000000000A8BF
:10A8F1007008EF25E0F6A8700680B1D2B1C2B300AE
:10A901000000000000000000000000000000000046
:03A9110000000043
:05A91400057005702232
:10927C001570A870EDF61570A870EFF615701570D6
:10928C00C2B3C2B1000000000000000000000000EA
:10929C000000000000000000A8700808E62450A898
:1092AC007008F6A870E4F6A870E6C394085047D28C
:1092BC00B008E6FF548094004003D38001C392B3FE
:1092CC000000000000000000000000000000000092
:1092DC0000000000C2B00000000000000000000010
:1092EC0000000000000000000000A87008EF25E05E
:1092FC00F6A8700680B1A8700808E62450A870087B
:10930C00F6A870E4F6A870E6C394085040D2B0C238
:10931C00B30000000000000000000000000000008E
:10932C000000000000C2B0000000000000000000BF
:10933C00000000000000000000000008E8C0E0E6AB
:10934C0025E0FFD0E0F8EFF6A8700680B8A870E42E
:10935C00F6A870E6C39408504ED2B0E5702403F81A
:10936C00E6FF5480D394004003D38001C392B30032
:10937C0000000000000000000000000000000000E1
:10938C00000000C2B000000000000000000000005F
:10939C00000000000000000000E5702403F8EF2539
:1093AC00E0F6A8700680AAD2B1C2B300000000009B
:0F93BC00000000000000000000000000000000A2
:0793CB00E5702404F5702297
:108FB600157015701570A870C6EBC608C6EAC60807
:098FC600C6E9C6E57024FCF57053
:108FCF00C2B100000000000000000000000000001F
:108FDF00000000000000F8087601A870E4F6A87001
:108FEF00E6C394085047D2B008E6FF54809400407F
:108FFF0003D38001C392B300000000000000000003
:10900F000000000000000000000000C2B0000000DF
:10901F000000000000000000000000000000000041
:0D902F0000A87008EF25E0F6A8700680B1DB
:10903C00A87008087605A8700808E6D394004022AA
:10904C00E5702403F87613E5702403F8E6D3940056
:10905C00400900E5702403F81680ECA87008081687
:02906C0080D4AE
:10906E00A870E4F6E5702404F8CBE6CB08E6FA081F
:10907E00E6F9120A3200000000A870E6C3941850F8
:10908E0070D2B000000000000000000000000000E0
:10909E0000000000000000E5702404F8CBE6CB08C9
:1090AE00E6FA08E6F91208F578011208E2C8ECC8EB
:1090BE00C9EDC9CAEECACBEFCBA2B4E4334BFFEA7B
:1090CE00FEE9FDE8FCE5702404F8CBE6CB08E6FAF1
:1090DE0008E6F9120945C2B00000000000000000C9
:1090EE00000000000000000000000000A8700680D4
:1090FE0088D2B10000000000000000000000000057
:07910E00000000000000005A
:07911500E5702407F570224C
:106692001570A870EBF61570A870EDF61570A8705D
:0866A200EFF6E57024F6F57037
:1066AA00240BF8E664016003026781E570240CF8A4
:1066BA00E6FFE570240D12BA907D027F0012927CEB
:1066CA001D7F0212927C7DD07F0312927C7FF01292
:1066DA00A889E5702404F81209E8000000007FA0E8
:1066EA007E867D017C00E5702404F8120977C312C6
:0766FA0008D1505730B554E0
:10670100E5702408F87601E5702408F8E6D39400D2
:106711004023E5702409F87603E5702409F8E6D3EF
:106721009400400900E5702409F81680ECE5702416
:0567310008F81680D2FB
:10673600E5702404F812095FEF2401FFE43EFEE44D
:106746003DFDE43CFCE5702404F81209D080937DFD
:106756000F12A87DE570240DF8E6FFE570240CF80D
:10676600E675F008A42FF582E435F0F583E582247A
:10677600F9F582E5833414F583E4F0E570240BF82B
:10678600E664036003026A0EE570240EF8E6D3940D
:106796000740057F00026A10E570240CF8E6FFE565
:1067A60070240D12BA90E5702404F81209E800006E
:1067B6000000E47F107E27FDFCE5702404F8120932
:0A67C60077C31208D1505730B554C4
:1067D000E5702408F87601E5702408F8E6D3940003
:1067E0004023E5702409F87603E5702409F8E6D320
:1067F0009400400900E5702409F81680ECE5702447
:0568000008F81680D22B
:10680500E5702404F812095FEF2401FFE43EFEE47D
:106815003DFDE43CFCE5702404F81209D08094E4C5
:106825007F107E27FDFCE5702404F8120977C3125A
:1068350008D17004FF026A10E570240DF8E6FEE544
:1068450070240CF8E675F008A42EF582E435F0F511
:1068550083E58224F9F582E5833414F583E0FDE5CB
:1068650070240EF8E66D60057F00026A10E570245D
:106875000DF8E6FFE570240CF8E6FCED045407FD81
:1068850075F008ECA42FF582E435F0F583E5822454
:10689500F9F582E5833414F583EDF075F008ECA481
:1068A5002EF582E435F0F583E58224F9F582E5835A
:1068B5003414F583E0C454F0440FFD12A87D7B0029
:1068C500E5702404F97A00128FB6E5702404F812F5
:1068D500095F78081208E2EC1203BDA8701209D00E
:1068E500E4FBFA7980784FE8C0E0A87012095FD020
:1068F500E0F81202A7E4FBFA79A0784012019EA8FD
:10690500701209D0E570240AF8E6B46402803FE508
:1069150070240AF8E6B4652DE4FBFA79207840E89E
:10692500C0E0A87012095FD0E0F81202A7E4FBFAF4
:1069350079A0784112019EE4FBFA792078C1120012
:10694500ADA870803EE570240AF8E6B46617A87015
:10695500E8C0E012095FE4FBFA7980783F12019EF6
:10696500D0E0F8801EE570240AF8E6B46718A87030
:10697500E8C0E012095FE4FBFA7920784112019E34
:10698500D0E0F81209D0E570240AF8E6FF646560E6
:1069950004EFB4672A7F007E407D1C7C46A87012F8
:1069A500097712019EE4FBFAF9783F1200AD120354
:1069B500FBEC1203BD7B007A40791C784680287F6A
:1069C500007E507DC37C47A87012097712019EE4B2
:1069D500FBFAF9783F1200AD1203FBEC1203BD7B05
:1069E500007A5079C378471202A7A8701209D0A877
:1069F5007012095FE570240FF8CBE6CB08E6FA08BC
:0B6A0500E6F91209457F0480027F01C2
:076A1000E5702412F570226D
:107B46001570A870EBF61570A870EDF61570A87094
:087B5600EFF6E57024F5F5706F
:107B5E00240CF8E664036003027DE9E570240FF857
:107B6E00E6FED3940340057F00027DEB7401C8EE60
:107B7E00C8088002C333D8FCA8700808F6758401C3
:107B8E00E5702403F81209E800000000A870E4F67E
:107B9E00A870E6C3940A4003027C56E4F5CCF5CDFA
:107BAE00F5C975C804E570240DF8E6FFE570240EDE
:107BBE0012BA90E570240DF8E6FFE570240EF8E693
:107BCE00FDE4FB12BA957F0012B899E570240DF80A
:107BDE00E6FFE570240EF8E6FD7B00A970097A0039
:107BEE0012A751A8700808C9E8C9A87008E657601E
:107BFE0005E5C830E7D0E4F5C8E5702403F8E8C021
:107C0E00E012095FECC0E0EDC0E0EEC0E0EFC0E0D6
:107C1E00AFCDEFFEADCC7C00E42DFFEC3ECBEFCB39
:107C2E00FAE4F9F8D0E0FFD0E0FED0E0FDD0E0FCC1
:107C3E00EF2BFFEE3AFEE93DFDE83CFCD0E0F812FA
:107C4E0009D0A87006027B9EE5C85480FFBF0127AD
:107C5E00E570240BF8E6B4700FE5702407F81209EE
:107C6E00E8411FFFFF027DCCE5702407F81209E8FA
:107C7E004479FFFE027DCCE5702403F812095FE41F
:107C8E001203BDECC0E0EDC0E0EEC0E0EFC0E0A836
:107C9E0070E6FCE41203C7C8ECC8C9EDC9CAEECA47
:107CAE00CBEFCBD0E0FFD0E0FED0E0FDD0E0FC1279
:107CBE0002A7E4FBFA79C478421202A7E4FBFA7930
:107CCE0040784112019EE5702407F81209D0E57044
:107CDE002407F8E8C0E012095F7B007A24797478F3
:107CEE00491202A7D0E0F81209D0E570240BF8E68D
:107CFE0064707BCD7ACC798C783F7044E8C0E0E537
:107D0E00702407F812095FD0E0F81202A77B007A00
:107D1E00B8790878491202A77B287A6B796E784E6B
:107D2E0012019EE5702407F81209D0E5702407F8B9
:107D3E00E8C0E012095F7B777ABE799F783D80417B
:107D4E00E8C0E0E5702407F812095FD0E0F81202EF
:107D5E00A7E4FBFA79AF78451202A77B287A6B79F4
:107D6E006E784E12019EE5702407F81209D0E57068
:107D7E002407F8E8C0E012095F7B9A7A9979F978BE
:107D8E00401200A9D0E0F81209D0E4FFFE7D7A7C03
:107D9E0044E5702407F812097712019EE4FBFAF904
:107DAE00783F1200AD1203FBEC1203BDE4FBFA792F
:107DBE007A78441202A7E5702407F81209D0E5700C
:107DCE002407F812095FE5702410F8CBE6CB08E61D
:0D7DDE00FA08E6F91209457F0480027F01D2
:077DEB00E5702413F570227E
:1016BF001570A870EBF61570A870EDF61570A87080
:0816CF00EFF6E57024F0F57060
:1016D700E5702412F8E675F008A4FFE5702413F806
:1016E700EF26FFE570240DF8EFF6E5702411F8E614
:1016F70064046003021817E5702414F8E67032E5F5
:1017070070240DF8E625E025E02459F582E4341429
:10171700F583120A0142960000E5702415F8CBE61E
:10172700CB08E6FA08E6F9120A32429600000218D8
:1017370012E5702414F8E6B40132E570240DF8E6DA
:1017470025E025E02469F582E43415F583120A01C2
:1017570000000000E5702415F8CBE6CB08E6FA0890
:10176700E6F9120A3200000000021812E57024148C
:10177700F8E6B40231E570240DF8E625E025E0240B
:1017870099F582E43414F583120A013F800000E5DD
:10179700702415F8CBE6CB08E6FA08E6F9120A3208
:1017A7003F8000008065E5702414F8E6FFB4032B42
:1017B700E570240DF8E625E024D9F582E43414F524
:1017C70083E4F0A3743CF0E5702415F8CBE6CB086E
:1017D700E6FA08E6F9E475F03C802DEFB4042CE551
:1017E70070240DF8E625E024F9F582E43417F58333
:1017F700E4F0A37405F0E5702415F8CBE6CB08E612
:10180700FA08E6F9E475F00512088E7F0002202831
:10181700E570240DF8E62419F582E43418F583E021
:1018270060030218EE12BB01E570240DF8E625E00F
:1018370025E02409F582E43415F583E0F8A3E0F9FF
:10184700A3E0FAA3E0FBC3EF9BFFEE9AFEED99FD41
:10185700EC98FCECC0E0EDC0E0EEC0E0EFC0E0E5E6
:1018670070240DF8E625E024D9F582E43414F583D5
:10187700E0FEA3E0FF7C007D6412078ECBEFCBCAAE
:10188700EECAE4F9F8D0E0FFD0E0FED0E0FDD0E00A
:10189700FCC31208D140030219CAE570240DF8E60B
:1018A7002419F582E43418F5837401F012BB01E5BD
:1018B70070240DF8E6FB25E025E02409F582E434E1
:1018C70015F5831209DCEB25E025E02459F582E4C0
:1018D7003414F583E0FCA3E0FDA3E0FEA3E0FFA83A
:1018E700701209D002199312BB01E570240DF8E6B6
:1018F70025E025E02409F582E43415F583E0F8A313
:10190700E0F9A3E0FAA3E0FBC3EF9BFFEE9AFEED3D
:1019170099FDEC98FCECC0E0EDC0E0EEC0E0EFC054
:10192700E0E570240DF8E625E024F9F582E43417A4
:10193700F583E0FEA3E0FF7C007D6412078ECBEF0A
:10194700CBCAEECAE4F9F8D0E0FFD0E0FED0E0FD64
:10195700D0E0FCC31208D1506AE570240DF8E624E4
:1019670019F582E43418F583E4F012BB01E570241D
:101977000DF8E625E025E02409F582E43415F58322
:101987001209DCA8701209E800000000A9701570A0
:1019970015701570A870760008760008C6E9C61598
:1019A70070A870E4F6E5702417F8E61570A870F6CD
:1019B700E5702417F8E6FB7D02E5702415F8E6FFCD
:1019C7001216BFE5702411F8E664016003021A6A73
:1019D700E5702412F8E6FFE5702413F8E6FD7B0EA8
:1019E70012ABFEE5702412F8E6FFE5702413F8E663
:0C19F700FD7B0E12A61A128CC512911C6A
:101A0300E570240EF87664E570240EF8E6D39400AE
:101A13004023E570240FF87603E570240FF8E6D32E
:101A23009400400900E570240FF81680ECE570245B
:051A33000EF81680D240
:101A38007D077F02129127E570240DF8E62419F539
:101A480082E43418F5837401F012BB01E570240DAB
:101A5800F8E625E025E02409F582E43415F583123B
:101A680009DCE5702411F8E664026003021D40E514
:101A7800702414F8E6703FE5702415F8CBE6CB081F
:101A8800E6FA08E6F91208F5E4FBFAF9F812034455
:101A98005024E5702415F8CBE6CB08E6FA08E6F9F9
:101AA8001208F5E570240DF8E625E025E02459F53F
:101AB80082E434148058E5702414F8E6B40124E56F
:101AC800702415F8CBE6CB08E6FA08E6F91208F513
:101AD800E570240DF8E625E025E02469F582E43474
:101AE80015802BE5702414F8E6B40229E570241556
:101AF800F8CBE6CB08E6FA08E6F91208F5E5702413
:101B08000DF8E625E025E02499F582E43414F58300
:101B18001209DC8062E5702414F8E6FFB4032BE5B3
:101B2800702415F8CBE6CB08E6FA08E6F912082B7C
:101B3800FDE570240DF8E625E024D9F582E4341497
:101B4800F583E5F0F0A3EDF0802DEFB40429E570FE
:101B58002415F8CBE6CB08E6FA08E6F912082BFFBD
:101B6800E570240DF8E625E024F9F582E43417F54C
:101B780083E5F0F0A3EFF0E5702414F8E6D39400C1
:101B880040057F00022028E5702415F8CBE6CB0835
:101B9800E6FA08E6F91208F5A8701209D0E4FFFE83
:101BA800FDFCA8701209771203445009A8701209A5
:101BB800E800000000E4FFFE7DC87C42A87012091E
:101BC80077120344600B4009A8701209E842C80064
:101BD80000E4FBFA79C87842E8C0E0A87012095F0F
:101BE800D0E0F81202A77B007AFF797F78471201CC
:101BF8009E1203FBE570240AF8EEF608EFF6E5708E
:101C08002412F8E6FFE5702413F8E6FDE4FB12A6BB
:101C18001AE570240CF8E4F6E570240CF8E6FFC326
:101C280094045033EF940140047F0480027F001233
:101C3800A5FEE5702412F8E6FFE5702413F8E6FD2A
:101C4800E5702405F8E64408FB12A61A12A605E575
:101C580070240CF80680C1E570240CF8E4F6E570F1
:101C6800240CF8E6C39404504DE5702414F8E654A7
:101C780008D3940040047F0480027F0012A5FEE58B
:101C8800702412F8E6FFE5702413F8E6FDE57024E9
:101C980005F8E64408FB12A61A12A605E5702414F6
:101CA800F8E8C0E0E625E0FFD0E0F8EFF6E57024BC
:101CB8000CF806021C66E570240CF8E4F6E57024BE
:101CC8000CF8E6C39410505DE570240AF8E65480D9
:101CD800FED3E49400EE940040047F0480027F0069
:101CE80012A5FEE5702412F8E6FFE5702413F8E665
:101CF800FDE5702405F8E64408FB12A61A12A605AD
:101D0800E570240AF8E8C0E0C9E8C909E725E0FF5A
:101D180019E733FED0E0F8EEF608EFF6E570240C8C
:101D2800F806021CC5E5702412F8E6FFE5702413D6
:101D3800F8E6FD7B0E12A61AE5702411F8E6640396
:101D48006003022026E5702414F8E67013E5702479
:101D58000DF8E625E025E02459F582E434148036B0
:101D6800E5702414F8E6B40113E570240DF8E625AF
:101D7800E025E02469F582E43415801AE57024141E
:101D8800F8E6B40221E570240DF8E625E025E02404
:101D980099F582E43414F583E0FCA3E0FDA3E0FEAA
:101DA800A3E0FF02200DE5702414F8E6FEB4032832
:101DB800E570240DF8E625E024D9F582E43414F51D
:101DC80083E0F9A3E0FDE5702415F8CBE6CB08E63F
:101DD800FA08E6C98DF0802AEEB4042EE570240DC9
:101DE800F8E625E024F9F582E43417F583E0F9A351
:101DF800E0FFE5702415F8CBE6CB08E6FA08E6C95B
:101E08008FF012088E7F02022028E5702414F8E66D
:101E1800640560057F00022028E5702412F8E6FFBB
:101E2800E5702413F8E6FD7B00E5702404F97A00D8
:101E380012A751E5702404F8E65401D39400400534
:101E48007F00022028128CC57B00E57024061289C9
:101E5800967D077F02129127E5702406F812095F24
:101E6800E41203BDE4FBFA7980784B1202A77B0ADF
:101E78007AD779A3784012019E7B0A7AD77923789A
:101E8800C01200ADA8701209D0A870E8C0E012090D
:101E98005F7B387A1F7943784112019ED0E0F812AF
:101EA80009D0A870E8C0E012095FECC0E0EDC0E01E
:101EB800EEC0E0EFC0E0E570240DF8E625E025E08F
:101EC8002459F582E43414F583E0FCA3E0FDA3E093
:101ED800FEA3E0FFE4FBFA797A78441202A7C8EC83
:101EE800C8C9EDC9CAEECACBEFCBD0E0FFD0E0FE3F
:101EF800D0E0FDD0E0FC1202A7D0E0F81209D07BB8
:101F0800CD7ACC792C7840E8C0E0A87012095FD06F
:101F1800E0F81202A7C8ECC8C9EDC9CAEECACBEFEF
:101F2800CBE4FFFE7DC87C421200A9A8701209D03C
:101F3800E570240DF8E625E025E02469F582E4340F
:101F480015F583E0F8A3E0F9A3E0FAA3E0FBE8C005
:101F5800E0A87012095FD0E0F81200A9E570240D1E
:101F6800F8E625E025E02499F582E43414F583E0C9
:101F7800F8A3E0F9A3E0FAA3E0FB12019EA870120F
:101F880009D07F007E507DC37C47A8701209771264
:101F9800019EE4FBFAF9783F1200AD1203FBEC1244
:101FA80003BD7B007A5079C378471202A7A8701244
:101FB80009D0E570240DF8E62419F582E43418F503
:101FC80083E06401705412BB01E570240DF8E62526
:101FD800E025E02409F582E43415F583E0F8A3E070
:101FE800F9A3E0FAA3E0FBC3EF9BFFEE9AFEED999D
:101FF800FDEC98FCE47B64FAF9F8C31208D1501A96
:10200800A87012095FE5702415F8CBE6CB08E6FA4C
:1020180008E6F91209457F0480067F0080027F01E7
:07202800E5702418F5702299
:107DF2001570A870EBF61570A870EDF61570A870E6
:087E0200EFF6E57024F5F570C0
:107E0A00E570240CF8E664017021E570240DF8E6AB
:107E1A00FFE570240EF8E6FD7BFF12A61AE5702432
:107E2A000DF8E6FFE570240E12ABF9E570240CF8A4
:107E3A00E66403600302808BE570240FF8E6701293
:107E4A00E570240DF8E6FFE570240EF8E6FD7BFEEA
:107E5A008010E570240DF8E6FFE570240EF8E6FDC3
:107E6A007BFD12A61AE570240DF8E6FFE570240ED4
:037E7A0012BA90A9
:107E7D00E5702409F8760AE5702409F8E6D3940034
:107E8D004023E570240AF87603E570240AF8E6D35A
:107E9D009400400900E570240AF81680ECE5702482
:057EAD0009F81680D267
:107EB20030B418E570240DF8E6FFE570240EF8E6FC
:107EC200FD7BFF12A61A7F0002808DE5702404F864
:107ED2001209E800000000E5702408F8E4F6E570F5
:107EE2002408F8E6C3941B5075000000000000004F
:107EF20000000000000000000000000000D2B000FE
