:10180E004856522D383030000134000000436F6EC0
:10181E0074726F6C0001002004180000015564659D
:10182E006D616E64000100210418000001556D65A4
:10183E0061730000000100250406FA0001496D6580
:10184E00617300000001002901340000005374612F
:10185E00747573000001002D015C00000054726964
:10186E0070436E740001002E041800000152616D69
:10187E00705570000001002F041800000152616DB8
:10188E0070446F776E0100330418000001556C69C7
:10189E006D697400000100370406FA0001496C6995
:1018AE006D6974000001003B0406FA000152496C98
:1018BE00696D69740001003F015C0000005472699B
:1018CE00704D6178000100430103000000547269FD
:1018DE007054696D65010044045D00000941444384
:1018EE006761696E00010045041800000941444318
:1018FE006F66730000010049045D00000944414316
:10190E006761696E0001004D0418000009444143EF
:10191E006F66730000010051045D000009435552CB
:10192E00766761696E010055045D000009435552EA
:10193E006761696E000100590406FA0009435552A9
:10194E006F6673000001005D0418000009554441E4
:10195E0043000000000100610000000000000000D4
:08196E00000000000000000071
:08332300011E080312FF181639
:100FE30075F045E548900021120E4C120D8BE54833
:100FF30025E025E02468F582E43402F583120DDC54
:10100300E54825E025E02468F582E43402F58312FF
:101013000D8BE54890006175F045020E4CF675F0B6
:1010230045E54890002D120E4CE054FBF0E5487561
:10103300F04590002D020E4C75F045E53B900021E4
:10104300120E4C120D8B78C0E4FBFA79A01208172C
:10105300900061E53B75F045020E4C25E025E02448
:1010630068F582E43402F583120D8BE54890002184
:1010730075F045020E4CE53E75F04590003B020EBF
:101083004C75F045E53B900025120E4C120DA490D3
:101093000021E53B75F045020E4C75F045E548909F
:1010A300003F120E4C120D8BE54875F04590002958
:1010B300020E4CE53E75F045900037020E4C120DC2
:1010C3008BE54825E025E02468F582E43402F583C6
:1010D3002275F04590002F020E4C75F045900033B9
:1010E300020E4C75F045900020020E4C75F04590B1
:1010F300002E020E4CE53B25E025E024F5F582E4C5
:101103003403F5832275F045900044020E4CE53B11
:1011130025E025E02448F582E43402F5832275F0C6
:1011230045900045020E4CCBEFCBE54825E025E08A
:101133002400F582E43400F5832275F04590002500
:10114300020E4C120DA412090879C87842E4FBFA86
:10115300020A111208139003F1120DDC9003F1122D
:101163000D8B75F045E53B22120DA4020AAEC8ECC7
:10117300C8C9EDC9CAEECACBEFCB22120D8BE4FB73
:10118300FA22120D8B7B007A3C791C7846020AAE58
:101193007B00120908E4FBFAF9783F22797A784454
:1011A300E4FBFA020A1175F045E53E020E4CE7A88E
:1011B300150808F6A815E4F6A8150822E515240372
:1011C300F8120D97020AAE1209089003F1020DDC22
:1011D300120D8BE51524FCF515F822C2B608C9E8F3
:1011E300C9A8150808E657940022FAF9F8C3020DB6
:1011F300217B907A067972784322E4FFFE7D7A7C24
:1012030044020DA4E054BFF074162548F874FE564A
:10121300F622120E4C020DA47B007A2479747849CD
:1012230022AC49E4120B3175F045E548221515A8A7
:1012330015EFF61515151522AB49AA4AA94B22AB92
:101243003CAA3DA93E229003F1020DDC7416254809
:0D125300F874FB56F6227416253BF8E622CF
:10164C0075840F75A4F1E4F5A5F5A675A7ECD2B4D5
:10165C00EF70030216E87E027F287D007B017A0082
:10166C007920120ED0E4F53E1210B6120E0144167B
:10167C000000121079120E014348000090003F1236
:10168C0011A9120E0143480000E53E1210D4120EAF
:10169C000142C80000E53E1210DD120E0142C800E6
:1016AC0000E53E121108740AF0E53E121121120EEB
:1016BC00013F80000075F045E53E90004D120E4C48
:1016CC00120E013F8000009000591211A9120E0158
:1016DC003F800000053EE53E6408708CE4F53EE575
:1016EC003E1210E67402F0E53E121032E4F0E53ED4
:1016FC00121070120E0100000000E53E1210EFE413
:10170C00F01210B612117E79167844120AAE500AF5
:10171C001210B6120E014416000012107912117E2E
:10172C0079487843120AAE50121210791211856062
:10173C000A121079120E0143480000E53E1210C641
:10174C00120E0100000000123346E53E12112F125A
:10175C000DDC053EE53EC3940840847861B6FF0A73
:10176C0008B6FF06187603087620E4F53E75F045BA
:10177C00E53E90002D20B409120E4CE04401F0809F
:10178C0007120E4CE054FEF0053EE53EB408DED2E6
:10179C0087D286D2B0D2B7D2B5121806C28412182C
:1017AC0006C2B575A0FFC2867F017E00122EB8D28C
:1017BC00867F017E00122EB87D1B7F031225DFE48D
:1017CC00F53E7416253EF87609053EE53EB408F262
:1017DC00E4F53E7D01AF3E1232C2053EE53EC394B8
:1017EC000840F0E4F53EE53E121113120E01000024
:0917FC000000053EE53EB408EDD5
:09180500227F017E00122EB822A0
:102A2D001515A815EFF6A815E6FF600864016004FA
:102A3D00EFB4040D122AB5121035E054DFF0122A4E
:102A4D00BDA815E664087023123365EF1210B81295
:102A5D00117E79167844120AAE500D122AB5121055
:102A6D00BB120E0144160000122ABDA815E664091A
:102A7D007033123365EF12107B12117E7948784353
:102A8D00120AAE502012336575F045EF12107E120A
:102A9D001185601112336575F045EF12107E120E1F
:102AAD00014348000005152212336575F045EF22EC
:0C2ABD0012336574162FF8740146F622DF
:050003008F347F002294
:09335C008B348A3589367F00228A
:101D800015151515A815ECF608EDF61212301515F7
:101D9000C2B2121E991211B77608A815E6C39404B0
:101DA0005023C2B608E6540394004003D38001C315
:101DB000121E68A81508E8C0E0E6C313FFD0E012C1
:101DC0001E8E0680D51211B77608A815E6C39404B6
:101DD000502BC2B608C9E8C9E5152403F8E657D365
:101DE00094004003D38001C3121E68A81508E8C000
:101DF000E0E6C313FFD0E0121E8E0680CDE5152469
:101E000004F91211B17680A815E6C39408501D128A
:101E100011DE4003D38001C3121E7BA81508E8C061
:101E2000E0E6C313FFD0E0121EA680DBE515240414
:101E3000F9091211B17680A815E6C39408501D1255
:101E400011DE4003D38001C3121E7BA81508E8C031
:101E5000E0E6C313FFD0E0121EA680DBD2B2121E52
:011E600099E8
:101E6100E5152406F5152292B77F017E00122EB8E2
:101E7100D2B67F017E00122EB82292B77F017E007A
:101E8100122EB8D2B67F017E00122EB822F8EFF6DC
:101E91007F011232A7A815227F017E00122EB87F82
:101EA100011232A722F8EFF67F011232A7A8150618
:011EB100220E
:0425DF008F488D494B
:1025E30012267AE4F54A122670C2B71226A4D2B68E
:1025F3001226A47F011232A7054AE54AC394044078
:10260300E5E4F54A754B08122670E548554BD3941B
:10261300004003D38001C312265D1226899404402F
:10262300E612269A7F011232A712267AE4F54A753A
:102633004B80C2B67F017E00122EB8E549554BD3BD
:1026430094004003D38001C312265D1226899408A7
:0A26530040E012269A7F010232A730
:10265D0092B77F017E00122EB8D2B67F017E001296
:10266D002EB822C2B67F017E00122EB822C2B37FD1
:10267D00017E00122EB87F011232A722E54BC31343
:10268D00F54B7F011232A7054AE54AC322D2B37F2B
:0F269D00017E00122EB8227F017E00122EB8227D
:0824FC008F088B098A0A890B85
:102504001225BA7F011232A7E4F50C1225B0E50CAE
:10251400B40103D38001C312259D7F011232A705A4
:102524000CE50CC3940440E3E4F50C750D08122586
:10253400B0E508550DD394004003D38001C31225A0
:102544009D1225C4940440E61225D57F011232A7BA
:102554001225BA7F011232A7E4F50C750D80AB0980
:10256400AA0AA90B120C2CC2B67F017E00122EB847
:1025740030B10EAB09AA0AA90B120BE6450D120CD9
:102584002CD2B67F017E00122EB81225C4940840C6
:09259400D61225D57F010232A701
:10259D0092B77F017E00122EB8D2B67F017E001257
:1025AD002EB822C2B67F017E00122EB822C2B37F92
:1025BD00017E00122EB822E50DC313F50D7F011219
:1025CD0032A7050CE50CC322D2B37F017E00122E7B
:0225DD00B82222
:0823F5008F488B498A4A894B8D
:1023FD001224D11232A7E4F54C1224C7E54CB401D6
:10240D0003D38001C31224B41224E9940440EAE4F6
:10241D00F54C754D081224C7E548554DD394004031
:10242D0003D38001C31224B4E54DC313F54D12241B
:10243D00E9940440E01224DD1232A71224D11232A5
:10244D00A7E4F54C12123B120E32000000001212DE
:10245D003B120D457801120D32120D65C2B61224D4
:10246D00F41224F412123BEBC0E0EAC0E0E9C0E044
:10247D00120DB0A2B1E4FCFDFE33FF120D06D0E04B
:10248D00F9D0E0FAD0E0FB120D65D2B67F017E00E7
:10249D00122EB87F011232A7054CE54CC39418409B
:0724AD00AD1224DD0232A78D
:1024B40092B77F017E00122EB8D2B67F017E001241
:1024C4002EB822C2B67F017E00122EB822C2B37F7C
:1024D400017E00122EB87F0122D2B37F017E00124A
:1024E4002EB87F01227F011232A7054CE54CC3228E
:0824F4007F017E00122EB822C8
:0626AC008B3C8A3D893ED3
:1026B200EFC454F0440FFD7F021225DF7D027F013B
:1026C2001225DF1233468F468E458D448C4330B03F
:1026D2004C122E4DE4F547AF471214660547E54705
:1026E200C3940840F2123346C3EF9546FFEE954578
:1026F200FEED9544FDEC9543FCE47B1E1211ED507A
:10270200CDC2867F647E001231F7D2867F2C7E0195
:102712001231F77D1B7F031225DF7F00227B007AB7
:1027220000793F7F041223F5AF42AE41AD40AC3F8A
:10273200E4120B277980784B1211507B0A7AD779F1
:10274200237840120908121242120D651212421227
:102752000D4512121D1211931208171228DD1212C2
:0C2762001B120A11121242120D657F01B9
:01276E002248
:0320D600121230B3
:1020D900A8150808E690003712101A12117E79A087
:1020E90078401208171211BFA81560244022080869
:1020F900E6FB900037121058120D8BE5152403F8F2
:10210900120DD075F045EB121035E04410F0800A3D
:102119000808E6121032E054EFF0A8150808E69016
:10212900004D121073120D8BE5152403F8120D974B
:10213900120908A8150808E6900051121097120D07
:10214900A4120817E5152403F8120DD0E4FFFEFDCB
:10215900FC1211BF500CE5152403F8120DE800001C
:102169000000E5152403F8E8C0E0120D7F1211F410
:10217900120A11D0E0F8120DD0E4FFFE7D207C4058
:102189001211BF600E400CE5152403F8120DE8404A
:10219900200000E4FBFA79207840E8C0E0E5152446
:1021A90003F8120D7FD0E0F8120A117AFF797F78CF
:1021B90047121193120817120B65A815EEF608EFCE
:1021C900F6A815E6FC08E6FDA8150808E6FF121DA5
:0121D9008085
:0721DA00E5152407F51522AD
:022C73008F3B95
:102C75007B017A0379F11226ACEF606F9003F112B4
:102C85000D8B1211F4120908121249E53B1211219C
:102C9500120D8B9003F1120DA412090875F045E58C
:102CA5003B9000491212151208171212499003F1B0
:102CB5001211FD1209081228DD12119F121249E4A2
:102CC500FFFE7DA07C409003F112116B50047D0145
:102CD50080027D00AF3B1232C2C2AF9003F1120DEC
:0B2CE5008BE53B12113D120DDCD2AF5D
:012CF00022C1
:101C38008F3B75F045EF12107E120D8BE53B1210AD
:101C4800AD12116B60025003021CE675F045E53BCE
:101C580012107E1211857003021CE6121111121166
:101C68007E1211EE7009123346121111120DDC1298
:101C780011D6120DE800000000AF3B1220D6E53B5C
:101C88001210C6120E0100000000E53B12101712D8
:101C98000E01000000007416253BF874FE56F67419
:101CA80016253BF874FD56F67416253BF874FB565A
:101CB800F675F045E53B121035E054F3F075F04544
:101CC800E53B121035E0FF20E51475F045E53B12C1
:101CD8001035EF4420F0E53B1210EFE004F075F00A
:101CE80045E53B121035E030E57675F045E53B906B
:101CF8000043120E4CE0FF75F045E53B1210F2E090
:101D0800C39F505C123346ECC0E0EDC0E0EEC0E08B
:101D1800EFC0E0E53B121108E075F064A4FFAEF0F7
:101D2800E4FCFD121111120DA4120CF9121171D05C
:101D3800E0FFD0E0FED0E0FDD0E0FCD3120D215052
:101D48001F75F045E53B121035E054DFF012111114
:101D5800120E01000000007416253BF8740146F6C7
:101D680075F045E53B121035E030E50B7A007B64F1
:081D78007D03AF3B123059223C
:10197600C2B5121ACF85A03DE53DD394004009D2E9
:10198600B57F017E00022EB8E4F53B1210F8120E68
:101996000100000000053BE53BB408EFE4F53B859C
:1019A600A03DE4F53CE53C1210FA120D8B780112CD
:1019B6000D32121171E53D5401FFE4FCFDFE120DDE
:1019C60006E53C1210FA120DDCE53DC313F53D05A4
:1019D6003CE53CB408CFD284121ACFC2847F017E84
:1019E60000122EB8053BE53BC3942040B2D2B5C2E7
:1019F60084E4F53B1210F8120D8BE4FFFEFDEC5467
:101A060020FCE4FB1211ED70101210F8120D8BEC95
:101A1600541FFCEC44E0FC800B1210F8120D8BEC0A
:101A2600541FFCE4120B277980784D1211A37B33E7
:101A36007A33795378401211CA7BF67A2879387846
:101A4600419003F1120D8B120A1112119F12121BF3
:101A56001211CA9003F1120D8BECC0E0EDC0E0EE5E
:101A6600C0E0EFC0E0E53B12113D12116290005557
:101A7600121215120908121171D0E0FFD0E0FED043
:101A8600E0FDD0E0FC12115690005D121215121105
:101A9600569000591212151211CA9003F11211FD37
:101AA6001211951208171228DD12119F1211CDC2BC
:101AB600AF12115F1210B0120DDCD2AF053BE53B41
:081AC600C3940850030219FA51
:091ACE00227F017E00122EB822D5
:021466008F48AD
:10146800EF1210E6E020E00302162275F045EF12B5
:101478001035E030E50302162274162FF8E630E046
:1014880077EF12105E12116B602F402DE548121095
:10149800D412117EF9F8120AAE501E74162548F8B7
:1014A800740246F612124F121030E0440412102F44
:1014B800E054F712102F121207E54812105E1211AD
:1014C8006B502CE5481210DD12117EF9F8120AAEA5
:1014D800501D74162548F874FD56F674162548F8FC
:1014E800740446121020E0440812102F121207123A
:1014F800334612112D120DDC74162548F8E620E14A
:10150800030215A812334612112A120D8BC3EB9F42
:10151800F54912109D12116B75F045600D400BE5F1
:1015280048121035E04440F08009E548121035E0D3
:1015380054BFF0E549606912109D12116B50611299
:1015480010C4C083C082120DA4E8C0E0E9C0E0EA7C
:10155800C0E0EBC0E01212241210D7121146D0E0FE
:10156800FBD0E0FAD0E0F9D0E0F8120817D082D02A
:1015780083121000120DDC12106E1210C112116BC2
:101588004015120FE3120DDC74162548F874FD5649
:10159800121020E054BFF01210C4121627120DDCEE
:1015A80074162548F8E630E27112334612112A12F1
:1015B8000D8BC3EB9FF54960611210C4C083C082D4
:1015C800120D8BECC0E0EDC0E0EEC0E0EFC0E01221
:1015D80012241210E0121146121171D0E0FFD0E06F
:1015E800FED0E0FDD0E0FC120813D082D0831210A8
:1015F80000120DDC12106E1210C112116B60025035
:1016080010120FE3120DDC12124F121030E054F7D3
:0F161800F01210C4121627120DDC7F010232A748
:10162700120D8BE51524FCF515F8120DD0AF4812F5
:1016370020D6123346E54825E025E02400F582E46C
:051647003400F58322D0
:101AD7008F3B75F045EF1210E9E0FF20E003021B92
:101AE700F112125954066003021BF175F045E53BEC
:101AF700121035E030E503021BF1EF20E103021B72
:101B0700C5900021121056120D8BE53B1210C6121C
:101B17000DDC121084120D8B1208131233161211DA
:101B2700F4120A11E4FBFA79207840120A11E4FB57
:101B3700FA79807847121195120AAE4003021BF119
:101B4700121053C083C082120DA4E8C0E0E9C0E0C0
:101B5700EAC0E0EBC0E0121084120D8B120813D01C
:101B6700E0FBD0E0FAD0E0F9D0E0F8120817D08215
:101B7700D083120DDC12103B12116B500612103B72
:101B8700120DDC121092120D8B784012104B1211AD
:101B97006B6012401012109212117E79A0784012D9
:101BA7001050120DDC7416253BF874FE56F6121011
:101BB700531211D3120DD0AF3B1220D6802C121224
:101BC7005930E026121092120D8BE53B1210C61207
:101BD7000DDC121092120D8B121053120DDC121025
:101BE700921211D3120DD0121C29900020121095B9
:101BF700E020E02912125930E023121053120E018F
:101C070000000000E53B1210C6120E0100000000A4
:101C17001211D6120DE800000000121C297F0102E4
:101C270032A7AF3B1220D67416253BF874FE56F642
:011C3700228A
:10317F00E4F53A7F001232A7900020E020E22412FB
:10318F001976123346E47B2C7A011211EE5014AFEC
:10319F003A121C38AF3A122C73AF3A121466AF3A88
:0C31AF00121AD7053AE53AC3940840C74D
:0131BB0022F1
:10000E00323031342D31322D3135202D20633032C6
:05001E00646262340081
:101EB200E529AB12AA13A91475F010A4F58285F0D6
:101EC20083020BFFE52975F010A4AB122514F9E586
:101ED2001335F0FA900004020BFF90000D120E7AF7
:101EE200785DE6FF18E68FF0A4FFE5262FF582E481
:101EF20035F0F583229003887478F07857E62487CA
:101F0200F582E43402F583E022E53DC4F8540FC8BB
:101F120068FFE53CC454F04822785F900289E0FCF7
:101F2200A3E0FDE6FA08E6FB22AB3EAA3FA9401277
:101F32000BFFFFC3648022E5272526248AF582E46D
:101F42003402F583E022AB12AA13A9142275F01011
:101F5200A429F9EA35F0FA227860900289E0FDE6D8
:101F6200FB229003887478F07F0122D20AC3ED9B92
:101F7200785DF67859760122D20A785DF678592290
:101F8200900003120BFFFDC3648022353CF583E40D
:101F9200F0053DE53D22D3EF648094B922D3EF648E
:101FA2008094E62290000D020E7A7B007A0079245A
:101FB2002290028AE0FFE526D39F22E4F52B781EC9
:051FC200E614F52C22DD
:1021E1001222DFEA494B60111222DFE92402F9E4ED
:1021F1003A8B3EF53F89408004E4FEFF22900001C6
:10220100121F2B94B0400B121F985006EF24D0FFE1
:102211008017900001121F3194E1400B121F9F5053
:1022210006EF24A9FF80027F00EF7D00FC120BE680
:10223100FFC3648094B0400B121F985006EF24D066
:10224100FF801EAB3EAA3FA940120BE6FFC364808C
:1022510094E1400B121F9F5006EF24A9FF80027FDB
:1022610000EFC454F04CFC900002121F2B94B040BC
:102271000B121F985006EF24D0FF80179000021216
:102281001F3194E1400B121F9F5006EF24A9FF80DC
:10229100027F00EF75F010A4FFEC45F0FEED4FFF5B
:1022A100121F8294B0400ED3ED648094B95006EDB4
:1022B10024D0FD801DAB3EAA3FA940121F8294E1AC
:1022C100400ED3ED648094E65006ED24A9FD800212
:0D22D1007D00EF4DFF9003F1EEF0A3EFF064
:0D22DE00227BFF7A00790E7D2D122F112238
:10126000E47880F6123303C28575840F75E104E4D7
:10127000F5E275E344F584F5B775840F758A83F557
:101280009712324BE4FF12326A43EF04E4F53CF567
:101290003D7D01AF3D1232C2053DE53D7002053C8A
:1012A000C39408E53C940040E8E4F520C20AC20873
:1012B000C20EC20DC20C7880F608F67858F618F601
:1012C000785DF6F53CF53D7488253DF58274021293
:1012D0001F8D7002053CB400EEE53CB401E9E4F575
:1012E0003CF53D7488253DF5827403121F8D700214
:1012F000053C6440453C70EBE4F584E5EF20E10CEF
:10130000E5EF5408D394004003D38001C392037DDA
:1013100008E4FF123222E4785CF67855F6121F4892
:101320007855E6FF121EBAFE785C26F6EE60057868
:10133000550680E9EFD39400402A121F48121FA6D9
:10134000120BE6FF7455120C2C120BE6645560026A
:10135000D20C74AA120C2C120BE664AA6002D20CF6
:10136000EF120C2CE4F584E5EF5402D39400400412
:101370007F018002E4FF12282A8F3BE53B20E03604
:10138000C20974FF785FF608F608F608F67E007F5B
:10139000107D007B007A007965120ED07541FF75D3
:1013A000421875430E7544007545107B007A00792C
:1013B00065122F678002D2091221E17863A6060820
:1013C000A607E53B20E176E4F53CF53D121F0BFE58
:1013D000121F488F82F583120BFF6058E92FF9EA3C
:1013E0003E121ED520E242E4F53AE53AC3781E9655
:1013F0005037121F0B121F488F82F583120BFFFF0D
:101400007E00C006C0077D00121F0BFEE92FF9EA1F
:101410003EFA121FA6785CE6853AF0121F52D007FA
:10142000D006120ED0053A80C1053DE53D7002059B
:101430003C0213CC7F0112164CC20B8007E4FF1252
:10144000164CD20BE4F53CF53D7A007B967D03AF5C
:101450003D123059053DE53D7002053CC39408E559
:051460003C940040E493
:011465002264
:05336500785DE6FF2287
:03002300021FC7F2
:101FC700C0E0C0F0C083C082C0D075D000C000C0E0
:101FD70001C002C003C004C005C006C00730994055
:101FE700C2997858067958E77881667016F6785856
:011FF700F6F3
:0E1FF80075220A0075230300D523FCD522F5BF
:04200600C285801DF2
:0E200A007522140075230300D523FCD522F5A2
:102018007858E62488F582E43403F583E0F59920BE
:1020280098030220BB209A08200A05C2980220B70C
:10203800C29A7857E6062488F582E43402F583E5E7
:1020480099F0C298E6FFB40112900288E0FE70038E
:10205800F68060EE54072402785EF6EFB4020D783D
:102068005EE6B40907900289E02403F67857E6FF94
:10207800B40007E4B40103F68039EFC3785E9640F4
:10208800327857E624FFFDE434FFFC7B017A0279BD
:0E20980088122CF1121EFD6F60047600801578
:0E20A6007522140075230300D523FCD522F506
:1020B40012002678577600D007D006D005D004D079
:1020C40003D002D001D000D0D0D082D083D0F0D0C1
:0220D400E032F8
:1030F6008F348B358A368937E4F584EA494B601C70
:10310600AB35AA36A937120BE6FFE534FD7C001273
:0C311600332FAB35AA36A937EF120C2C72
:0E3122007538140075390300D539FCD538F521
:0E3130008534997F011232A73099FDC2992291
:09328900E4F5847881EFF6D285AA
:0E3292007534140075350300D535FCD534F5C0
:0732A000900388E0F599227C
:1031BC00C9EFC9E96401701FEDC39B4027781EE677
:1031CC00FFEB2FFFE433FEEDC39FEE6480F87480B9
:1031DC00985011121F6D22B90210ED6B7006121F60
:0B31EC007A760222C20AE47859F6222B
:102FB900C9EFC9BAFF11BBFF0EED6B7002EC6A7065
:102FC90038121F7AE9F622E96401701CC3ED9BEC03
:102FD9009A4013781EE62BFFE43AFEC3ED9FEC9E60
:102FE9005004121F6D228011B90214ED6B7002ECAE
:102FF9006A7006121F7A760222C20AE47859F6220A
:10002600900288E0FF54F8F525E4F584EF120EAA55
:10003600007309007A0A008110008A1100971200E5
:10004600A41900B41A00C82000D12801262901E904
:1000560033022437024E39025E4102694902735067
:1000660002B06101B37002A898000002D5121F5AAF
:100076007F018017121F1B7F01801DD20A785976D7
:10008600030202D57862121F5C7F021231BC0202A3
:10009600D57861121F1D7F02122FB90202D5121FD9
:1000A6005A7F011231BC200A030202D5800E121FAC
:1000B6001B7F01122FB9200A030202D5121F640208
:1000C60002D2E4F58475EF100202D51207527F18AA
:1000D6001207BC7F051230F6785512073A785F1280
:1000E600073A786012074678611207467862120767
:1000F6006A786312076A7864120784E4F5267465E1
:0F0106002526F81207840526E526C3941040EF3E
:0E0115001207900075330300D533FCD532F588
:1001230002019E900289E0FFC37855965074EF75E3
:10013300F010A42514F9E51335F085122FF5308955
:10014300311207527F0D1230F6AB2FAA30A93112AC
:100153000776900001120712900002120712900016
:1001630003120726900004120726E4F526AB2FE5B9
:10017300312405F9E43530FA7E00E92526F9EE3A13
:0D018300FA1207760526E526C3940840E031
:0E0190001207900075330300D533FCD532F50D
:10019E00C285D2AC0202D59003887478F0E4A3F045
:1001AE007F020202D21233517882120DD090038850
:1001BE00747CF07882E6A3F008E6A3F008E6A3F0DC
:1001CE0008E6A3F07C007D057B017A037988122C6A
:1001DE00F190038DEFF07F060202D2900289E0FFCC
:1001EE00B4010FA3E0FDA3E0785FCDF608EDF602B3
:1001FE0002A8EFB4020A90028AE0785FF60202A823
:10020E00900289E0B4030CA3E0FFA3E07861CFF67F
:10021E0008EFF60202A8E4F526900289E0FFE52633
:10022E00C39F5016748A2526121F3FFF746525261C
:10023E00F8EFF60526E526B410DFE47874F6805A5A
:10024E001207AE900289E0FDE4FF1232220202D5BF
:10025E00900289E024FF92020202D5900289E024E6
:10026E00FF92018062785DE66005752802800B20A2
:10027E000D0575280380037528019003887479F0A5
:10028E00A3E52812079F90038AEFF07F03123289AD
:10029E00E52864017031D20E8002D208788076F1A2
:1002AE0080257A007B327D017F00123059900388C1
:1002BE007479F0900289E090038912079F90038A67
:1002CE00EFF07F03123289E52564A06003020480FB
:1002DE00900288E064A160030203A0A3E0C37855F6
:1002EE0096400302039A121F48E0FF121EBAF52829
:1002FE00EF75F010A429F9EA121ED330E22D900208
:10030E0089E01200038F28900388747FF0A3E528FC
:10031E00F024021207D1748A2528F582E43403F5FD
:10032E0083EFF0E5282403FF02047D900289E0FFAD
:10033E00120003C2ACE4F524D285E528D39406401E
:10034E0022121FAC7F7F1207BCAF281230F6E4F5E5
:10035E0026E526C3952850071206DA052680F205F3
:10036E00288018E52824781207C6E4F526E526C36A
:0B037E00952850071206DA052680F2D1
:0E0389001207EB0075330300D533FCD532F5B7
:10039700020474121F6402047D900288E064A26064
:1003A700030204807855E6FFA3E0FEC39F400302E3
:1003B700047AA3E0FDC39F400302047AEE9D400345
:1003C70002047A900289E0F526E4F52DF52E121F36
:1003D700B35017AF26120003E526121EB4252EF5DB
:1003E7002EE4352DF52D052680E4C2ACE4F524D2A4
:1003F70085FB7A0079247F7F1230F6C3E52E94803F
:10040700E52D940050028007E52D44801207C6AF02
:100417002E121FAC1230F6900289E0F526121FB398
:10042700503DE4F527121F4875F010E526121EBD52
:10043700FFE527C39F5024E526121F4F121FA678FA
:100447005DE6FF18E68FF0A42527121EEF120BFFBB
:0F045700FF121FAC1230F6052780CA052680BEA3
:0E0466001207EB0075330300D533FCD532F5D9
:10047400C285D2AC8006121F64123289E525645805
:10048400703BFA1207FA7537017538037539897BA1
:10049400017A02798912335C8F28E5282478900345
:1004A40088F0EF24011207D174892528F582E434F9
:1004B40003F583EFF0E5282402FF123289E5256471
:1004C400806009E525648860030206007859E6B473
:1004D40001051207AE8012E4F526E526C3781E96C0
:1004E40050071207DF052680F1900288E05407F5D3
:1004F40028B4070A752701A3E0F528A38006E4F5CC
:1005040027900289E0F5291528E529C378559640F6
:10051400030205EA121EB2FFE528D39F40028F288A
:100524007859E6B40109785DE6F52CF52B800312C1
:100534001FBD785DA62B785DE6D3952C400302059C
:10054400DEE4F526E526C3952840030205D3121EF2
:10055400C620E276900001120BFF64387036E5285D
:10056400D394044006121F39FD80587857E6C3958A
:1005740026FFE49400FE74862FF58274023EF58310
:10058400E0FDE52975F010A4AB122514F9E5133547
:10059400F0FA802F121EB2FF7857E6C39FFFE4944F
:1005A40000FE7C00EF2526FFEC3EFEEF2527FFEC46
:1005B4003EFE74872FF58274023EF583E0FDE52943
:1005C400121F4F121EDCED120C3E0526020548AF29
:1005D40029122A2D785D0602053A785DA62BE525B9
:1005E400648870188010E529B4FF1190028AE0F540
:1005F40020E525B48806121EF7120806E52564A82E
:1006040060030206D97859E6B401077A001207FAA2
:100614008012E4F526E526C3781E9650071207DFFC
:10062400052680F1900289E030E711547FFEA3E0B3
:10063400FDEEF52DEDF52E752703800C900289E073
:10064400752D00F52E75270274882527F582E4346C
:1006540002F583E0FF74892527F582E43402F583EB
:10066400E0F52A8F29E529D3952A5063E529C37833
:1006740055965056121EB2F5287859E6B4010978F9
:100684005DE6F52CF52B8003121FBD785DA62B7853
:100694005DE6D3952C5029E4F526E526C39528502C
:1006A40015121EC620E20B121F39FD121EDCED12BC
:1006B4000C3E052680E4AF29122A2D785D0680CFF2
:1006C400785DA62BE5282527F5270529020669125A
:0506D4001EF7120806EC
:1006D90022900289E075F010A4AB122514F9E513F4
:1006E90035F0FA90000D120E7A785DE6FF18E68F64
:1006F900F0A42526F582E435F0F583120BFFFF7B84
:10070900007A0079241230F622AB2FAA30A93112CF
:100719000BFFFF7B007A0079241230F622AB2FAA57
:1007290030A931120BFFFF7B007A0079241230F6D1
:1007390022E6FF7B007A0079241230F622E6FF7B5D
:10074900007A0079241230F622C2ACE4F524D2856D
:10075900FB7A0079247F7F1230F67B007A007924B6
:1007690022E6FF7B007A0079241230F622120BE68A
:10077900FF7B007A0079241230F622E6FF7B007AAB
:100789000079241230F6227B007A007900AF241216
:1007990030F675320A22F07C007D027B017A0379FA
:1007A90088122CF1227A007B327D01785DE6FF12F6
:1007B9003059221230F67B007A00792422FF7B001F
:1007C9007A0079241230F622FDE433FC7B017A03A6
:1007D9007988122CF1227A007B327D01AF26123002
:1007E90059227B007A007900AF241230F675320A5B
:1007F900227B327D01785DE6FF1230592290038910
:07080900F07F021232892288
:10F000007880E664F1600302F67BE4788CF608F61B
:05F010007881E6601F9D
:0EF0150075480A0075490300D549FCD548F539
:10F02300788D06E618700106788CB627E008B610CE
:10F03300DCC2AF7584015398FC75FFDE75FFADE448
:10F043007888F618F6E4F584209831E4788CF6088D
:10F05300F6209824C3788DE6948818E69413501804
:0EF0630075480A0075490300D549FCD548F5EB
:10F07100788D06E61870DC0680D9B29780CC788747
:10F08100A699C298E6FF641A600302F160788CF6D3
:10F0910008F6209824C3788DE6948818E6941350D6
:01F0A1001856
:0EF0A20075480A0075490300D549FCD548F5AC
:10F0B000788D06E61870DC0680D930988B7888A6A3
:10F0C00099C298E4788CF608F6209824C3788DE6E7
:08F0D000948818E6941350180F
:0EF0D80075480A0075490300D549FCD548F576
:10F0E600788D06E61870DC0680D920980302F04871
:10F0F6007888A699C298E4788CF608F6209824C3F6
:0BF10600788DE6948818E694135018EA
:0EF1110075480A0075490300D549FCD548F53C
:10F11F00788D06E61870DC0680D920980302F04837
:0AF12F007888A699C298D285C2998B
:0EF139007548140075490300D549FCD548F50A
:06F147007599783099FD76
:0EF14D0075480A0075490300D549FCD548F500
:10F15B00C28502F66CEF6450600302F1F7788CF60F
:10F16B0008F6209824C3788DE6948818E6941350FB
:01F17B00187B
:0EF17C0075480A0075490300D549FCD548F5D1
:10F18A00788D06E61870DC0680D920980302F048CC
:0AF19A007888A699C298D285C29920
:0EF1A4007548140075490300D549FCD548F59F
:08F1B2007599793099FDC299AD
:0EF1BA007548140075490300D549FCD548F589
:08F1C8007599013099FDC2990F
:0EF1D0007548140075490300D549FCD548F573
:06F1DE00E4F5993099FDF3
:0EF1E40075480A0075490300D549FCD548F569
:10F1F200C28502F66C7887E6FF64017041D285C24F
:01F202009972
:0EF203007548140075490300D549FCD548F53F
:08F211007599783099FDC2994E
:0EF219007548140075490300D549FCD548F529
:06F22700E4F5993099FDA9
:0EF22D0075480A0075490300D549FCD548F51F
:10F23B00C28502F66CEF6402600302F30E788CF663
:10F24B0008F6209824C3788DE6948818E69413501A
:01F25B00189A
:0EF25C0075480A0075490300D549FCD548F5F0
:10F26A00788D06E61870DC0680D920980302F048EB
:10F27A007888A699C298E408F618E6FF13B392971D
:10F28A00EF25E0FEC3E49400EE94F0502DE6FD7FF6
:10F29A000025E0FEC394E05021ED20E024E4F5844B
:10F2AA0043B701758F03788EEEF608EFF6F5828E76
:10F2BA0083E4F053B7F0F58F8004788976FFE4F59C
:05F2CA0084D285C29909
:0EF2CF007548140075490300D549FCD548F573
:08F2DD007599783099FDC29982
:0EF2E5007548140075490300D549FCD548F55D
:08F2F3007889E6F5993099FDD8
:0EF2FB0075480A0075490300D549FCD548F551
:10F30900C28502F66C7887E66403600302F46F78BD
:10F319008CF608F6209824C3788DE6948818E6942C
:03F3290013501866
:0EF32C0075480A0075490300D549FCD548F51F
:10F33A00788D06E61870DC0680D920980302F0481A
:10F34A007888A699C298E4788CF608F6209824C39F
:0BF35A00788DE6948818E69413501894
:0EF3650075480A0075490300D549FCD548F5E6
:10F37300788D06E61870DC0680D920980302F048E1
:10F38300788AA699C2987888E6FF139297EF25E0CA
:10F39300FEC3E49400EE94F0400302F048E67D00DF
:10F3A30025E0FCC394E0400302F048E4F58443B74E
:10F3B30001758F01788AE675F020A42DFFE5F03CF6
:10F3C300788EF608EFF6E4F584788BF6788BE6C34F
:10F3D3009420504DE408F608F6209824C3788DE66F
:08F3E300948818E694135018F9
:0EF3EB0075480A0075490300D549FCD548F560
:10F3F900788D06E61870DC0680D920980302F0485B
:10F40900788E0806E618CEE6CE70010614F5828ECF
:10F4190083E599F0C298788B0680ABE4F58453B7FD
:09F42900F0F58FF584D285C2993B
:0EF432007548140075490300D549FCD548F50E
:08F440007599783099FDC2991D
:0EF448007548140075490300D549FCD548F5F8
:06F45600E4F5993099FD78
:0EF45C0075480A0075490300D549FCD548F5EE
:10F46A00C28502F66C7887E6FD6404600302F53013
:10F47A00788CF608F6209824C3788DE6948818E6E6
:04F48A00941350186F
:0EF48E0075480A0075490300D549FCD548F5BC
:10F49C00788D06E61870DC0680D920980302F048B7
:10F4AC007888A699C298E625E07890F608E4F67874
:10F4BC0089F6788CF608F678900806E618CEE6CE33
:10F4CC0070010614F5828E83E493788926F6788D84
:10F4DC0006E618700106788DE6700418E664027072
:05F4EC00D6D285C29993
:0EF4F1007548140075490300D549FCD548F54F
:08F4FF007599783099FDC2995E
:0EF507007548140075490300D549FCD548F538
:08F515007889E6F5993099FDB3
:0EF51D0075480A0075490300D549FCD548F52C
:10F52B00C28502F66CED6405600302F660788CF61A
:10F53B0008F6209824C3788DE6948818E694135027
:01F54B0018A7
:0EF54C0075480A0075490300D549FCD548F5FD
:10F55A00788D06E61870DC0680D920980302F048F8
:10F56A007888A699C298E4788CF608F6209824C37D
:0BF57A00788DE6948818E69413501872
:0EF5850075480A0075490300D549FCD548F5C4
:10F59300788D06E61870DC0680D920980302F048BF
:0AF5A300788AA699C298D285C29911
:0EF5AD007548140075490300D549FCD548F592
:08F5BB0075997F3099FDC2999A
:0EF5C3007548140075490300D549FCD548F57C
:10F5D1007599203099FD7888E625E0FC788AE675F2
:10F5E100F020A42400FFE5F03C7890F608EFF6E463
:08F5F1007889F6788BF6C299C7
:0EF5F9007548140075490300D549FCD548F546
:10F607007890E6FE08E6F5828E83E493F5993099C3
:10F61700FD78900806E618CEE6CE70010614F5824E
:10F627008E83E493788926F6788B06E6B420C1C2E8
:01F637009939
:0EF638007548140075490300D549FCD548F506
:08F646007889E6F5993099FD81
:0EF64E0075480A0075490300D549FCD548F5FA
:10F65C00C285800C7887E6B40606E4F58475EF1055
:0FF66C007887E66407600302F0487880F6D2AF33
:01F67B00226C
:102E4D007F001232A720090B7A007B327D017F00B3
:102E5D00123059300C0B7A007B1E7D017F00123031
:102E6D0059300817300D147A007B327D01785DE6FC
:102E7D00FF123059C208122AC9D209200B0C300D8D
:102E8D0009788076F1122AC9D20B300E08300D0563
:102E9D00C20E12F000200D12123346E47B2C7A0183
:0B2EAD00F9F8C3120D215002D20D22D3
:0B333B00121260122E4D12317F80F83C
:1022EB00005EBCE2613FDD83C29C7E20A3FD1F41EB
:1022FB009DC3217FFCA2401E5F01E3BD3E6082DCDB
:10230B00237D9FC1421CFEA0E1BF5D0380DE3C62CA
:10231B00BEE0025CDF81633D7C22C09E1D43A1FFBA
:10232B004618FAA427799BC584DA3866E5BB5907AA
:10233B00DB856739BAE406581947A5FB7826C49A9A
:10234B00653BD987045AB8E6A7F91B45C6987A248A
:10235B00F8A6441A99C7257B3A6486D85B05E7B97A
:10236B008CD2306EEDB3510F4E10F2AC2F7193CD6A
:10237B00114FADF3702ECC92D38D6F31B2EC0E505A
:10238B00AFF1134DCE90722C6D33D18F0C52B0EE4A
:10239B00326C8ED0530DEFB1F0AE4C1291CF2D733A
:1023AB00CA947628ABF517490856B4EA6937D58B2A
:1023BB005709EBB536688AD495CB2977F4AA48161A
:1023CB00E9B7550B88D6346A2B7597C94A14F6A80A
:1023DB00742AC896154BA9F7B6E80A54D7896B35FA
:0A23EB00000060B0CBD8E5F3F70066
:03332B0001750A1F
:10276F00A815E6FF25E025E024CCF582E43403F537
:10277F008322E53FAB12AA13A91475F010A4F582BA
:10278F0085F083020BFFEF25E025E024CAF582E4F4
:10279F003403F58322A8150808E624FF22EF25E06D
:1027AF0025E024C9F582E43403F583221515A81515
:1027BF00EDF61515A815EFF62225E025E024CBF54B
:1027CF0082E43403F58322EF2401FFE43EFEE43D6F
:1027DF00FDE43CFC120DDC9003C82275F010A42917
:1027EF00F9EA35F0FA90000D120E7A785CE622784D
:1027FF0075E675F064A4FFC37877E69F18E695F049
:10280F0022A815E6FFC3940822120C962400FFE5B8
:0B281F00F034E02215151515A8152255
:1032F00074FFF511F510F50FF50EAF11AE10AD0F0F
:02330000AC0E11
:0133020022A8
:102CF100122823ECF608EDF61515122823120E7191
:062D0100E51524FCF515A8
:102D0700F80808E4F6A815F608F6E5152407F9A863
:102D170015E6FE08E6FFC3099719E76480F8EE6435
:102D270080985031E5152404F8120E588F828E834F
:102D3700120BFFA815080866FFE5152403F8EFF640
:102D4700E69022EB93A8150808F6A8150806E618DA
:0B2D570070B80680B5A8150808E6FF5C
:072D6200E5152409F5152217
:0B332F00ED6F7886F6E69022EB93FF2E
:01333A002270
:10322200EF7023F5847598D0F584759115F5847542
:10323200C90875CBFFED9023EA93F5CA75C804E47B
:08324200F584D2ACC2BCD2AF8E
:01324A002261
:10313E009003E9120E01000000009003ED120E0143
:10314E00000000009003C87464F0E47887F6788776
:10315E00E6FFC3940850191227ACE4F0122795E449
:10316E00F0EF1227C8E4F0EF122773E4F00680DECA
:01317E00222E
:10324B00D2AFD2A9C2BBE4F584E589540F4401F592
:0F325B0089758E02758CECE4F58AD28C02313EB7
:022D690015153E
:102D6B00A815E4F61228105067EF122773E0FFD373
:102D7B0094004046E6122796E0703FEF30E00D12CC
:102D8B002771E0D3940140047D0080067D01A815D6
:102D9B00E6FF12298D12276FE0B401057D01122980
:102DAB008D12276FE014F0EF122773E0600CE6FF33
:102DBB001227C8E0FE122795EEF0A815E6FF1227A2
:102DCB0096E06006122795E014F0A81506022D6F09
:032DDB00051522B9
:03000B00022DDEE5
:102DDE00C0E0C0F0C083C082C0D0E8C0E0E9C0E06F
:102DEE00EAC0E0EBC0E0ECC0E0EDC0E0EEC0E0EF2A
:102DFE00C0E0758CEC9003E9120D8B9003E912275D
:102E0E00D6E014F0E0700F9003ED120D8B9003EDF1
:102E1E001227D67464F0122D691232DCD0E0FFD086
:102E2E00E0FED0E0FDD0E0FCD0E0FBD0E0FAD0E058
:0F2E3E00F9D0E0F8D0D0D082D083D0F0D0E032FD
:1032C2001227BB122810500D08E6FE1227ACEEF0B2
:0A32D2007D0012298D051505152257
:10305900122823EAF608EBF61227BB12281050387B
:10306900EF122773E07031E6FB122796E07029080A
:10307900E625E004FFA815E6FA122773EFF0080821
:10308900E6FE08E6FF7C007D0A120C60EA1227C8FA
:0F309900EFF0EB122796E4F0E5152404F515226D
:05298D001227BB151527
:10299200A81508E6FFC3940850191227ACE060138B
:1029A200A8150808E670047F0180027F00A81508B8
:1029B20008EFF6A815A68475840FA81508E6FF701F
:1029C200071227A492978057EFB401071227A49207
:1029D20096804CA81508E6FFB402071227A4929528
:1029E200803DEFB403071227A492948032A8150801
:1029F200E6FFB404071227A492938023EFB40507DD
:102A02001227A492928018A81508E6FFB4060712AE
:102A120027A492918009EFB407051227A49290A8E7
:042A220015E6F5843C
:072A26000515051505152239
:0A334600C2AF9003E9120D8BD2AF65
:01335000225A
:0A335100C2AF9003ED120D8BD2AF56
:01335B00224F
:1032A7001227C1A815E670057876F608F6300F08DC
:0B32B7001227FE500375FFA50515222D
:10326A00D20FE47876F608F6EF78756003F68002F6
:0F327A00760A75FF0775FFA5E4F58475EF04224A
:10330300C20FE47876F608F6787576FF75FFDE75FA
:03331300FFAD22E9
:1032DC00787706E618700106300F081227FE5003A7
:0432EC0075FFA522A3
:0431F7008E488F4926
:1031FB00E4F54AF54BC3E54B9549E54A954850161E
:10320B007FE87E03122EB87F011232A7054BE54BE8
:06321B0070E3054A80DFAC
:01322100228A
:042EB8008E4E8F4F5C
:102EBC00D3E54F94FAE54E94005011AF4FEFD394F5
:102ECC00004041007E0300DEFD1F80F1854E5085E1
:102EDC004F51D3E55194FAE550940040157FFA7E9A
:102EEC0000122EB874062551F55174FF3550F5506B
:102EFC0080E0D3E54F9400E54E94004007AF51AE0F
:042F0C0050122EB879
:012F1000229E
:083009008B468A4789488D4976
:103011007F011232A7AB4AAA4BA94C122818FE8590
:10302100464D85474E85484FE4FDEDC39549501BFC
:10303100EF2DF582E43EF583E493AB4DAA4EA94F03
:103041008D82758300120C3E0D80DFAB4AAA4BA91D
:083051004CE48549F0020CC1BA
:082BED008B4E8A4F89508D5177
:102BF5007880E664F17076123303C2AFE4F584435E
:102C0500B701758F01AB52AA53A9541228187887BA
:102C1500F608EFF6AB4EAA4FA950788B120E71E469
:102C25007889F67889E6C395515029788BE475F053
:102C350001120E61120BE6788AF6E6FF7887080620
:102C4500E618CCE6CC70010614F5828C83EFF0789B
:102C5500890680CFE4F58F53B7F0AB52AA53A95438
:0D2C65008551F0120CC1D2AFE4FF12326AAB
:012C7200223F
:1030A8007880E664F17046C2AF123303E4F58443D6
:1030B800B701758F03788876E008F67887F6788800
:1030C800E6FE08E6F5828E83E4F07F011232A778E7
:1030D80089E426F618740236F61806E6C394084002
:0D30E800DDE4F58F53B7F0D2AFFF12326A6E
:0130F50022B8
:102AC9001230A8E4F54CF54DF55275530075544C88
:102AD900FB7A00795F7D16122BED122B45F549E53E
:102AE90049C3781E96504EE4F548E548122783609D
:102AF90040E5481227EA8549F0A429F9EA35F0FAB0
:102B0900EBC0E0EAC0E0E9C0E0AB12AA13A9147572
:102B1900F010E54812278CFD755200755300755465
:102B29004CD0E0F9D0E0FAD0E0FB122BED0548805B
:0B2B3900B9054980AA122B457880F6F0
:102B440022754A12754B3475520075530075544CF6
:0D2B54007B007A00794A7D02122BEDE4220D
:02282A008F3EDF
:10282C00E4F544F545F541F54A754B00754C44FB10
:10283C007A00795F7D161230091228C47004E542C3
:10284C0064127003434101E4F540E540C3781E96E1
:10285C005055E4F53F1227816048E53E6033E53F73
:10286C001227EA8540F0A429F9EA35F0FAEBC0E02A
:10287C00EAC0E0E9C0E0122781FD754A00754B0003
:10288C00754C44D0E0F9D0E0FAD0E0FB123009806E
:10289C000C1227812545F545E43544F544053F02E6
:1028AC00286105400228561228C47004E5426412BF
:0728BC007003434102AF412C
:1028C30022754A00754B00754C447B007A007942AF
:0A28D3007D02123009E5436434224F
:10081000020BD1E86480F8E933E83360110460F03A
:10082000ED33EC337009E8FCE9FDEAFEEBFF22044E
:1008300060DED3EB9FEA9EE99DE8C2E78CF0C2F749
:1008400095F0400CE8CCF8E9CDF9EACEFAEBCFFB15
:10085000120B9C85D0F05804700320D5B3E80470C7
:10086000075002B2D5020BDB92D5EC0460F7E4CC62
:10087000C0E0C398F8603B94186008400DD0E0FBDE
:10088000020BB3E4FBFAC9FC8028E830E406E4C9B3
:10089000FBE4CAFCE830E305E4C9CACBFCE8540732
:1008A0006010F8C3E913F9EA13FAEB13FBEC13FC3D
:1008B000D8F130F52FC3E49CFCEF9BFFEE9AFEEDE0
:1008C00099FDD0E0FBEF4E4D4C701222DB03020B82
:1008D000D8EC2CFCEF33FFEE33FEED33FDED30E7CB
:1008E000EB020BB3EF2BFFEE3AFEED39FDD0E0FB50
:1008F00050130BBB0003020BDBED13FDEE13FEEFF9
:0809000013FFEC13FC020BB322
:10090800EC4D6011E8497017ED33EC3304600DE4E9
:10091800FCFFFEFD22E933E8330470F8020BD11224
:100928000B9C58046009E4CC248150062850090225
:100938000BDB284003020BD8C0E0EB4A7044B980B7
:1009480006D0E0FB020BC7EF4E701CBD8008EBFF22
:10095800EAFEE9FD80EBE98DF0A4FEE5F00209F17D
:10096800E9CDF9EAFEEBFFEF89F0A4FCE5F0CE89CA
:10097800F0A42EFFE435F0CD89F0A42DFEE435F087
:100988008067EF4E7005BD80D780C3EF8BF0A4ACB5
:10099800F0EE8BF0A42CFCE435F0F8EF8AF0A42CF0
:1009A800E5F038FCE433CB8DF0A42CFCE5F03BF803
:1009B800EE8AF0A42CFCE5F038F8E433CF89F0A4F3
:1009C8002CFCE5F038CF3400CE89F0A42FFFE5F0F9
:1009D8003EFEE433C98DF0A42EFEE5F039CD8AF051
:1009E800A42FFFE5F03EFEE43DFD33D0E0FB5007C9
:1009F8000BBB000F020BDBEC2CFCEF33FFEE33FEDE
:060A0800ED33FD020BB30B
:100A0E00020BDBEC5D046005E859047003020BD1A8
:100A1E00120B9C580460F6EC4860F2EC7004FDFE7C
:100A2E00FF22C860DB2481C85009C39860025006BB
:100A3E00020BD89850CAF582E9294B4A7005AB8251
:100A4E00020BC775F0007C1A7880C3EF9BEE9AED0F
:100A5E0099400DC3EF9BFFEE9AFEED99FDE842F033
:100A6E00DC23ACF0D0E0FFD0E0FED0E0FDAB822086
:100A7E00E7101BEB60BAEC2CFCEF33FFEE33FEED10
:100A8E0033FD020BB3E803F830E705C0F075F00054
:100A9E00EF2FFFEE33FEED33FD40B830E7C280AAF4
:100AAE0074F8CC6480CCC86480C8F58204604FC3EF
:100ABE00EB9FF5F0EA9E42F0E99D42F0E89C45F08E
:100ACE00603C501DE5825FFFE582D313CB5BCBF418
:100ADE002B5582FB50280ABA002409B90020088041
:100AEE001DE5825BFBE582D313CF5FCFF4C3132FDB
:100AFE005582FF50090EBE00050DBD00010CC3EB63
:100B0E009FF5F0EA9E42F0E99D42F0E89C45F060C8
:090B1E0007CC4820E701B3EC22EA
:100B270075F020800E75F010800575F0087D007E49
:100B3700007F003392D530D503120D13EC334010EC
:100B4700EF33FFEE33FEED33FDEC33FCD5F0ED2252
:0E0B5700E5F0247EA2D513CC92E7CDCEFF228E
:100B6500EDD2E7CD33EC3392D524814006E4FFFE88
:100B7500FDFC22FCE4CFCECDCC24E0501174FF80E7
:100B8500EDC3CC13CCCD13CDCE13CECF13CF047084
:070B9500F030D5DE020D1364
:0D331600ED33EC3360065004EC6480FC22C3
:1028DD008F4B8E4A8D498C4874FFFFFEFDFCAB4B30
:1028ED00AA4AA949A848C3120D21602C7F807E9663
:1028FD007D187C4BAB4BAA4AA949A848120AAE6079
:10290D000250157F807E967D187CCBAB4BAA4AA9D1
:10291D0049A848120AAE5009AF4BAE4AAD49AC4872
:10292D0022AF4BAE4AAD49AC48120B658F4F8E4E60
:10293D008D4D8C4CEC120B27C8ECC8C9EDC9CAEEF5
:10294D00CACBEFCBAF4BAE4AAD49AC48120813E43E
:10295D00FBFAF9F8120AAE601A401874FF254FF50C
:10296D004FE54E34FFF54EE54D34FFF54DE54C3456
:10297D00FFF54CAF4FAE4EAD4DAC4CEC120B2722CC
:100B9C00E9D2E7C933E833F892D5EDD2E7CD33EC9F
:070BAC0033FC5002B2D52218
:100BB300EC30E7100FBF000C0EBE00080DBD0004A3
:100BC3000BEB6014A2D5EB13FCED92E7FD2274FF4F
:100BD300FCFDFEFF22E480F8A2D574FF13FC7D80A8
:030BE300E480EFBC
:03000000022B616F
:0C2B6100787FE4F6D8FD758191022BA866
:100BE600BB010689828A83E0225002E722BBFE020D
:090BF600E32289828A83E4932240
:100BFF00BB010CE58229F582E5833AF583E02250AB
:100C0F0006E92582F8E622BBFE06E92582F8E222F4
:0D0C1F00E58229F582E5833AF583E493220E
:100C2C00BB010689828A83F0225002F722BBFE01A7
:020C3C00F322A1
:100C3E00F8BB010DE58229F582E5833AF583E8F0EC
:100C4E00225006E92582C8F622BBFE05E92582C898
:020C5E00F22280
:100C6000C2D5EC30E709B2D5E4C39DFDE49CFCEEAF
:100C700030E715B2D5E4C39FFFE49EFE120EFCC31D
:100C8000E49DFDE49CFC8003120EFC30D507C3E418
:060C90009FFFE49EFE221E
:100C9600BB010A89828A83E0F5F0A3E02250068729
:100CA600F009E71922BBFE07E3F5F009E3192289EB
:0B0CB600828A83E493F5F0740193221E
:100CC100BB010789828A83020F51500B09C5F027A6
:100CD100F7C5F01937F722BBFE0D09F8E325F0F34C
:100CE100C5F019E338F322F889828A8374019325C8
:080CF100F0C5F0F8E49338228D
:0D0CF900EF2BFFEE3AFEED39FDEC38FC224A
:0D0D0600EF4BFFEE4AFEED49FDEC48FC22EC
:0E0D1300C3E49FFFE49EFEE49DFDE49CFC22F1
:100D2100EB9FF5F0EA9E42F0E99D42F0E89C45F028
:010D3100229F
:100D3200E8600FEFC333FFEE33FEED33FDEC33FC1F
:030D4200D8F122C3
:100D4500BB010789828A83020D8B5005E9F8020DE4
:100D55007FBBFE05E9F8020F6789828A83020F735C
:100D6500BB010789828A83020DDC5005E9F8020D73
:0A0D7500D0BBFE05E9F8020FA02232
:0C0D7F00E6FC08E6FD08E6FE08E6FF22A0
:0C0D8B00E0FCA3E0FDA3E0FEA3E0FF22DB
:0D0D9700E6FB08E6F908E6FA08E6CBF822CC
:0C0DA400E0F8A3E0F9A3E0FAA3E0FB22D2
:100DB000BB010789828A83020DA45005E9F8020D60
:100DC00097BBFE05E9F8020F8389828A83020F90A0
:0C0DD000ECF608EDF608EEF608EFF6224F
:0C0DDC00ECF0A3EDF0A3EEF0A3EFF0228A
:100DE800D083D082E493F608740193F608740293D2
:090DF800F608740393F674047309
:100E0100A8828583F0D083D082120E18120E181298
:100E11000E18120E18E473E493A3C583C5F0C583BD
:100E2100C8C582C8F0A3C583C5F0C583C8C582C83B
:010E3100229E
:100E3200BB010789828A83020E015005E9F8020D7F
:0A0E4200E8BBFE05E9F8020FAC2240
:0C0E4C00A42582F582E5F03583F58322B1
:090E5800E6FB08E6FA08E6F922BF
:100E6100FAE6FB0808E6F925F0F618E6CA3AF62292
:090E7100EBF608EAF608E9F622A6
:100E7A00BB010DE58229F582E5833AF583020FC5A8
:100E8A005007E92582F8020E58BBFE07E92582F8C9
:100E9A00020FCEE58229F582E5833AF583020FD760
:100EAA00D083D082F8E4937012740193700DA3A3D7
:100EBA0093F8740193F5828883E4737402936860EB
:060ECA00EFA3A3A380DFEB
:102F67008B3E8A3F8940E4F546F547E5451545AE72
:102F770044700215444E6033AB41AA42A943120B79
:102F8700E6FFAB3EAA3FA9400547E547AC467002BE
:102F9700054614F5828C83EF120C3EEF60CD740169
:102FA7002543F543E43542F54280C0AB3EAA3FA92D
:022FB7004022B6
:102F11008B418A4289438B448A458946AB44AA4501
:102F2100A946120BE6600D74012546F546E43545C8
:102F3100F54580E8AB44AA45A946120BE66D700140
:102F410022E5461546AA4570021545F9E541854237
:102F51008385438265447008E965827003EA65836D
:062F610070D2FBFAF92218
:100ED000EF4E6012EF60010EEDBB010B89828A8339
:100EE000F0A3DFFCDEFA2289F05007F709DFFCA946
:0C0EF000F022BBFEFCF309DFFCA9F0229D
:102B6D0002333BE493A3F8E493A34003F68001F210
:102B7D0008DFF48029E493A3F85407240CC8C33369
:102B8D00C4540F4420C8834004F456800146F6DF38
:102B9D00E4800B0102040810204080903323E47E72
:102BAD00019360BCA3FF543F30E509541FFEE4932D
:102BBD00A360010ECF54C025E060A840B8E493A3F4
:102BCD00FAE493A3F8E493A3C8C582C8CAC583CA1F
:102BDD00F0A3C8C582C8CAC583CADFE9DEE780BED7
:01332E00009E
:100EFC00BC000BBE0029EF8DF084FFADF022E4CCDA
:100F0C00F875F008EF2FFFEE33FEEC33FCEE9DECA2
:100F1C00984005FCEE9DFE0FD5F0E9E4CEFD22EDE8
:100F2C00F8F5F0EE8420D21CFEADF075F008EF2F32
:100F3C00FFED33FD4007985006D5F0F222C398FD23
:050F4C000FD5F0EA22C0
:100F5100C5F0F8A3E028F0C5F0F8E582158270022B
:060F61001583E038F022C8
:0C0F6700E2FC08E2FD08E2FE08E2FF22C6
:100F7300E493FC740193FD740293FE740393FF22C4
:0D0F8300E2FB08E2F908E2FA08E2CBF822EE
:100F9000E493F8740193F9740293FA740393FB22B7
:0C0FA000ECF208EDF208EEF208EFF2228D
:100FAC00D083D082E493F208740193F20874029314
:090FBC00F208740393F27404734B
:090FC500E0FBA3E0FAA3E0F9222D
:090FCE00E2FB08E2FA08E2F92254
:0C0FD700E493FB740193FA740293F92276
:00000001FF
