:0F1804005355424D5F3235300024526576240033
:10179600900040F07B017A007940227A007B327D0E
:0417A600017F01229C
:10110E0012181375E10175E24075A49075D40C7533
:10111E00F1F375A602E4F5B143B203F5B943B98014
:10112E00FF0FBF64FC43B9C0E5B930E5FB75FF8026
:10113E00E5FF30E6FB121760C2907D08E4FF121740
:10114E003FD2BC7F001211697F011211697D017FB0
:0B115E00001217D07F017E00021292E9
:0A1169007A007B967D031213952295
:03002300020CC705
:100CC700C0E0C083C082C0D075D008309954C299A3
:100CD7000511E511C395125033E511C39405500C66
:0E0CE70074122511F8E66004D29B8002C29BB5
:0E0CF5007521140075220300D522FCD521F5CF
:100D030074002511F582E43400F583E0F59980162B
:0E0D130075210A0075220300D522FCD521F5BA
:100D2100C29075120075110030981AC374809482B4
:100D31005011AF10051074402FF582E43400F58393
:0E0D4100E599F0C298D0D0D082D083D0E032B5
:1012EB00900001E0FFB4200375EF10EF6461702CE8
:1012FB007BFF7A1879131209338E3E8F3F1217A199
:10130B001213959000407478F0A37405F0E53EA39A
:10131B00F0E53FA31217997D0412087B900001E0C2
:10132B00FFB41002B293EFB4410A74781217967D92
:04133B000112087B18
:01133F00228B
:040B22008F388D3942
:100B2600E4F510E53930E4061212EB7F00227E0070
:100B36007F047D007B007A007913120254E5393078
:100B4600E01C753A01E53AC395385012E53AC3946C
:100B560005500B7412253AF87601053A80E7E53917
:100B660030E524900001E0B41005753B0280037562
:100B76003B04E4F53AE53AC3953B500B7413253A2A
:100B8600F87601053A80EEE51324FF929B8538122C
:0E0B9600753C1400753D0300D53DFCD53CF5C3
:0D0BA400D290900001E0F5997511017F01DC
:010BB1002221
:10030B00EF30E10302048EEF30E208753F007540D9
:10031B00048012EF30E308753F7575403080067529
:10032B003F00754064E4F538F541F542F539F53A8F
:10033B00C3E53A9540E539953F400302047AAF1087
:10034B007E00EF9542EE95414009E4F539F53AF51B
:10035B00418F42900001E0FF641A6005EF641A7050
:10036B000FE51064017009900040E0B4780280231F
:10037B00900001E0FF64A1600DEF640A702690000D
:10038B0005E064A1701EE51064017018900040E058
:10039B00B478111217A112139512179A7D01120836
:1003AB007B02047AE510D39400500302046390009F
:1003BB0040E0FF547864786003020463EF5407F560
:1003CB00386407701FE510D394014018A3E0240391
:1003DB00F53830E713E510D39402400CA3E0240466
:1003EB00F538800405380538E5106538706AFA125F
:1003FB0017A3121395E4F53BF53CAF387E00C3E52C
:10040B003C9FE53B9E5068C3EF953CFFEE953BFE52
:10041B00EF643C4E7007F53D753E3D801DD3EF9468
:10042B003CEE940040067E007F3C800AC3E5389585
:10043B003CFFE4953BFE8E3D8F3E7440253CF974AA
:10044B0000353BFA7B01AD3E12087B743C253CF535
:10045B003CE4353BF53B80A27F0012177C7F647E2A
:10046B0000121292053AE53A7002053902033BE598
:10047B003AB5400FE539B53F0A74FF1217967D0167
:03048B0012087BD9
:01048E00224B
:1007BE00E4F537F536F535F53412110E753B007547
:1007CE003C00753D177B017A007900121235E4F575
:1007DE00177F021217E27F0012177C12183DE47B7E
:1007EE002C7A01F9F8C312015B500375EF86E517F9
:1007FE0060E412183D8F378E368D358C347A007B3F
:10080E00327D017F00121395E51764017020900070
:10081E0000E0701A7BFF7A18790412000EEF04FDC7
:10082E007BFF7A18790412087BE4F51780A89000F4
:10083E0000E0F533851712AD33AF12120B22EF60C5
:10084E0026E51260077F0012177C80F5AF33120386
:10085E000B900001E0B4100F900003E0B43908A330
:0D086E00E0FDE4FF12173FE4F5170207E478
:1005D900005EBCE2613FDD83C29C7E20A3FD1F411A
:1005E9009DC3217FFCA2401E5F01E3BD3E6082DC0A
:1005F900237D9FC1421CFEA0E1BF5D0380DE3C62FA
:10060900BEE0025CDF81633D7C22C09E1D43A1FFE9
:100619004618FAA427799BC584DA3866E5BB5907D9
:10062900DB856739BAE406581947A5FB7826C49AC9
:10063900653BD987045AB8E6A7F91B45C6987A24B9
:10064900F8A6441A99C7257B3A6486D85B05E7B9A9
:100659008CD2306EEDB3510F4E10F2AC2F7193CD99
:10066900114FADF3702ECC92D38D6F31B2EC0E5089
:10067900AFF1134DCE90722C6D33D18F0C52B0EE79
:10068900326C8ED0530DEFB1F0AE4C1291CF2D7369
:10069900CA947628ABF517490856B4EA6937D58B59
:1006A9005709EBB536688AD495CB2977F4AA481649
:1006B900E9B7550B88D6346A2B7597C94A14F6A839
:1006C900742AC896154BA9F7B6E80A54D7896B3529
:0A06D90000000000306498CCDDEF53
:03000300019B0A54
:10103D00151EA81EEDF6151EA81EEFF6A81EE6FF3E
:10104D00C3940222A81EE6FF25E025E02496F8228F
:10105D00A81EE625E025E02494F822EF2401FFE404
:10106D003EFEE43DFDE43CFC120178789222789B33
:10107D00E675F064A4FFC3789DE69F18E695F0220F
:10108D00EF25E025E02493F822EF25E025E02495D7
:09109D00F822151E151EA81E22E2
:1017AA0074FFF554F553F552F551AF54AE53AD529B
:0217BA00AC5130
:0117BC00220A
:100F500012109FECF608EDF6151E12109F1201B646
:060F6000E51E24FCF51E55
:100F6600F80808E4F6A81EF608F6E51E2407F9A810
:100F76001EE6FE08E6FFC3099719E76480F8EE64EB
:100F860080985031E51E2404F812019D8F828E83CD
:100F960012005FA81E080866FFE51E2403F8EFF698
:100FA600E69005D993A81E0808F6A81E0806E618B6
:0B0FB60070B80680B5A81E0808E6FF12
:070FC100E51E2409F51E22C4
:0B183100ED6F781FF6E69005D993FFDD
:01183C002289
:10173F00EF701B7598D0E589540F4420F589438EBF
:10174F0008ED9006D893F58DD28ED2ACC2BCD2AF35
:01175F002267
:1015EE00789E1201840000000078A212018400008F
:1015FE00000078927664E478A6F678A6E6FFC394A7
:10160E0002501B12108DE4F6EF121060E4F6121069
:0E161E0096E4F6EF121055E4F678A60680DC8E
:01162C00229B
:10176000D2AFD2A9C2BBE589540F4401F589758E69
:0C17700002758CECE4F58AD28C0215EEB8
:02117300151E47
:10117500A81EE4F61210495056EF121055E6FFD39B
:101185009400403E12105DE67038EF30E00D12100D
:1011950051E6D3940140047D0080067D01A81EE63A
:1011A500FF12162D121051E6B401057D0112162D00
:1011B50012105116E6600B121096E6FEEF12106043
:0F11C500EEF612105DE6600116A81E0602117903
:0311D400051E22D3
:03000B000210A63A
:1010A600C0E0C0F0C083C082C0D0E8C0E0E9C0E0C4
:1010B600EAC0E0EBC0E0ECC0E0EDC0E0EEC0E0EF7F
:1010C600C0E0758CEC789E12016C789E1210681642
:1010D600E6700C78A212016C78A21210687664127F
:1010E60011731217F4D0E0FFD0E0FED0E0FDD0E09F
:1010F600FCD0E0FBD0E0FAD0E0F9D0E0F8D0D0D0D8
:0811060082D083D0F0D0E0326A
:1017D00012103D500808E6FE12108DEEF6051E05AB
:0217E0001E22C7
:1013950012109FEAF608EBF612103D503EEF1210C0
:1013A50055E67037A81EE6FB121060E6702DA81EE4
:1013B50008E625E004FFA81EE6FA121055EFF6A888
:1013C5001E0808E6FE08E6FF7C007D0A1200C0EA5A
:1013D500121097EFF6EB121060E4F6E51E2404F503
:0213E5001E22C6
:10162D0012103D501712108DE66011A81E08E670BD
:10163D00047F0180027F00A81E08EFF6A81EE6FFBA
:10164D00700808E624FF9292800CEFB40108A81EE2
:0B165D0008E624FF9293051E051E22E4
:09183D00C2AF789E12016CD2AF1B
:01184600227F
:09184700C2AF78A212016CD2AF0D
:011850002275
:10177C00151EA81EEFF6A81EE67005789CF608F656
:0A178C0012107B5002B2A1051E22CC
:1017E200D200E4789CF608F6EF789B6002F6227647
:0217F2000A22C9
:0F181300C200E4789CF608F6789B76FFF5D922A0
:1017F400789D06E61870010612107B5002B2A122F1
:041714008E558F5609
:10171800E4F557F558C3E5589556E55795555016CD
:101728007FE87E031212927F0112177C0558E55854
:0617380070E3055780DF9D
:01173E002288
:041292008E438F44B4
:10129600D3E54494FAE54394005011AF44EFD39458
:1012A600004041007E0300DEFD1F80F18543458539
:1012B6004446D3E54694FAE545940040157FFA7E08
:1012C6000012129274062546F54674FF3545F5451B
:1012D60080E0D3E5449400E54394004007AF46AE72
:0412E6004512129209
:0112EA0022E1
:100D4F001201000200000040C410751100000102E2
:100D5F00000109022000010100800F0904000002B8
:100D6F000000000007058102400020070502024035
:100D7F000001040309041803500053004900200028
:100D8F0053002E00200052006900740074002E03DF
:100D9F004D005300430042002000530075006200D5
:100DAF006D00610073007400650072002000530035
:100DBF00430053002D00320035003000FF0D81FF3E
:050DCF000D85FF0D9DE4
:1009E100E6F52518E608F618A62522AB4CAA4DA96E
:1009F1004E22AB47AA48A94922AB2FAA30A9318F71
:100A0100828E83E59702009E75960E120046F59739
:100A11002290000512005F6403229000011200F68B
:100A2100FDACF0120046FF227B00788D1201B678F2
:100A31008876000822786AE6FC08E6FDD3EF9DEE91
:100A41009C22AB25AA26A927227868E6FE08E6FFA4
:100A510022AC9775960EEF54EFF59722900001E4C2
:100A610002012E900D60E493FD7867E622E4789010
:100A7100F608F62275961175974022E4F608F608F5
:050A8100F6087640229A
:10123500759601759708E59620E7FB7596077597EE
:101245000FE59620E7FB75960975970FE59620E75C
:10125500FB75960B759704E59620E7FB75D7C0439C
:10126500D72075960F759780E59620E7FB43E60234
:10127500D2AF759601E4F597E59620E7FB8B1B8ABF
:0D1285001C891D853B18853C19853D1A22EA
:03004300020FC8E1
:100FC800C0E0C0F0C083C082C0D075D000C000C0EF
:0D0FD80001C002C003C004C005C006C00770
:100FE500759686E59620E7FBAF97759682E5962080
:100FF500E7FB859723759684E59620E7FB8597247F
:10100500EF30E2031213E7E52330E00312048FE526
:0D1015002430E2097B007A00796C1206E3BA
:10102200D007D006D005D004D003D002D001D00022
:0B103200D0D0D082D083D0F0D0E032CC
:1013E700E4FFF52575260075277AFE7825E475F064
:1013F700011201A6E412008C0EBE0DEFE4787BF615
:1014070008F6787EF6788CF67887F6788AF6087686
:1014170040785E7603785AF608F678717603786D29
:0D142700F608F67596018F97E59620E7FB15
:011434002295
:10048F00E4F52575960EF597E59620E7FB759691A1
:10049F00E59620E7FBAF97EF30E40F759611759750
:1004AF0080E59620E7FBE4788CF6EF30E20F759647
:1004BF0011E4F597E59620E7FBE4788CF6EF20E062
:1004CF00030205727B007A0079647D087C00E4FFEB
:1004DF0012143578691209E1181209E1786B1209C3
:1004EF00E17864E654F02480603324807058786596
:1004FF00E614601A24FE601124FA601724FE6018B7
:10050F002406704212151C8041121668803C121688
:10051F00A380371216DE80321211D7802D7865E650
:10052F0024FA601124FE601224FE6013240A701452
:10053F00120E568015120DD48010121565800B12F5
:10054F0015AB80068000788C7602752540788CE696
:10055F00B40205432520E4F6759611852597E59697
:10056F0020E7FBE4F525788CE66401705C7888E67B
:10057F00FE08E6FFD39440EE9400500F8F26E41848
:10058F00F608F6432508788CF6800E752640788994
:10059F0074C026F61874FF36F6788D12019DE52685
:1005AF00FD7C007F00120C3E788D12019D7E00E9CC
:1005BF002526F9EE3AFA788D1201B6432502759683
:0905CF0011852597E59620E7FB54
:0105D8002200
:10151C007869E61846700D786BE618467006787B8D
:10152C00E6B402047F02802CE4F5967867E6F59722
:10153C00E59620E7FB787BE670097867E66004782F
:10154C007B7601787BE6B401097867E67004787BDA
:08155C007601E4FF788CA6077C
:011564002264
:10166800786BE61846700F787BE6600AB401077855
:1016780069E6184660007864E6541F24FE60062474
:10168800027F0280117867E618467008120A4A122B
:0A169800148380027F02788CA607FD
:0116A2002225
:1016A300786BE61846700F787BE6600AB40107781A
:1016B30069E6184660007864E6541F24FE60062439
:1016C300027F0280117867E618467008120A4A12F0
:0A16D30014D080027F02788CA60775
:0116DD0022EA
:1016DE007869E61846700C786BE618467005787BCC
:1016EE00E670047E02801A120A64FFD39D40047EC7
:1016FE0002800EEF7006787B76018005121340AEE5
:05170E0007788CA6061F
:0117130022B3
:1011D700786BE61846703C787BE6640260028033E1
:1011E700787FE624FFFFE434FFFED37869E69F1893
:1011F700E69E4002801D7B007A0079847877120191
:10120700B6120046FF7866E6FC08E6FDD39FEC942D
:101217000040057527028011787712019D90000123
:0D122700ED12009E120ED48F27788CA627A2
:011234002297
:100E56007867E618467019786BE6640218467010D3
:100E6600787BE6FF600AB4010C7869E618466005EF
:100E760075270280547864E6541F14602414602693
:100E8600240270367869E618466002802DE478916F
:100E9600F6787DE67890F6FF787EE64F7890F680D5
:100EA6001C120A6E8017120A6E120A4A120026BF18
:100EB600030B7890E64401F6800375270275270137
:0D0EC6007A007990120A297602788CA6270E
:010ED30022FC
:100DD4007866E624FE601C14604B240270687E0072
:100DE4007F12120A364004AE04AF057BFF7A0D79F8
:100DF4004F802B120A64D39D4005752902804790C9
:100E04000D63E493F528A3E493F527AE27AF2812E6
:100E14000A364004AE04AF057BFF7A0D7961788D04
:100E24001201B6801E7867E675F003A424CBF58220
:100E3400E4340DF5831201BF788D1201B612004619
:100E4400FF7E007529017888A60608A607788CA677
:010E54002974
:010E5500227A
:10156500786BE664011846701218E61846700C1878
:10157500E618467006787BE6FE70047F02801BEE57
:10158500B4010A120A6EFB7A00799080067BFF7A15
:101595000D7966788D1201B67F0178887600087618
:0515A50001788CA6078F
:0115AA00221E
:1015AB007867E618467010786BE66401184670078A
:1015BB00787BE6640260047F028023787FE624FF59
:1015CB00FDE434FFFCD37869E69D18E69C40047F6C
:1015DB0002800B7A007985120A2976017F01788CBB
:0215EB00A60751
:0115ED0022DB
:1014830075968EE59620E7FB120A52E59620E7FB58
:10149300EE702BEF24FE6013248170227596117574
:1014A3009710E59620E7FB785E800D759614759787
:1014B30020E59620E7FB78717603E4FD80027D0248
:0C14C30075960E8C97E59620E7FBAF05B0
:0114CF0022FA
:1014D00075968EE59620E7FB120A52E59620E7FB0B
:1014E000EE702AEF24FE601324817021120A75E544
:1014F0009620E7FBE4785EF6FD80147596147597E8
:1015000080E59620E7FBE47871F6FD80027D0275A8
:0B151000960E8C97E59620E7FBAF05D8
:01151B0022AD
:10002600EE7015EF24FE600A2481700C785EE6FD02
:0C00360080087871E6FD80027D02AF05B5
:01004200229B
:021340008F27F5
:10134200E4F5287BFF7A0D796178811201B690006D
:101352000512005F652760057528028033788112C7
:10136200019D90000412005F787FF60876017B00F1
:101372007A007984900002E412009E900001E41247
:10138200009EE412008C120ED4787B760218A627F7
:02139200AF2882
:011394002236
:100ED400E4FF75968EE59620E7FBAE97900002122C
:100EE400005F705B75960E759701E59620E7FB75BC
:100EF4009612759720E59620E7FB759615E4F5970D
:100F0400E59620E7FB785A120A7C78597681785E58
:100F1400F675960E759702E59620E7FB759612E432
:100F2400F597E59620E7FB786D120A7C786C7602DB
:100F34007871F675960EF597E59630E70480F97F9B
:0B0F44000275960E8E97E59620E7FBE5
:010F4F00227F
:0606E3008B258A26892701
:1006E900E4F52A120A09E59620E7FB759694E59642
:1006F90020E7FB85972B759695E59620E7FB85976F
:100709002C120A43120A1270030207BDE52B30E6C8
:100719000B759614759780E59620E7FBE52B20E08D
:10072900030207BD759696E59620E7FB85972A751E
:100739002800852A29759697E59620E7FB85972A4B
:10074900E52AFEEE4228D3E5299440E52894005095
:100759002F120A43120046FFAB1BAA1CA91DAD2983
:10076900AC28121435120A43900001E5288529F0B6
:1007790012012EAB18AA19A91AE52912008C800BAF
:10078900759614759710E59620E7FB75960E120A73
:1007990043120046F597E59620E7FB759614E4F5B4
:1007A90097E59620E7FB759694E59620E7FB8597F4
:0407B9002B020725E3
:0107BD002219
:060A86008B4C8A4D894EE5
:100A8C00120A09E59620E7FB759691E59620E7FB9F
:100A9C0085974F759692E59620E7FB85975012093E
:100AAC00EC120A12606FE54F30E508120A75E596F4
:100ABC0020E7FBE54F20E05D7A017B2C7D017F0078
:100ACC001213951209EC75F008120A5DAB1BAA1CE7
:100ADC00A91DC003C002C0011209EC90000612014E
:100AEC00FB1209EC9000061201CBC003C002C0013E
:100AFC001209EC120A1BD001D002D003120C3E7565
:100B0C009611759701E59620E7FB759691E5962071
:050B1C00E7FB85974F87
:010B210022B1
:08087B008B438A4489458D4638
:10088300E54670030209327B007A0079598B478A67
:10089300488949120A09E59620E7FB759691E59682
:1008A30020E7FB85974A759692E59620E7FB8597A7
:1008B3004B1209F3120A126076E54A30E508120A70
:1008C30075E59620E7FBE54A30E0127F0012177CBE
:1008D300759691E59620E7FB85974A80E91209F31F
:1008E3008546F0120A5DAB43AA44A945C003C00282
:1008F300C0011209F39000061201FB1209F39000E4
:10090300061201CBC003C002C0011209F3120A1B75
:10091300D001D002D003120C3E759611759701E5F4
:0F0923009620E7FB759691E59620E7FB85974AAE
:0109320022A2
:0A1435008C2D8D2E8B2F8A3089310B
:10143F00E52E452D603DEF2420F532543FF59643C0
:10144F0096C0E4FFFEE52E24FFFDE52D34FFFCC31F
:10145F00EF9DEE9C500FE59620E7FB1209FA0FBFA8
:10146F0000010E80E0E532543FF596E59620E7FB4C
:03147F001209FA55
:011482002247
:100C3E00151E151E151EA81E1201B6151E151EA870
:100C4E001EA60408A605151EA81EA607151E151E0F
:020C5E00151E61
:100C6000E51E2404F909E719476055E51E2403F839
:100C7000E62420A81EF6E59620E7FBA81EE6543FD2
:100C8000F596A81E08E4F608F6E51E2404F9A81E49
:100C900008E6FE08E6FFC30997EE19975022E51E05
:100CA0002406F812019D8F828E8312005FF597E56E
:100CB0009620E7FBA81E080806E61870CC0680C937
:070CC000E51E2409F51E22C8
:03000000020BB23E
:0C0BB200787FE4F6D8FD7581A6020BF9EF
:10004600BB010689828A83E0225002E722BBFE02B8
:09005600E32289828A83E49322EB
:10005F00BB010CE58229F582E5833AF583E0225056
:10006F0006E92582F8E622BBFE06E92582F8E222A0
:0D007F00E58229F582E5833AF583E49322BA
:10008C00BB010689828A83F0225002F722BBFE0153
:02009C00F3224D
:10009E00F8BB010DE58229F582E5833AF583E8F098
:1000AE00225006E92582C8F622BBFE05E92582C844
:0200BE00F2222C
:1000C000C2D5EC30E709B2D5E4C39DFDE49CFCEE5B
:1000D00030E715B2D5E4C39FFFE49EFE120292C33F
:1000E000E49DFDE49CFC800312029230D507C3E43A
:0600F0009FFFE49EFE22CA
:1000F600BB0110E58229F582E5833AF583E0F5F048
:10010600A3E0225009E92582F886F008E622BBFE24
:100116000AE92582F8E2F5F008E222E5832AF5836A
:08012600E993F5F0A3E993222F
:10012E00F8BB0111E58229F582E5833AF583E8F003
:10013E00E5F0A3F0225009E92582C8F608A6F022C0
:0D014E00BBFE09E92582C8F2E5F008F222A7
:10015B00EB9FF5F0EA9E42F0E99D42F0E89C45F0FA
:01016B002271
:0C016C00E6FC08E6FD08E6FE08E6FF22BF
:0C017800ECF608EDF608EEF608EFF622B3
:10018400D083D082E493F608740193F60874029342
:09019400F608740393F674047379
:09019D00E6FB08E6FA08E6F92287
:1001A600FAE6FB0808E6F925F0F618E6CA3AF6225A
:0901B600EBF608EAF608E9F6226E
:0C01BF00E493FB740193FA740293F9229C
:1001CB00BB010DE58229F582E5833AF5830202E74F
:1001DB005007E92582F802019DBBFE07E92582F84D
:1001EB000202F9E58229F582E5833AF5830201BF24
:1001FB00BB0120E58229F582E5833AF583D0F0D067
:10020B00E0F8D0E0F9D0E0FAD0E0FBE8C0E0C0F0D5
:10021B000202F05018E92582F8D083D082D0E0F9A1
:10022B00D0E0FAD0E0FBC082C0830201B6BBFE185F
:10023B00E92582F8D083D082D0E0F9D0E0FAD0E083
:09024B00FBC082C0830203022201
:10000E00E4FFFE120046600C0FEF70010E09E9705E
:05001E00F20A80EF2250
:100933008B408A418942AB40AA41A942120046FF3B
:100943001217BD500D74012542F542E43541F541BE
:1009530080E4D201AB40AA41A942120046FF642BB6
:100963006004EFB42D1BAB400542E542AA4170027F
:10097300054114F9120046642D6003D38001C3922C
:1009830001E4F543F544AB40AA41A942120046FFF6
:100993001218225036AB40AA41A942120046FF3337
:1009A30095E0FEEF24D0FBEE34FFFAAE43AF447C78
:1009B300007D0A120280EF2BF544EE3AF5437401F1
:1009C3002542F542E43541F54180BB300106AE4393
:0E09D300AF448009C3E49544FFE49543FE223F
:10025400EF4E6012EF60010EEDBB010B89828A83C1
:10026400F0A3DFFCDEFA2289F05007F709DFFCA9CE
:0C027400F022BBFEFCF309DFFCA9F02225
:100BBE000207BEE493A3F8E493A34003F68001F288
:100BCE0008DFF48029E493A3F85407240CC8C33338
:100BDE00C4540F4420C8834004F456800146F6DF07
:100BEE00E4800B0102040810204080900003E47E94
:100BFE00019360BCA3FF543F30E509541FFEE493FC
:100C0E00A360010ECF54C025E060A840B8E493A3C2
:100C1E00FAE493A3F8E493A3C8C582C8CAC583CAED
:100C2E00F0A3C8C582C8CAC583CADFE9DEE780BEA5
:0100060000F9
:10028000EF8DF0A4A8F0CF8CF0A428CE8DF0A42E92
:02029000FE224C
:10029200BC000BBE0029EF8DF084FFADF022E4CC50
:1002A200F875F008EF2FFFEE33FEEC33FCEE9DEC19
:1002B200984005FCEE9DFE0FD5F0E9E4CEFD22ED5F
:1002C200F8F5F0EE8420D21CFEADF075F008EF2FA9
:1002D200FFED33FD4007985006D5F0F222C398FD9A
:0502E2000FD5F0EA2237
:0902E700E0FBA3E0FAA3E0F92218
:0902F000EBF0A3EAF0A3E9F0220F
:0902F900E2FB08E2FA08E2F92236
:09030200EBF208EAF208E9F2222C
:0F182200EFC394304007EF943A50028001C32285
:1017BD00EFC394094005EF940E4003BF2003D3807F
:0317CD0001C32233
:00000001FF
