:1084F0004D53434246464600323031352D30322D01
:0D8500003035202D20616563643166660012
:10501D00EFF090187C12055C78081204C890187C8B
:10502D0012059890187C02055CF090187BE0FF7BD0
:10503D00017A05793B901887E4F0A322901873E06C
:10504D00FF3395E0FE90126275F03DEF1205F9EE1B
:10505D0075F03DA42583F583E0FAA3E0FBED227DF9
:10506D003D1201C974642FF974123EFA7B01783434
:10507D007C057D017E007F04223395E0FE7C007D62
:10508D003D1201C974602FF974123EFA7B0122742E
:10509D000C2EF582E43400F5837401F0901879E05C
:1050AD0004F022900001120135FFC3648022901894
:1050BD007D020605901877E475F001020266FF90F7
:1050CD000530E03400FAA9077BFF7D01229018839B
:1050DD000206057A007B327D0122758F0490053022
:1050ED00E0FEA3E022E4900000F0A3F02290000384
:1050FD00120135FDC36480229005387403F0A3744A
:10510D00E8F022FF90188C020605D3EF648094B965
:10511D0022D3EF648094E62290053B7478F02290C0
:10512D00053B74FFF022FE7F04FD7B01020B6EE058
:10513D00FF901879E0FEC39F22E0FEA3E0FF9000F0
:0D514D0002E022900000E0FCA3E0FD4C22F7
:106AAC0012863175840F75E104E4F5E275E34075E7
:106ABC00A4FF75A5FF75A6FF75A7FF7580E0F5907F
:106ACC00F5A075B0FF758A83F597F589F58475B7D0
:106ADC001075840F438901758D01758F01758E02B8
:106AEC00901877F0A3F01250C1901877E0B401F62B
:106AFC00A3E0B400F1438902E4901877F0A3F0907E
:106B0C001877E0FEA3E0FFE4FCFD7B507AC3F9F8B4
:106B1C00D31204A1400AE58920E4051250C180DF9C
:106B2C00759702E4F58475A3D775A1B7C2847F0A63
:106B3C00FE12812AC2857D08E4FF127FF4D2BC12BA
:106B4C0080337A007B967D037F00127D2E7A007B4A
:086B5C00967D037F01027D2EEE
:10710200E4900530F0A3F0A3F0A3F0F5841250E769
:10711200F5828E83742F93B43409742E93B41203C0
:10712200D38001C39200E4F58F20002F781C7C05E8
:107132007D017BFF7A8479F01209A7E4900006F0C2
:10714200A37450F0A374C2F0A37446F0A374DFF0EA
:10715200A374FFF0E4900A3BF080381250E7AA06CD
:10716200F97BFF781C7C057D011209A7900531E0AF
:107172002414783B7C0A1250CB1209A7900531E007
:10718200242878067C001250CB7E007F061200F67F
:07719200E4F58F1250F22218
:107D880090002E1202BD64347004E5F064126003A2
:107D98007F0022C2AFE4F58475FFDE75FFAD43B7FF
:107DA80001758F07900532E0FEA3E0FFF5828E8310
:107DB800E4F0758F05C002C001AA06A907A801ACA6
:107DC800027D01D001D002FE7F301200F653B7FECB
:087DD800D2AF1271027F0122FB
:03002300027199CE
:10719900C0E0C0F0C083C082C0D075D00830995714
:1071A900C299900004E004F0A3E0FF900004E0FE1F
:1071B900C39F5038EEC394045011740C2EF582E429
:0D71C9003400F583E06004D29B8002C29B7D
:0D71D60075101475110200D511FCD510F6CE
:1071E300900004E0243BF582E43409F583E0F5994B
:1071F300800BC284900005E4F0900004F0309821E5
:10720300C3900002E094045016E475F00112027C6E
:10721300FE743B25F0F58274053EF583E599F0C2D3
:0C72230098D0D0D082D083D0F0D0E032E0
:01000A0022D3
:1083A400128269D3900539E09400900538E0940076
:1083B400400774FFF5F0120266900538E07002A3DE
:0783C400E070031250F322E8
:105A4700125B38EA494B6012125B38E92402F9E429
:105A57003AFA90188312060E8004E4FEFF221250D1
:105A6700DA1250B094B0400B1251175006EF24D001
:105A7700FF80141250B094E1400B12511E5006EFF4
:105A870024A9FF80027F00EF7D00FC12011CFFC3E9
:105A9700648094B0400B1251175006EF24D0FF805A
:105AA7001B1250DA12011CFFC3648094E1400B12F1
:105AB700511E5006EF24A9FF80027F00EFC454F067
:105AC7004CFC1250DA9000021250B394B0400B1203
:105AD70051175006EF24D0FF80179000021250B3E1
:105AE70094E1400B12511E5006EF24A9FF80027F5C
:105AF70000EF75F010A4FFEC45F0FEED4FFF1250DC
:105B0700FA94B0400ED3ED648094B95006ED24D0DA
:105B1700FD801A1250DA1250FA94E1400ED3ED6468
:105B27008094E65006ED24A9FD80027D00EF4DFF2D
:0D5B3700227BFF7A8479F87D2D127678228A
:0552930090187BEFF014
:1052980090093BE0FFB42006E4F58475EF10EF6455
:1052A800617053125A47AD07AC06125125A3740515
:1052B800F0ECA3F0EFA3F01286C912502A90054231
:1052C80012501D90054112501D90054012501D901E
:1052D800053FEFF012503078081204C890187C127D
:1052E80005981250377408F012661C1250E07F01BE
:1052F800127D2E7F022290093BE064687022900A9A
:105308003BE06012783C7C097D017B017A0A793B9D
:105318001208BEEF7005125125803912512C8034C5
:1053280090093BE0649870377B017A09793C127DDB
:1053380088EF601D125125E4A31250367402F01252
:10534800661C7F647E0012812AE4F58475EF108064
:105358000E12512C12503704F012661C7F01229055
:07536800093BE064417059AC
:10536F0090187BE0FF12508690188012060E90095D
:10537F003CE0B4012E901880120605E92404F9E4EC
:10538F003AFA12507B1200F6901880120605900020
:10539F00021202BDFF900000E5F0F0A3EFF01251F2
:1053AF000580091250F2900538F0A3F090053B7478
:0953BF007812503604F012661C4D
:0253C8007F0064
:0153CA0022C0
:086FCD00901877EDF0A3EBF042
:106FD500E4900002F0A3F0EB30E40A125293E4903F
:106FE5000005F0FF22E4F5847A00790C1251339004
:106FF5001878E030E016E4A3F090187712513C5071
:107005000BEEC39404500512509C80ED901878E067
:1070150030E52490093BE090187AB410057402F02D
:1070250080037404F0E4901879F090187A12513CBA
:10703500500512509C80F390000CE024FF929B9029
:077045001877E0900005F050
:0D704C0075121475130200D513FCD512F651
:0F705900D28490093BE0F599E4900004F07F01A8
:017068002205
:0543B300901877EFF007
:1043B800ED30E10302458CED30E20B90187CE4F01F
:1043C800A37404F08016ED90187C30E3097475F03E
:1043D800A37430F08006E4F0A37464F0E4901878D5
:1043E800F0A3F090187EF0A3F090187AF0A3F09064
:1043F800187CE0FEA3E0FFC390187BE09F90187A3A
:10440800E09E400302456290187E125146FCA3E0EC
:10441800FD9FEC9E400FE490187AF0A3F090187E70
:10442800ECF0A3EDF090093BE0B41A0FED64014CF9
:10443800700990053BE0B47802805290093BE0FF98
:1044480064A1600CEF640A701C90093FE0B4A115E8
:10445800900002E07004A3E06401700990053BE05D
:10446800B47802802890093BE0FF64A2600CEF64F6
:104478000A702490093FE0B4A21D900002E0700485
:10448800A3E06401701190053BE0B4780A901877B6
:1044980012503A04024547900002E0FEA3E0FFD321
:1044A8009400EE9400500302454D90053BE0FD5406
:1044B800786478600302454DED5407FD7C00901840
:1044C80078ECF0A3EDF064077046D3EF9401EE9416
:1044D80000403D90053CE0FF2403FDEC3390187844
:1044E800F0A3EDF030E733D3900003E0940290009E
:1044F80002E094004024EF547FFE90053DE0240440
:10450800FDEC334EFFED901878CFF0A3EFF0800A62
:10451800901878E475F002120266901878125146E5
:10452800B50622A3E0B5071D901877E0FF7B017A56
:1045380005793BA3E0FDA3E0901887CDF0A3EDF04B
:1045480012661C80157F001282067F647E00127836
:10455800C090187A1250C40243F790187CE0FEA36A
:10456800E0FF90187AE0B50613A3E0B5070E1251E4
:104578002C90187712503A04F002661C1250E07F13
:0445880001127D2E71
:01458C00220C
:107B5100E490187FF0A3F0A37402F0A37411F0E491
:107B6100A3F07B017A007910A312060E9018877496
:107B710001F0A37406F07A1979CD7D997C04126C19
:107B8100B1EF12508690187712060E7A017916C05D
:107B910003C002C00190187712060590000E12066C
:107BA100B6901877120605900011740475F005025D
:027BB100039936
:0661D70090187712060E7D
:1061DD00901642E0FF70057EFF7F9D22EF640A60FE
:1061ED0004EFB40B0990163212055C125E33128265
:1061FD0098EF20E1030262B3E4901262F0A3F07A0B
:10620D001279641251337E007F107D007B017A007C
:10621D007910120B6E7B017A18797D122577125049
:10622D00BBE94A4B7003FEFF221250BB90001312C4
:10623D0006861202922406FDE435F0FCED6F700225
:10624D00EC6E600280609000051201356405600CF3
:10625D0090000612013564616002804A90000212BE
:10626D0002BDFF1250BB90002CE5F08FF012039988
:10627D00900013120686C003C002C0019018771259
:10628D0006051206371250BB90001C120135FF9007
:10629D00187A120605EF1201951250BB90001912D3
:0962AD0002BDFFAEF022E4FEFF89
:0162B60022C5
:06661C0090188412060E26
:10662200EFC394004018EF941040028011D39018E9
:1066320088E09406901887E0648094844004E4FE25
:10664200FF22EF75F03DA42460F9741235F0FA7B55
:106652000190188912060E7A01791690188C12068A
:106662000E12511190000574051201A7901887E0CF
:10667200FFA3E0CF8FF012037A90188912060590DB
:10668200002C1202BD125110900002E5F08FF012A0
:106692000399900004E41201A7901887E0FEA3E09A
:1066A200125110E92406F9E43AA801FCAD0390184E
:1066B200841206051200F6901888E02406FF90184E
:1066C20087E03400FE901889120605900011EE8FC3
:1066D200F012039912458DC3EF9406EE9400500117
:0966E20022EF24FAFFEE34FFFE62
:0166EB00228C
:104C2A00E4F58475EF027F64DFFE125A47126AAC1C
:104C3A001271021284137B007A0079007F807EF45D
:104C4A007DFF7CFF12819E7F0A128644127B517D72
:104C5A00017F001285C67D017F00127AEC7F001267
:104C6A00820630000A900000E07002A3E060081299
:104C7A0050E07F00127D2E7B017A18797390187AA2
:104C8A0012060E7A18796D1261D7901871EEF0A398
:104C9A00EFF0D39400EE940040C390186D1206050D
:104CAA0090187412060E12515060141250496B700B
:104CBA0002EC6A70A8FC12506C120B4AEF709E123A
:104CCA0051506018125049B50312ECB5020E7C001F
:104CDA0012506C120B4AEF7003125105D3901872DE
:104CEA00E09406901871E094014003024C67125058
:104CFA00E07F00127D2E901872E024FAFF9018715E
:104D0A00E034FFFE901874120605E92406F9E43A25
:104D1A00FA783B7C097D011200F690187412060598
:104D2A00900004120135901870F0FB901873E0FFA0
:104D3A00901871A3E024FAFD126FCDEF7003024CB4
:104D4A0067900005E060077F0012820680F39018E2
:104D5A0073E0FF901870E0FD1243B390093BE064E2
:104D6A00106003024C6790093DE064396003024C0D
:0C4D7A0067A3E0FDE4FF127FF4024C6729
:1054F900005EBCE2613FDD83C29C7E20A3FD1F41AB
:105509009DC3217FFCA2401E5F01E3BD3E6082DC9A
:10551900237D9FC1421CFEA0E1BF5D0380DE3C628A
:10552900BEE0025CDF81633D7C22C09E1D43A1FF7A
:105539004618FAA427799BC584DA3866E5BB59076A
:10554900DB856739BAE406581947A5FB7826C49A5A
:10555900653BD987045AB8E6A7F91B45C6987A244A
:10556900F8A6441A99C7257B3A6486D85B05E7B93A
:105579008CD2306EEDB3510F4E10F2AC2F7193CD2A
:10558900114FADF3702ECC92D38D6F31B2EC0E501A
:10559900AFF1134DCE90722C6D33D18F0C52B0EE0A
:1055A900326C8ED0530DEFB1F0AE4C1291CF2D73FA
:1055B900CA947628ABF517490856B4EA6937D58BEA
:1055C9005709EBB536688AD495CB2977F4AA4816DA
:1055D900E9B7550B88D6346A2B7597C94A14F6A8CA
:1055E900742AC896154BA9F7B6E80A54D7896B35BA
:1055F900FB04FD82FEC1FF60FF96FFB0FFCBFFE514
:04560900FFEEFFF7BA
:03852A0001160A2D
:106E920090FFFF12070FEDF090FFFF12070FEFF0C8
:106EA20085148385158222F0EF25E025E02460F524
:106EB20082E4341AF58322EF25E025E0245EF58290
:106EC200E4341AF5832290FFFF12070FEFF090FFD0
:106ED200FF02070FEF25E025E0245DF582E4341A76
:106EE200F5832225E025E0245FF582E4341AF58358
:106EF20022E584F075840175D480E4F58475D103AC
:106F0200758401E5D2940022EF2401FFE43EFEE401
:106F12003DFDE43CFC120598901A5C227816E67559
:0E6F2200F064A4FFC37818E69F18E695F022ED
:10866800901A871205A4FFFFFFFF901A8712055C76
:0186780022DF
:1073530090FFFE12070FECF0A3EDF090FFFD120774
:0A7363000F12060E90FFFC12070F38
:10736D00126EA2A3A3E4126EA1F0A3F09000071277
:10737D000733E0FEA3E0FF126EA2E0FCA3E0FDC325
:10738D009FEE6480F8EC648098503D9000041207E5
:10739D00331206058D828C83120135FF126EA2A366
:1073AD00A3E06FFF900003120733EFF0900003127C
:1073BD000733E09054F993126EA2A3A3126EA1E4C9
:0F73CD0075F00112026680A4126EA2A3A3E0FF66
:0673DC0090000902070FFA
:0B86B200ED6F7819F6E69054F993FF85
:0186BD00229A
:107FF400EF7039F5847598D0F584759115F584750D
:10800400C908ED25E024F7F582E43455F583E493BB
:10801400F5CBED25E024F8F582E43455F583E493BB
:0E802400F5CA75C804E4F584D2ACC2BCD2AF74
:01803200222B
:10803300901A651205A400000000901A691205A4A5
:1080430000000000901A5C7464F0E4781AF6781A61
:10805300E6FFC394025017126ED6E4F0126EB9E431
:0E806300F0EF126EE5E4126EA9E4F00680E084
:0180710022EC
:10847600D2AFD2A9C2BBE4F584E589540F4401F515
:0F84860089758E02758CAFE4F58AD28C02803333
:03706900126ED0D4
:10706C00126EA2E4F0126EA2E0FFC394024003027F
:10707C0070FC126EAAE0FFD39400405A126EA2E08C
:10708C00126EBAE07050EF30E012126EA2E0FF12F6
:10709C006EABE0D3940140047D0080077D01126E3D
:1070AC00A2E0FF127AEC126EA2E0FF126EABE0B41B
:1070BC0001057D01127AEC126EA2E0FF126EABE0BC
:1070CC0014126EA9E0600F126EA2E0FF126EE5E0E2
:1070DC00FE126EB9EEF0126EA2E0FF126EBAE06014
:1070EC0006126EB9E014F0126EA2E004F002707198
:0670FC0090000102070FE5
:03000B000279A2D5
:1079A200C0E0C0F0C083C082C0D0E8C0E0E9C0E05F
:1079B200EAC0E0EBC0E0ECC0E0EDC0E0EEC0E0EF1A
:1079C200C0E0128435901A6512055C901A65126F38
:1079D2000AE014F0E0700F901A6912055C901A69BF
:1079E200126F0A7464F0127069128269D0E0FFD0DB
:1079F200E0FED0E0FDD0E0FCD0E0FBD0E0FAD0E049
:0F7A0200F9D0E0F8D0D0D082D083D0F0D0E032ED
:1085C600126E92E0FFC394025008A3E0FE126ED62C
:0885D600EEF090000202070F15
:107D2E0090FFFE12070FEAF0A3EBF0126E92E0FF47
:107D3E00C39402503F126EAAE07039126EA2E0FB9D
:107D4E00126EBAE0702E126EA2A3E025E004FF12AE
:107D5E006EA2E0FA126EAB126EA0A3A3E0FEA3E039
:107D6E00FF7C007D0A120230EA126EE5EFF0EB1294
:0A7D7E006EBAE4F090000402070F53
:087AEC00126ED0EDF0126EC81D
:107AF400126EA2A3E0FFC39402501B126ED6E06084
:107B040015126EA2A3A3E070047F0180027F00120D
:107B14006EA2A3A3EFF0126EA2E584F075840F1297
:107B24006EA2A3E0FF700C126EA2A3A3E024FF9246
:107B340082800EEFB4010A126EA2A3A3E024FF9286
:077B440083126EA2E0F5843C
:067B4B0090000302070F89
:0A86BE00C2AF901A6512055CD2AF3E
:0186C800228F
:0A86C900C2AF901A6912055CD2AF2F
:0186D3002284
:10820600126EC8126EA2A3E070057817F608F61271
:048216006F1E50196E
:10821A00126EA2126EF340047F0080027FFF8FD29B
:09822A0085D2D3126EA2E0F584A6
:0682330090000202070F9B
:10864400D201E47817F608F6EF78166002F622767F
:028654000A22F8
:10863100C201E47817F608F6781676FF75FFDE7545
:03864100FFAD2268
:10826900126ED0781806E618700106126F1E5019A2
:10827900126EA2126EF340047F0080027FFF8FD23C
:0982890085D2D3126EA2E0F58447
:0682920090000102070F3D
:08812A00901883EEF0A3EFF0C2
:10813200E4A3F0A3F0901883E0FEA3E0FFC390183D
:1081420086E09F901885E09E50187FE87E031278A3
:10815200C07F01128206901885E475F00112026652
:0281620080D3C8
:0181640022F8
:0878C000901887EEF0A3EFF031
:1078C800901887E0FEA3E0FFD394FAEE9400500EE0
:1078D800EFD3940040527E0900DEFD1F80F290181D
:1078E80087E0FFA3E0A3CFF0A3EFF0D390188AE0DE
:1078F80094FA901889E0940040147FFA7E00127878
:10790800C090188974FF75F00612026680DDD39066
:107918001888E09400901887E09400400B9018892C
:08792800E0FEA3E0FF1278C0AD
:017930002234
:0300000002722F5A
:10722F00787FE4F6D8FD751420751500758120025E
:02723F00727C5F
:05852D004216300000C1
:1083CB0090164874FFF07E027F247D007B017A16A5
:1083DB007949120B6E7E007F167D007B017A167930
:0483EB0032020B6EE1
:0F819E00901877EBF0A3EAF0A3E9F0A31205988D
:1081AD007E007F047D007B017A1A7946120B6E905A
:1081BD0016427401F0901877E0FBA3E0FAA3E0F902
:0481CD00A31221A038
:0181D100228B
:10849500E4FFFE901642E060157407F07B007A0059
:0E84A50079007D007C001221ABE4901642F0BD
:0184B30022A6
:065E330090188012059892
:105E3900901643E06003025F0F901642E0C3940995
:105E49005003025F0F7B007A0079009018801221BD
:105E5900A0901884EEF0A3EFF064014E7003025F86
:105E690007901642E0B40A47E47B02FAF9F8901663
:105E790032E0FCA3E0FDA3E0FEA3E0FF12040290E0
:105E8900163AE0F8A3E0F9A3E0FAA3E0FBC3120491
:105E9900B7701C90163AE0FCA3E0FDA3E0FEA3E076
:105EA900FFE47B02FAF9F812040290163A804C904A
:105EB9001642E0B40B48E47B08FAF9F8901632E090
:105EC900FCA3E0FDA3E0FEA3E0FF12040290163E4E
:105ED900E0F8A3E0F9A3E0FAA3E0FBC31204B7706A
:105EE9001D90163EE0FCA3E0FDA3E0FEA3E0FFE465
:105EF9007B02FAF9F812040290163E1205989016E0
:105F0900427409F08008901884E4F0A304F0901812
:065F190084E0FEA3E0FF9E
:015F1F00225F
:1060F300901643E060030261D6901642E0C3940910
:1061030050030261D6901631E004F0700690163009
:10611300E004F0901630E07004A3E064647028900B
:106123001630F0A3F0901636E0FCA3E0FDA3E0FEEA
:10613300A3E024FFFFEE34FFFEED34FFFDEC34FF5C
:10614300FC90163612059890163AE0FCA3E0FDA3E6
:10615300E0FEA3E0FF901636E0F8A3E0F9A3E0FA2F
:10616300A3E0FBD31204B7506AE4FFFEFDFC9016D4
:1061730036E0F8A3A3A3E0C31204B7700590164258
:10618300F02290163EE0FCA3E0FDA3E0FEA3E0FFB7
:10619300901636E0F8A3E0F9A3E0FAA3E0FBD312EC
:1061A30004B75007901642740BF02290163AE0FCA5
:1061B300A3E0FDA3E0FEA3E0FF901636E0F8A3E022
:1061C300F9A3E0FAA3E0FBD31204B75006901642FA
:0361D300740AF05B
:0161D60022A6
:0B21A000E0FCA3E0FDA3E0FEA3E0FFD5
:0F21AB00901886EBF0A3EAF0A3E9F0A3120598D1
:1021BA00E490188DF0A3F0A3F0A3F090189CF0A37C
:1021CA00F0901642E0700302256EE064076004E0B6
:1021DA00B40A1090189E7401F0A37416F0A3744404
:1021EA00F0800E90189E7401F0A37419F0A374C9BC
:1021FA00F090193AE4F0A37443F0A37411F0E4A345
:10220A00F0A304F0A37416F0A37449F0A37402F0C7
:10221A00A37424F090189EE0FBA3E0FAA3E0F97DF2
:10222A00447C00122C9D901891EFF0C36480948036
:10223A00500302255FE0FF3395E0FE7C007D3D12EE
:10224A0001C974602FF974123EFA9018937401F060
:10225A00A3EAF0A3E9F090188DE07002A3E060030E
:10226A0002254F901892F0901886E0FBA3E0FAA39B
:10227A00E0F9A3E0FCA3E0FDA3E0FEA3E0FF121D4A
:10228A00B290189612059890189CE0FCA3E0FDEC19
:10229A00901651F0EDA3F090189EE0FBA3E0FAA38C
:1022AA00E0F974019019C96B7008E965827003EA54
:1022BA006583700790164804F08005E4901648F08C
:1022CA007B017A167949C003C002C001901893E0D5
:1022DA00FBA3E0FAA3E0F990000E1206B690189359
:1022EA00E0FBA3E0FAA3E0F9900011740275F02470
:1022FA0012039912458D90188FEEF0A3EFF0901605
:10230A0042E0B4070B90188DE4F0A304F0022532E2
:10231A00901892E02401FEE43390189AF0A3CEF0CC
:10232A00C390188FE064809480501590189AE0FE4C
:10233A00A3E0FF7C007D641201C912857A0225237D
:10234A009016487401F07B017A1679499018A574A1
:10235A0002F0A37424F090189AE0FEA3E0FF7C0038
:10236A007D641201C99018A7EEF0A3EFF0901891BE
:10237A00E0FF1241D790188FEEF0A3EFF0D394004C
:10238A00EE648094805003022505901650E0FFE425
:10239A00FCFDFE78081204DBA804A905AA06AB070F
:1023AA0090164FE0FFEB4FFFEAFEE9FDE8FC7808E4
:1023BA001204DBA804A905AA06AB0790164EE0FF93
:1023CA00EB4FFFEAFEE9FDE8FC78081204DBA804FB
:1023DA00A905AA06AB0790164DE0FFEB4FFFEAFEF0
:1023EA00E9FDE8FC901896E0F8A3E0F9A3E0FAA367
:1023FA00E0FBC31204B76003022505901649E064A6
:10240A00026003022505901642E024FD602324F9A8
:10241A00601F14601C240A60030224F912000EBF14
:10242A00020C9016427403F01284B4022519022495
:10243A00F912000EEF640560030224EE78467C1A56
:10244A007D017B017A167959FE7F041200F6128407
:10245A00D212850D124EDD90163612059890163658
:10246A00E0FCA3E0FDA3E0FEA3E0FF901632120514
:10247A00981284B474FFFFFEFDFC901636E0F8A3B0
:10248A00E0F9A3E0FAA3E0FBC31204B770079016C1
:10249A004304F0803FE47B02FAF9F8901636E0FC38
:1024AA00A3E0FDA3E0FEA3E0FF12040290163A1295
:1024BA000598E47B08FAF9F8901636E0FCA3E0FDEB
:1024CA00A3E0FEA3E0FF12040290163E120598E470
:1024DA00901643F09016427409F090188DE4F0A318
:1024EA0004F0802B12000EBF0203022350800090DA
:1024FA00188D74FFF0A3749CF0801490189AE0FE73
:10250A00A3E0FF90189DE02FF090189CE03EF09019
:10251A00188DE07002A3E0700F901892E004F0E0CA
:10252A00C39403500302227190188FE0FEA3E0FFC8
:10253A00D39400EE64809480400302226090188D48
:10254A00EEF0A3EFF090164874FFF0901891E0FFB8
:10255A00126B64800F901891E0FE3395E090188D0D
:0C256A00F0A3CEF090188DE0FEA3E0FF7F
:012576002242
:0F1DB2009018A1EBF0A3EAF0A3E9F0A3120598B3
:101DC100901642E024FD7003021E7A24FC60142464
:101DD100FD7003021E7A147003021E7A240A600346
:101DE100021F181286A5EF2401FFE43EFEE433FD35
:101DF100E433FC78101204DBC004C005C006C00740
:101E01001286A5EF2401FFE43EFED003D002D001EB
:101E1100D000EB4FFFEA4EFEE9FDE8FC9018A81256
:101E210005989018A8E0FCA3E0FDA3E0FEA3E0FF65
:101E310090164DEFF09018A8A3A3A3E07808120420
:101E4100C890164EEFF09018A8E0FCA3E0FDA3E0C7
:101E5100FEA3E0FF78101204C890164FEFF090181F
:101E6100A8E0FCA3E0FDA3E0FEA3E0FF78181204C4
:101E7100C8901650EFF0021F22901650E0FFE4FCCC
:101E8100FDFE9018A81205989018A8E0FCA3E0FDAB
:101E9100A3E0FEA3E0FF78081204DBA804A905AAC9
:101EA10006AB0790164FE0FFEB4FFFEAFEE9FDE8B6
:101EB100FC9018A81205989018A8E0FCA3E0FDA3D7
:101EC100E0FEA3E0FF78081204DBA804A905AA0636
:101ED100AB0790164EE0FFEB4FFFEAFEE9FDE8FC91
:101EE1009018A81205989018A8E0FCA3E0FDA3E0C3
:101EF100FEA3E0FF78081204DBA804A905AA06AB3B
:101F01000790164DE0FFEB4FFFEAFEE9FDE8FC907C
:101F110018A8120598800A9018A81205A4000000BC
:101F2100009016497401F0A3F0A37406F07E007FBF
:101F3100047D007B017A16795D120B6E7E007F04B1
:101F41007D007B017A167961120B6E78657C167DB6
:101F5100017B017A0079067E007F061200F6901857
:101F6100A1A3E0FAA3E04A601478B57C167D019044
:101F710018A1E0FBA3A3E0F91209A78005E49016DC
:101F8100B5F09018AC7401F0A37417F0A37435F098
:101F91009018ACE0FBA3E475F00112027CA9F0FA01
:101FA10074631201959018ACE0FBA3E475F0011283
:101FB100027CA9F0FA74821201959018ACE0FBA39F
:101FC100E475F00112027CA9F0FA745312019590A4
:101FD10018ACE0FBA3E475F00112027CA9F0FA74DD
:101FE100631201959018ACE0FBA3E475F0011202B5
:101FF1007CA9F0FA74351201959018ACE0FBA3E4CA
:1020010075F00112027CA9F0FA7401120195901683
:1020110042E024FD605A24FC700302214C24FD702F
:1020210003022119147003022119240A60030221F9
:10203100819016537480F07E007F047D007B017ACD
:10204100167959120B6E7E007F047D007B017A1692
:102051007955120B6E9018ACE0FBA3E475F00112F8
:10206100027CA9F0FA7401126F4212560D02214747
:102071009016537480F07E007F047D007B017A16F8
:102081007955120B6E126F301277689018ACEBF025
:10209100A3EAF0A3E9F09018ACE0FBA3E475F0012A
:1020A10012027CA9F0FA74321201959018ACE0FB8F
:1020B100A3E475F00112027CA9F0FA7404120195EF
:1020C100E4FF74592FF582E43416F583E0FE90188D
:1020D100ACE0FBA3E475F00112027CA9F0FAEE1268
:1020E10001950FEFB404DB9018ACE0FBA3E0FAA379
:1020F100E0F912561812757D1276F29018ACEBF0D9
:10210100A3EAF0A3E9F07E007F047D007B017A164B
:102111007959120B6E022181E4901653F0FE7F046F
:10212100FD7B017A167959120B6E78557C167D016B
:102131007B017A1A79467E007F041200F6126F3015
:1021410012560D12757D1276F2802AE4901653F024
:10215100FE7F04FD7B017A167959120B6E9018AC43
:10216100E0FBA3E475F00112027CA9F0FA740712F6
:102171006F421277689018ACEBF0A3EAF0A3E9F094
:102181009018ACE0FBA3E0FAA3E0F974FF1201950B
:0E2191009018A8E0FCA3E0FDA3E0FEA3E0FF91
:01219F00221D
:106875007B017A1779399018A8EBF0A3EAF0A3E920
:10688500F02437F9EA3401FAA3EBF0A3EAF0A3E91F
:10689500F09018A8E0FBA3E0FAA3E0F912011CFEB2
:1068A500B50702807EEEF460299018ABE0FBA3E00B
:1068B500FAA3E0F9C003C002C0019018A8A3E0FA4A
:1068C500A3E0F9D3D082D083D0E0E99582EA95831D
:1068D500400B9018A8E4F0A3F0A3F08046EE701CDE
:1068E5009018A9E475F0011202669018A8E0FBA3C0
:1068F500E0FAA3E0F912011C60E680959018A9E47E
:1069050075F0011202669018A8E0FBA3E0FAA3E077
:10691500F912011C04FEFD9018A9E48DF01202661F
:0E6925000268969018A8E0FBA3E0FAA3E0F940
:016933002241
:10000E00E4FC7F35126875E94A6007900002120120
:04001E0035FCAF04FA
:0100220022BB
:104EDD009018A11205A4000000007F331268759090
:104EED0018A5EBF0A3EAF0A3E9F0AE024E700302B1
:104EFD00500E9018A6E475F0021202669018A5E007
:104F0D00FBA3E0FAA3E0F912011CFFE4FCFDFE781F
:104F1D00181204DB9018A11205989018A6E475F0EC
:104F2D00011202669018A1E0F8A3E0F9A3E0FAA33C
:104F3D00E0FBC000C001C002C003A3E0FBA3E0FA88
:104F4D00A3E0F912011CFFE4FCFDFE78101204DB56
:104F5D00D003D002D001D000EB2FFFEA3EFEE93D99
:104F6D00FDE83CFC9018A11205989018A6E475F088
:104F7D00011202669018A1E0F8A3E0F9A3E0FAA3EC
:104F8D00E0FBC000C001C002C003A3E0FBA3E0FA38
:104F9D00A3E0F912011CFFE4FCFDFE78081204DB0E
:104FAD00D003D002D001D000EB2FFFEA3EFEE93D49
:104FBD00FDE83CFC9018A11205989018A6E475F038
:104FCD00011202669018A1E0F8A3E0F9A3E0FAA39C
:104FDD00E0FBC001C002C003A3E0FBA3E0FAA3E025
:104FED00F912011CFFE4FCFDFED003D002D001EB51
:104FFD002FFFEE3AFEED39FDEC38FC9018A11205AD
:0F500D00989018A1E0FCA3E0FDA3E0FEA3E0FF54
:01501C002271
:1084B4007F36126875E94A6014740229F9E43AFABD
:0D84C40078447C167D017E007F041200F6D6
:0184D1002288
:106F30009018ACE0FBA3E475F00112027CA9F0FA12
:106F400074031201959018ACE0FBA3E0FAA3E0F9FA
:0B6F50009018AFEBF0A3EAF0A3E9F00B
:106F5B009018AFE0FBA3E475F00112027CA9F0FAE4
:106F6B00743D1201959018AFE0FBA3E475F001128C
:106F7B00027CA9F0FA74071201959018AFE0FBA3FD
:106F8B00E475F00112027CA9F0FA7401120195E488
:106F9B00FF74062FF582E43400F583E0FE9018AF02
:106FAB00E0FBA3E475F00112027CA9F0FAEE1201EA
:106FBB00950FEFB406DB9018AFE0FBA3E0FAA3E06C
:016FCB00F9CC
:016FCC0022A2
:0B7768009018ACEBF0A3EAF0A3E9F0EE
:0B7773009018AFEBF0A3EAF0A3E9F0E0
:10777E009018AFE0FBA3E475F00112027CA9F0FAB9
:10778E0074361201959018AFE0FBA3E475F0011268
:10779E00027CA9F0FA7404120195E4FF74442FF5EB
:1077AE0082E43416F583E0FE9018AFE0FBA3E47597
:1077BE00F00112027CA9F0FAEE1201950FEFB4045B
:0C77CE00DB9018AFE0FBA3E0FAA3E0F9A9
:0177DA00228C
:0B757D009018ACEBF0A3EAF0A3E9F0DB
:0B7588009018AFEBF0A3EAF0A3E9F0CD
:107593009018AFE0FBA3E475F00112027CA9F0FAA6
:1075A300740C1201957B017A05791C1285F49018ED
:1075B300AFE0FBA3E475F00112027CA9F0FAEF122D
:1075C3000195E4FEEEC39F5023741C2EF582E43430
:1075D30005F583E0FD9018AFE0FBA3E475F001121D
:1075E300027CA9F0FAED1201950E80D89018AFE055
:0775F300FBA3E0FAA3E0F99D
:0175FA00226E
:10560D009018ACEBF0A3EAF0A3E9F09018A4E0FC3D
:09561D00A3E0FDA3E0FEA3E0FF01
:105626009018AFEBF0A3EAF0A3E9F0A3120598E413
:10563600FFFEFDFC9018B2E0F8A3E0F9A3E0FAA3A0
:10564600E0FBC31204B7700A9018B21205A400005A
:105656008CA09018AFE0FBA3E475F00112027CA9C0
:10566600F0FA74331201959018AFE0FBA3E475F0DD
:105676000112027CA9F0FA74041201959018B2E0A6
:10568600FCA3E0FDA3E0FEA3E0FF78181204C89097
:1056960018AFE0FBA3E475F00112027CA9F0FAEF63
:1056A6001201959018B2E0FCA3E0FDA3E0FEA3E092
:1056B600FF78101204C89018AFE0FBA3E475F00160
:1056C60012027CA9F0FAEF1201959018B2E0FCA341
:1056D600E0FDA3E0FEA3E0FF78081204C89018AF2F
:1056E600E0FBA3E475F00112027CA9F0FAEF1201C7
:1056F600959018B2A3A3A3E0FF9018AFE0FBA3E434
:1057060075F00112027CA9F0FAEF1201959018AF1C
:09571600E0FBA3E0FAA3E0F92294
:0B76F2009018ACEBF0A3EAF0A3E9F065
:1076FD009018AFEBF0A3EAF0A3E9F09018AFE0FB20
:10770D00A3E475F00112027CA9F0FA743712019509
:10771D009018AFE0FBA3E475F00112027CA9F0FA1A
:10772D0074021201959018AFE0FBA3E475F00112FD
:10773D00027CA9F0FA74011201959018AFE0FBA339
:10774D00E475F00112027CA9F0FA74031201959010
:0B775D0018AFE0FBA3E0FAA3E0F92264
:1084D2007F01126875E94A6014740229F9E43AFAD4
:0D84E20078507C1A7D017E007F041200F6A8
:0184EF00226A
:10850D007F03126875E94A6013740229F9E43AFA97
:0C851D0078547C1A7D017E000F1200F6DD
:01852900222F
:058532004219C2000027
:107A7F00E49019C4F0A3F0F9A3C9F0A3F0A3E9F0BF
:107A8F007E007F047D007B017A1A7922120B6E7EB5
:107A9F00007F047D007B017A1979D1120B6E7E0075
:107AAF007F047D007B017A1979CD120B6E7E007FEA
:107ABF00497D007B017A1979D5120B6E9019CC7420
:107ACF00FFF09019CBF09019CAF09019C9F0901AE5
:0D7ADF001E74E0F0E4A3F0A3F0A304F02275
:1082980012582D9018B7EFF030E210124A9DC3EF34
:1082A800648094804012125D3B800D9018B7E030D6
:0D82B800E6061248FE12600B9018B7E0FFBA
:0182C5002296
:10582D00E49019C4F0A3F0123DF7D3EF9400EE64A9
:10583D0080948050037F0022127E8AEF901919F018
:10584D00A3E4F0127E8A90191AE02FF0901919E056
:10585D003EF0E0FEA3E0FFD394EEEE94055004EF8E
:10586D004E70061285DE7F0022900A58E0FBA3E001
:10587D00FAA3E0F9901919E0FEA3E0FFE92FF9EA88
:10588D003EFAA3EBF0A3EAF0A3E9F090191BA3E015
:10589D00FAA3E0D390125C9582EA9583500E90198D
:1058AD001BE0F9A3A3E09019C6C9802C900A58A358
:1058BD00E0FAA3E0FFC3745C9FFF74129AFEC390DD
:1058CD00191AE09FFF901919E09EFE745C2FF97470
:1058DD000E3EFA9019C67401F0A3EAF0A3E9F01296
:1058ED00746FEF1460090470037F20227F00221271
:1058FD003500901918EFF06004E030E30512600BED
:10590D008025901918E0FF20E00620E10330E21712
:10591D009019387401F0A3741AF0A3744AF07B0146
:0C592D007A1A79221266EC901918E0FF3B
:01593900224B
:1039A5009018ECEDF09018E9EBF0A3EAF0A3E9F03C
:1039B5004A70037F8522901648E0FEF46017901840
:1039C500E9E0FBA3E0FAA3E0F9120292644445F0B2
:1039D50060037FA422EE6401601D78467C1A7D0198
:1039E5007B017A1979CD7E007F04120B4AEF33955E
:1039F500E04F70037F85229018EEE02414F09018B4
:103A0500EDE03400F09019C3E004F070069019C29F
:103A1500E004F09019C2E0FFA3E09018F5CFF0A301
:103A2500EFF09018E9E0FBA3E0FAA3E0F990001DA0
:103A35001201359018EC30E406E0FF74048004E0D0
:103A4500FF74409018F7F0A3EFF09018EDE0FCA399
:103A5500E0FDE4901935F0A3F09018F7E0FFA3E03E
:103A6500901937CFF0A3EFF0A37401F0A3741AF007
:103A7500A37446F09018E9E0FBA3E0FAA3E0240460
:103A8500F9E43AFA90193CEBF0A3EAF0A3E9F0E483
:103A9500A3F09018F5E0FAA3E0FB7F007E45123213
:103AA5007E9018EF1205989018EFE0FCA3E0FDA3B7
:103AB500E0FEA3E0FF78081204C8A3EFF09018EF2A
:103AC500A3A3E0FEA3E0FF9018F4EFF09018ECE05C
:103AD500B40107E49018F9F08012901648E0B4019B
:103AE500047F0180027F009018F9EFF09018E9E05B
:103AF500FBA3E0FAA3E0F99018F9E09018FFF07D38
:103B0500007C08124D86EF64016001227F45128515
:103B1500ADE4FF1285AD9018EDE0FF1285AD90186C
:103B2500EDA3E0FF1285AD9018F5E0FF1285AD908D
:103B350018F5A3E0FF1285ADE4FF1285ADE4FF1291
:103B450085AD9018E9E0FBA3E0FAA3E0F990001D2C
:103B550012013530E4047F0480027F401285AD9068
:103B650018ECE0FF1285AD9018F3E0FF1285AD90DB
:103B750018F4E0FF1285AD901A46E0FF1285AD906E
:103B85001A47E0FF1285AD901A48E0FF1285AD9007
:103B95001A49E0FF1285AD9018E9E0FBA3E0FAA30E
:103BA500E0F9900004120135FF1285AD9018E9E0A7
:103BB500FBA3E0FAA3E0F9900005120135FF128599
:103BC500AD9018E9E0FBA3E0FAA3E0F99000061236
:103BD5000135FF1285AD9018E9E0FBA3E0FAA3E0FB
:0D3BE500F9900007120135FF1285AD7F0138
:013BF20022B0
:10600B009019C6E0FBA3E0FAA3E0F9C003C002C0FD
:10601B0001900A58E0FBA3E0FAA3E0F9D082D08309
:10602B00D0E06B7008E965827003EA658370030248
:10603B0060F29019C6E0FBA3E0FAA3E0F9C003C03D
:10604B0002C001900A58A3E0FAA3E0F9C3D082D0B2
:10605B0083D0E0E99582EA9583501F900A58A3A359
:10606B00E0AE02FF9019C6A3E0FAA3E0C39FFFEADC
:10607B009E901921F0A3EFF080279019C6A3E0FAA8
:10608B00A3E0AE02FF900A58A3E0FAA3E0C39FFF80
:10609B00EA9EFEC3E49F901922F074049E9019218E
:1060AB00F090125DE0FEA3E0FFD3901922E09F90E9
:1060BB001921E09E40030285DEC2AF901921E0FE5C
:1060CB00A3E0FFC390125EE09FF090125DE09EF0A4
:1060DB009019C6E0F9A3E0FAA3E0900A58C9F0A31F
:0760EB00EAF0A3E9F0D2AFD7
:0160F200228B
:10350000E4901926F0127E8A901923EFF0E0FE5421
:103510000FA3F0EEC4540F64046003023753E0FFBE
:10352000C394055003023753EF25E025E0F0C39420
:1035300014A3F0127E8A90191EEFF0127E8AEF908B
:1035400019C4F0A3E4F0127E8A9019C5E02FF09020
:1035500019C4E03EF0C3A3E094149019C4E09400B1
:1035600050037F0022127E8AEF901927F0A3E4F027
:10357000127E8A901928E02FF0901927E03EF01271
:103580007E8AEF901929F0A3E4F0127E8A90192A1E
:10359000E02FF0901929E03EF0A3E030E507901904
:1035A00026E04410F0127E8A90191FEFF0127E8AF6
:1035B000901920EFF014601D14602324F1600D2495
:1035C0000B7024901926E04401F08022901926E027
:1035D0004402F08019901926E04404F080109019FC
:1035E00026E04440F08007901926E04408F0127E5F
:1035F0008A901921EFF0127E8A901922EFF0127E44
:103600008A901A22EFF0127E8A901A23EFF0127E2F
:103610008A901A24EFF0127E8A901A25EFF0901A01
:1036200022E0FFC394E04009EFD394EF50037F0002
:1036300022127E8A9019D1EFF0127E8A9019D2EF71
:10364000F0127E8A9019D3EFF0127E8A9019D4EF8F
:10365000F0127DE0EF7047901A46E0FF9019D1E03C
:10366000FE6F6004EEF47033901A47E0FF9019D2B9
:10367000E0FE6F6004EEB4FF22901A48E0FF90195C
:10368000D3E0FE6F6004EEB4FF11901A49E0FF90A2
:1036900019D4E0FE6F6007EEF460037F00229019FA
:1036A00023E0FE90191EE0FDEDFFC006C007901953
:1036B000C4E0FCA3E0FD901929E0FFA3E0901935D8
:1036C000CFF0A3EFF090191FE0FEA3E0FBEBFF901B
:1036D0001937EEF0A3EFF0A37401F0A37419F0A36F
:1036E00074D1F0A37401F0A3741AF0A37422F090C3
:1036F0001925E090193FF0901927E0FAA3E0FBD0DC
:1037000007D00612327E90192B12059890192BE0E3
:10371000FCA3E0FDA3E0FEA3E0FF78081204C8903C
:103720001921E0B5071190192BA3A3A3E0FF90196D
:1037300022E0FEEF6E60037F0022901924E0FFC3B9
:103740009019C5E09FF09019C4E09400F0901926FC
:05375000E0FF227F00F4
:013755002251
:107DE000E490192FF078D17C197D017B017A1A7902
:107DF0001EFE7F04120B4AEF700590192F04F090BD
:107E0000192FE0702A7B017A1979D11273EAE94AB5
:107E1000601D9000061201356015900007120135B3
:107E2000FF64016004EFB4020690192F7401F09012
:047E3000192FE0FF27
:017E3400222B
:0E327E00901931ECF0A3EDF0A3EAF0A3EBF011
:10328C00E4FCFD901940120598901940E0F8A3E079
:10329C00F9A3E0FAA3E0FBC000C001C002C0039098
:1032AC001939E0FBA3E0FAA3E0F990000112013513
:1032BC00FD12011CFEEDFFE4FCFDD003D002D00199
:1032CC00D000EB2FFFEA3EFEED39FDEC38FC9019F7
:1032DC0040120598901940E0F8A3E0F9A3E0FAA396
:1032EC00E0FBC000C001C002C003901939E0FBA391
:1032FC00E0FAA3E0F9900002120135FE90000312EF
:10330C000135FDEDFFE4FCFDD003D002D001D0006F
:10331C00EB2FFFEA3EFEED39FDEC38FC9019401224
:10332C000598901940E0F8A3E0F9A3E0FAA3E0FBBC
:10333C00901931E0FEA3E0FFE4FCFDEB2FFFEA3E29
:10334C00FEED39FDEC38FC901940120598901940AF
:10335C00E0F8A3E0F9A3E0FAA3E0FB901933E0FE58
:10336C00A3E0FFE4FCFDEB2FFFEA3EFEED39FDECA4
:10337C0038FC901940120598901940E0F8A3E0F938
:10338C00A3E0FAA3E0FB901935E0FEA3E0FFE4FC18
:10339C00FDEB2FFFEA3EFEED39FDEC38FC901940B9
:1033AC00120598901940E0F8A3E0F9A3E0FAA3E025
:1033BC00FB901937E0FEA3E0FFE4FCFDEB2FFFEAE6
:1033CC003EFEED39FDEC38FC901940120598901931
:1033DC0040E0F8A3E0F9A3E0FAA3E0FBC000C001D1
:1033EC00C002C00390193CE0FBA3E0FAA3E0F99003
:1033FC000001120135FD12011CFEEDFFE4FCFDD0B5
:10340C0003D002D001D000EB2FFFEA3EFEED39FDD8
:10341C00EC38FC901940120598901940E0F8A3E0A4
:10342C00F9A3E0FAA3E0FBC000C001C002C0039006
:10343C00193CE0FBA3E0FAA3E0F99000021201357D
:10344C00FE900003120135FDEDFFE4FCFDD003D02E
:10345C0002D001D000EB2FFFEA3EFEED39FDEC3837
:10346C00FC90194012059890193FE0606120E05ED5
:10347C00E4901946F090193FE0FF901946E0C39F85
:10348C00504C127E8AEF901944F0A3E4F0127E8A1D
:10349C00901945E02FF0901944E03EF0901940E06F
:1034AC00F8A3E0F9A3E0FAA3E0FBA3E0FEA3E0FF9E
:1034BC00E4FCFDEB2FFFEA3EFEED39FDEC38FC9011
:1034CC001940120598901946E02402F080A7901933
:1034DC0040E0FCA3E0FDA3E0FEA3E0FF12793190F5
:1034EC001940120598901940E0FCA3E0FDA3E0FE02
:0334FC00A3E0FF4B
:0134FF0022AA
:104A9D009018B974FFF0127E8A9018B8EFF0640880
:104AAD006003024C219019C4E0FEA3E0FFD39448AB
:104ABD00EE94004003024C21C3EF9404EE94005099
:104ACD0003024C21E490193AF0A3F0A304F0E4A3FF
:104ADD00F0F9A3C9F0A3F0A3E9F0E4A3F0A3F07BF0
:104AED00017A1A7922FDFC122C9D9018B9EFF0C3B2
:104AFD00648094805003024C21127E8A9018B8EF86
:104B0D00F09019C5E024FEFE9019C4E034FF901812
:104B1D00BBF0A3CEF09018B9E09019D5F09018BB6A
:104B2D00E0FCA3E0FDEC9019D6F0EDA3F09018BCDD
:104B3D0024FEF09018BBE034FFF0127E8A9018BA74
:104B4D00EFF0127E8A9018BAE02408F0C394085052
:104B5D00010F9018BAE09019D8F0A3EFF09018BD9E
:104B6D007401F0A37419F0A374DAF0900A58A3E05D
:104B7D00FAA3E0FFC3745C9FFF74129ACF2401CF98
:104B8D0034009018C0F0FCA3EFF0FD9018BBE0FED0
:104B9D00A3E0FFD39DEE9C501AA3E0FBA3E0FAA384
:104BAD00E0F8AC02AD03900A58E0FBA3E0FAA3E0F5
:104BBD00F9805E9018C0E0FEA3E0FF9018BDE0FB09
:104BCD00A3E0FAA3E0F8AC02AD03900A58E0FBA312
:104BDD00E0FAA3E0F91200F69018C0E0FEA3E0FFA2
:104BED00C39018BCE09FF09018BBE09EF0E0FCA3D2
:104BFD00E0FDC004C005A3E0FBA3E0FAA3E02FF99C
:104C0D00EA3EA801FCAD037B017A0E795DD007D099
:0C4C1D00061200F612600B9018B9E0FFC0
:014C29002268
:105D3B009019D5E09018BAF0C36480948050030298
:105D4B005E32E0FFFD3395E0FC90127E75F03DED89
:105D5B001205F9EC75F03DA42583F583E020E003F3
:105D6B00025E32EF3395E0FE7C007D3D1201C9747B
:105D7B00602FF974123EFA7B019018BBEBF0A3EA8B
:105D8B00F0A3E9F090001B12013564016003025E81
:105D9B00329019D6E09018B8F0A3E4F09019D7E040
:105DAB00FF9018B9E02FF09018B8E03400F0E0FE47
:105DBB00A3E0FFD39446EE940050647A1979D8C0CF
:105DCB0003C002C0019018BBE0FBA3E0FAA3E0F90B
:105DDB0090000E1206B69018BBE0FBA3E0FAA3E00E
:105DEB00F9900011EE8FF0120399EF2402FFE43EBD
:105DFB009018EDF0A3EFF07D011239A5EF6020E4D0
:105E0B00FF1285ADE4FF1285AD9018BBE0FBA3E05C
:105E1B00FAA3E0F99018B8E0FCA3E0FD1280EE9035
:075E2B0018BAE0FF126B64DE
:015E3200224D
:1085DE00C2AF1283EF9019C67401F0A3740EF0A30C
:0685EE00745DF0D2AF2223
:1084560090193AEFF07B017A0A795D900A4FEBF0BA
:10846600A3EAF0A3E9F0A3EBF0A3EAF0A3E9F02274
:1083EF007B017A0E795D900A58EBF0A3EAF0A3E9CE
:1083FF00F0900A55EBF0A3EAF0A3E9F0E490125DD8
:04840F00F0A3F022C4
:0E8697001283EFE4FF128456E490125FF0228B
:1080B10090125FE0601F7B017A1979357D587C024F
:1080C1001272C17B017A197935127C14EF70069016
:1080D100125FE070EE90125FE070057F011284562E
:0C80E10090125FE070047F0180027F00BD
:0180ED002270
:10859400C2AF438901758C60758A7FD28CD2A9E4FD
:0985A400900A5BF0A3F0D2AF22B3
:10843500C28C758C60758A7FD28C900A5CE004F0E2
:108445007006900A5BE004F01283A41260F3027FC9
:01845500B274
:108413007E037FD07D007B017A127960120B6E128E
:108423007A7F1285941286881283CB1286791286FC
:01843300D474
:018434002225
:106CB100C003C002C00190187FE0FFA3E090193A21
:106CC100CFF0A3EFF0901882E090193CF090188378
:106CD100E090193DF0901884E0F9A3E0FAA3E09068
:106CE100193EC9F0A3EAF0A3E9F0901887E0FFA3E9
:106CF100E0901941CFF0A3EFF0D001D002D0031200
:106D01002C9D901889EFF0901882E06406703D90F8
:106D11001889E0FFC3648094804031EF3395E0FE31
:106D21007C007D3D1201C974602FF974123EFA7B1B
:106D310001901881E0FF125B44D3EF64809480508E
:106D41000B901889E0FF126B647F8422901889E010
:016D5100FF42
:016D5200221E
:102C9D00901935EBF0A3EAF0A3E9F0A3ECF0A3ED66
:012CAD00F036
:102CAE009019437482F090193CE0FE146018146081
:102CBE001524FC601124F5600D240D700E90193D45
:102CCE00E0B420078000E4901943F0901943E0FF30
:102CDE00B4820122901935E0FBA3E0FAA3E0F912C9
:102CEE00011CFFC394E0400DEFD394EF50079019F1
:102CFE003DE04410F0901938E07002A3E0700EEE43
:102D0E006406603690193CE0B41102802D90193C97
:102D1E00E0B40607A3E030E402801F12011C64E059
:102D2E0070219000011201357019900002120135C8
:102D3E00701190000312013570099019437485F0DB
:102D4E00022FCA90193AE0FCA3E0FD901935E0FB82
:102D5E00A3E0FAA3E0F990193CE090194EF0901917
:102D6E0038E0FEA3E0FF12515A901944EBF0A3EAAB
:102D7E00F0A3E9F04A602C901944E0FBA3E0FAA31B
:102D8E00E0F990001C12013575F03DA4247EF58209
:102D9E00E5F03412F583E030E0099019437481F0C8
:102DAE00022FCA12834E901943EFF0648070030213
:102DBE002FCA7E007F3DC006C0077F00C007E0FF20
:102DCE003395E0FE7C007D3D1201C974602FF974CD
:102DDE00123EFA7B01D005D007D006120B6E901969
:102DEE0043E0FF3395E0FE7C007D3D1201C9746027
:102DFE002FF974123EFA7B01A3EBF0A3EAF0A3E9DC
:102E0E00F0901943E090001C1201A7901938E0FFD2
:102E1E00A3E0CF8FF012037A90193AE0FEA3E0FF01
:102E2E00901944E0FBA3E0FAA3E0F9900002EE8FC4
:102E3E00F0120399901935E0FBA3E0FAA3E0F91222
:102E4E00011CFF901944E0FBA3E0FAA3E0F9900007
:102E5E0004EF1201A7901935E0FBA3E0FAA3E0F905
:102E6E00900001120135FF901944E0FBA3E0FAA394
:102E7E00E0F9900005EF1201A7901935E0FBA3E0F1
:102E8E00FAA3E0F9900002120135FF901944E0FB1D
:102E9E00A3E0FAA3E0F9900006EF1201A79019350E
:102EAE00E0FBA3E0FAA3E0F9900003120135FF90D6
:102EBE001944E0FBA3E0FAA3E0F9900007EF12013A
:102ECE00A790193DE0FF6420704490193CE0640423
:102EDE00703C901A4AE09000081201A7901A4BE03D
:102EEE009000091201A7901A4CE090000A1201A757
:102EFE00901A4DE090000B1201A7901A4EE0900030
:102F0E000C1201A7901A4FE090000D1201A7901914
:102F1E003CE0FE901944E0FBA3E0FAA3E0F9900038
:102F2E001BEE1201A790001DEF1201A790193EE0B3
:102F3E00FBA3E0FAA3E0F9EA494B604EA3E0FCA341
:102F4E00E0FD4C6045C003C002C001901944E0FB97
:102F5E00A3E0FAA3E0F99000131206B690193EE032
:102F6E00FBA3E0FAA3E02DF9EA3CFAE924FFF9EA23
:102F7E0034FFFAC003C002C001901944E0FBA3E085
:102F8E00FAA3E0F99000161206B6EEB4060E9019EA
:102F9E0044E0FBA3E0FAA3E0F9125F20901943E0AE
:102FAE00FF3395E0FE90127E75F03DEF1205F9EEBF
:102FBE0075F03DA42583F583E04401F0901943E0BC
:012FCE00FF03
:012FCF0022DF
:10475100901A6EEBF0A3EAF0A3E9F0901A6DEFF076
:10476100901A7674FFF0A37489F0E4A3F0A3F0C368
:10477100EF64809480400B901A6DE0FD648094900A
:1047810040057EFF7F8522EDFF3395E0FE90127E8E
:1047910075F03DEF1205F9EE75F03DA42583F58323
:1047A100E020E0057EFF7F8622901642E0FF700543
:1047B1007EFF7F9D22901648E0B4FF1AEF640A60E5
:1047C10004EFB40B11901632E0FCA3E0FDA3E0FE70
:1047D100A3E0FF125E331275FB901A6DE0FF339573
:1047E100E0FE7C007D3D1201C974602FF974123E18
:1047F100FA901A737401F0A3EAF0A3E9F0901A6E2B
:10480100E0FBA3E0FAA3E0F9EA494B6034A3E0FE40
:10481100A3E0FF4E602BC003C002C001901A73E0F9
:10482100FBA3E0FAA3E0F990000E1206B6901A730A
:10483100E0FBA3E0FAA3E0F9900011EE8FF0120380
:1048410099901A73E0FBA3E0FAA3E0F990001B1220
:104851000135640660030248E3901A73E0FBA3E0AC
:10486100FAA3E0F9123FE8901A78EEF0A3EFF0D343
:104871009400EE648094804060901A76E0B4FF2347
:10488100A3E0B4891E901A6DE0FF7B007A007900E5
:10489100E49018A5F0A31241CE901A76EEF0A3EFA2
:1048A100F080D6901A76E0FEA3E0FFC3EE64809418
:1048B100805011EF64877002EEF46008A3EEF0A35C
:1048C100EFF08015901A73E0FBA3E0FAA3E0F990F2
:1048D10000241202BD45F07080901A78E0FEA3E03A
:1048E100FF22901A73E0FBA3E0FAA3E0F990001B0A
:0C48F100120135B4110302458DE4FEFFF6
:0148FD002298
:10865600901A85E0FDA3E09018A5CDF0A3ED124198
:02866600CE2222
:0941CE00F0A37402F0A37458F090
:0D41D7009018A2EBF0A3EAF0A3E9F0AD0709
:1041E400E49018A9F0A3F0C3ED648094804007ED37
:1041F4006480949040030242C5EDFB3395E0FA904D
:10420400127E75F03DEB1205F9EA75F03DA42583A5
:10421400F583E020E0057EFF7F8622901642E07061
:10422400057EFF7F9D227C007D3DAF03AE0212011F
:10423400C974602FF974123EFA9018AB7401F0A39C
:10424400EAF0A3E9F09018A2E0FBA3E0FAA3E0F9F6
:10425400EA494B604EA3E0FEA3E0FF4E6045C00375
:10426400C002C0019018ABE0FBA3E0FAA3E0F99010
:1042740000131206B69018A2E0FBA3E0FAA3E02F05
:10428400F9EA3EFAE924FFF9EA34FFFAC003C0026E
:10429400C0019018ABE0FBA3E0FAA3E0F99000168C
:1042A4001206B69018ABE0FBA3E0FAA3E0F9900085
:1042B4001B120135B4110F900013120686E94A70DF
:1042C400057EFF7F85229018ABE0F9A3E0FAA3E016
:1042D400A3C9F0A3EAF0A3E9F09018A7E0FCA3E0D7
:1042E400FD4C60097B017A1879B11272C11282986F
:1042F4009018B6EFF0540770299018A7E07002A345
:10430400E0600C7B017A1879B1127C14EF60057EB1
:10431400FF7F87221275FB1286EBBF9AD07EFF7F48
:104324009A229018B6E0FF20E2C3EF30E0197B0137
:104334007A1879AB120C729018A9EEF0A3EFF0BEC4
:10434400FF1DBFFA1A805F9018B6E030E1117B01BF
:104354007A1879AB1225779018A9EEF0A3EFF090B4
:1043640018AEE0FBA3E0FAA3E0F9C003C002C00169
:104374009018ABE0FBA3E0FAA3E0F9D082D083D09D
:10438400E06B7008E965827003EA65836018901831
:10439400AEE0F9A3E0FAA3E09018ABC9F0A3EAF009
:0E43A400A3E9F00242F19018A9E0FEA3E0FFA9
:0143B20022E8
:0569F100901A8BEFF08D
:1069F600C3648094804008E0FD6480949040057EE6
:106A0600FF7F8522EDFF3395E0FE90127E75F03D07
:106A1600EF1205F9EE75F03DA42583F583E020E03D
:106A2600057EFF7F8622901642E0700D901A8BE05D
:106A3600FF126B647EFF7F9D22901A8BE0FF3395D9
:106A4600E0FE7C007D3D1201C974602FF974123E90
:106A5600FA7B01A3EBF0A3EAF0A3E9F090001B1286
:106A66000135B4060E901A8CE0FBA3E0FAA3E0F918
:106A7600128072901A8BE0FF3395E0FE90127E75BD
:106A8600F03DEF1205F9EE75F03DA42583F583E49C
:106A9600F0901A8CE0FBA3E0FAA3E0F9E4F5F0121B
:056AA600037AE4FEFF8D
:016AAB0022C8
:056B6400901935EFF06F
:106B6900C3648094804008E0FD6480949040057E71
:106B7900FF7F8522EDFF3395E0FE90127E75F03D93
:106B8900EF1205F9EE75F03DA42583F583E020E0C9
:106B9900057EFF7F8622901935E0FF3395E0FE7C64
:106BA900007D3D1201C974602FF974123EFA7B0110
:106BB900A3EBF0A3EAF0A3E9F090001B120135B4AE
:106BC900060E901936E0FBA3E0FAA3E0F9127BB3B5
:106BD900901935E0FF3395E0FE90127E75F03DEF98
:106BE9001205F9EE75F03DA42583F583E4F09019BB
:106BF90036E0FBA3E0FAA3E0F9E4F5F012037AE446
:026C0900FEFF8C
:016C0B002266
:1080EE00901642E06033E94A601390001B1201358E
:1080FE00B4060A90002074FF120162800090125F95
:10810E007401F0122FD0E490125FF0D3EF9400EED2
:0B811E006480948040057F01227F9D5B
:018129002233
:10832200EE7024EF24EC601314601024FC6010241F
:10833200D4601024F570107D81800E7D02800A7D4C
:0B8342000480067D088002E4FDAF050A
:01834D00220D
:10515A00901947EEF0A3EFF0A3ECF0A3EDF0A3EB68
:07516A00F0A3EAF0A3E9F055
:10517100901648E0901953F0901950E4F0A3F0A371
:10518100F090194BA3E0FAA3E04A7003025287E4BE
:1051910090194FF090194FE0FFC394104003025251
:1051A1008775F03DEFA42460F582E5F03412F583B4
:1051B100E0FEA3E0FF901947E0FCA3E0FDEF6D7076
:1051C10002EE6C600302527E90194FE0FF75F03DD4
:1051D100A42462F582E5F03412F583E0FCA3E0FD3E
:1051E100901949E0FAA3E0FBED6B7002EC6A6003F1
:1051F10002527E75F03DEFA4247BF582E5F0341276
:10520100F583E0FF90194EE0FEEF6E707090195338
:10521100E0B4012490194FE075F03DA42464F974C1
:105221001235F0A801FC7D017B017A1979C97E0054
:105231007F04120B4AEF602990194FE075F03DA4ED
:105241002464F9741235F0A801FC7D0190194BE03A
:10525100FBA3E0FAA3E0F97E007F04120B4AEF7092
:105261001C90194FE075F03DA42460F9741235F0DB
:10527100FAA37401F0A3EAF0A3E9F0800990194FB1
:10528100E004F0025195901950E0FBA3E0FAA3E08D
:01529100F923
:0152920022F9
:10834E007F80E4FEEEFD3395E0FC90127E75F03DED
:10835E00ED1205F9EC75F03DA42583F583E020E0E0
:0A836E0004AF0680050EEEB410DA2D
:0183780022E2
:0400030012861D2222
:0B2577009018B7EBF0A3EAF0A3E9F026
:10258200127E8AEF9018C0F0A3E4F0127E8A9018AF
:10259200C1E02FF09018C0E03EF0127E8AEF901852
:1025A200BEF0A3E4F0127E8A9018BFE02FF09018DC
:1025B200BEE03EF0E0FEA3E0FFA3E0FCA3E0FD7B73
:1025C200017A1A792290194E7411F012515A901808
:1025D200CAEBF0A3EAF0A3E9F04A600302266F9087
:1025E20018BEE0FEA3E0FF7B017A1A792290194E11
:1025F2007411F0E4FDFC12515A9018CAEBF0A3EAF0
:10260200F0A3E9F04A70259018BEE0FEA3E0FF7B3C
:10261200017A1979CD90194E7411F0E4FDFC125132
:102622005A9018CAEBF0A3EAF0A3E9F09018CAE0B6
:10263200FBA3E0FAA3E0F94A60129018C0E0FFA3FE
:10264200E0900002CF8FF012039980217B007A0084
:102652007900C003C002C0019018B7E0FBA3E0FA02
:10266200A3E0F912063712600BE4FEFF229018CAAB
:10267200E0FBA3E0FAA3E0F9C003C002C001901896
:10268200B7E0FBA3E0FAA3E0F91206379018CAE01C
:10269200FBA3E0FAA3E0F990000412013570549014
:1026A200001D12013530E4239019D1E0900004128C
:1026B20001A79019D2E09000051201A79019D3E06A
:1026C2009000061201A79019D48021901A22E0905E
:1026D20000041201A7901A23E09000051201A790AE
:1026E2001A24E09000061201A7901A25E090000734
:1026F2001201A7127E8AEF9018C4F0A3E4F0127EB2
:102702008A9018C5E02FF09018C4E03EF0C3A3E011
:1027120094089018C4E0940050227B007A0079005B
:10272200C003C002C0019018B7E0FBA3E0FAA3E027
:10273200F912063712600B7EFF7FFF22127E8AEFAC
:102742009018BCF0A3E4F0127E8A9018BDE02FF03E
:102752009018BCE03EF09018C61205A400000000DC
:10276200E49018CDF0A3F09018BCE07002A3E060F2
:10277200429018C4E0FCA3E0FD9018C0E0FFA3E083
:102782009018EECFF0A3EFF0A37401F0A37419F048
:10279200A374D1F0A37401F0A3741AF0A37422F00D
:1027A2009018BEE0FAA3E0FB7F11123BF39018C62B
:1027B2001205989018C5E024F8F09018C4E034FF90
:1027C200F0E0FEA3E0FF9018C2EEF0A3EFF04E702F
:1027D200030228BBE49018BBF09018C2E0FEA3E00D
:1027E200FF9018CAE0FBA3E0FAA3E0F91286DF1219
:1027F2007E8A9018BAEFF09018BCE07002A3E060F5
:10280200579018BBE09018BA700FE09018CDF0A363
:10281200E4F09018BB04F0803FE0FF9018CEE02F68
:10282200F09018CDE03400F09018C6E0F8A3E0F97B
:10283200A3E0FAA3E0FB9018CDE0FEA3E0FFE4FCE6
:10284200FDEB2FFFEA3EFEED39FDEC38FC9018C699
:10285200120598E49018BBF09018BAE0FF9018CADD
:10286200E0FBA3E0FAA3E0F9126C0C9018C274FF2B
:10287200F5F012026645F060030227F19018BCE001
:102882007002A3E060479018BBE060419018C6E078
:10289200F8A3E0F9A3E0FAA3E0FB9018CDE0FEA3D1
:1028A200E0FFE4FCFDEB2FFFEA3EFEED39FDEC38E4
:1028B200FC9018C612059880149018CAE0FBA3E099
:1028C200FAA3E0F9900019E4F5F01203999018BC0C
:1028D200E07002A3E0603E9018C6E0FCA3E0FDA316
:1028E200E0FEA3E0FF1279319018C6120598901805
:1028F200BCE0FEA3E0FFE4FCFD9018C6E0F8A3E014
:10290200F9A3E0FAA3E0FBC31204B7600812600B5C
:102912007EFF7FFC229018CAE0FBA3E0FAA3E0F955
:1029220012000712600B9018CAE0FBA3E0FAA3E0C2
:0A293200F99000191202BDFFAEF08B
:01293C002278
:0B458D009018A1EBF0A3EAF0A3E9F006
:104598004A70057EFF7F85229018A1E0FBA3E0FA10
:1045A800A3E0F91282C69018A4EEF0A3EFF04E70C3
:1045B80003FEFF229018A1E0FBA3E0FAA3E0F99024
:1045C800000E1206869018A8EBF0A3EAF0A3E9F013
:1045D8009018A5E02408FF9018A4E03400FE901875
:1045E800A6F0FCA3EFF0FD9018A1E0FBA3E0FAA36E
:1045F800E0F9120292FBAAF0C002C0039018A1E0F1
:10460800FBA3E0FA9000021202BDFF9018EEE5F05D
:10461800F0A3EFF0A37401F0A3741AF0A37446F0AA
:104628009018A1A3A3E02404F9E43AFA9018F3EB54
:10463800F0A3EAF0A3E9F0D003D0027F11123BF314
:10464800C0079018A8E0FBA3E0FAA3E0F99018A42B
:10465800E0FFA3E09018F0CFF0A3EFF0D0071257D7
:104668001F1279319018ABEEF0A3EFF09018A1E08B
:10467800FBA3E0FAA3E0F990001B120135FD9018A6
:10468800A6E0FFA3E09018EDCFF0A3EFF09018A1FB
:10469800A3A3E01239A5EF6401600302473690181E
:1046A800A1E0FBA3E0FAA3E0F9120292E5F0FF1201
:1046B80085AD9018A1E0FBA3E0FAA3E0F9120292FD
:1046C800FF1285AD9018A1E0FBA3E0FAA3E0F990F2
:1046D80000021202BDE5F0FF1285AD9018A1E0FBC3
:1046E800A3E0FAA3E0F99000021202BDFF1285AD23
:1046F8009018A6E0FF1285AD9018A6A3E0FF1285DA
:10470800AD9018ABE0FF1285AD9018ABA3E0FF1297
:1047180085AD9018A1E0FBA3E0FAA3E0F9A3E0FCC3
:10472800A3E0FD1280EED3EF648094805006EF334F
:1047380095E0FE229018A1E0FBA3E0FAA3E0F9902F
:0847480000111202BDFFAEF0EA
:014750002246
:10293D0090193074FFF0127E8AEF4E6003022C97CF
:10294D00127E8AEF64014E6003022C97127E8AEF8D
:10295D0064084E6003022C97127E8AEF4E600302CC
:10296D002C97127E8AEF64064E6003022C97127E1E
:10297D008AEF64044E6003022C97127E8AEF4E603C
:10298D0003022C97127E8AEF24FE7003022BCE04D5
:10299D006003022C97E4901921F0127E8A90192180
:1029AD00E0242AF582E43419F583EFF0901921E043
:1029BD0004F0E0C3940640E2E4901921F0127E8AFF
:1029CD00901921E02426F582E43419F583EFF09077
:1029DD001921E004F0E0C3940440E2E4901921F0E1
:1029ED00127E8A901921E004F0E0C3940640F1E4D0
:1029FD00901921F0127E8A901921E02422F582E4AB
:102A0D003419F583EFF0901921E004F0E0C394043C
:102A1D0040E2901A46E0FF901922E06F6003022C0D
:102A2D0097901A47E0FF901923E06F6003022C97EF
:102A3D00901A48E0FF901924E06F6003022C9790E4
:102A4D001A49E0FF901925E06F6003022C977B0176
:102A5D0090193804F0A37419F0A3742AF07A197937
:102A6D00261266EC74FF90193AF0A3F0A37404F0EB
:102A7D00A37420F0A3E4F0A3F0A3F0A3F0A3F07BE4
:102A8D00017A19792674FFFDFC122C9D901931EFF6
:102A9D00F0C3648094805003022C97901648E0F4A4
:102AAD006003022BC31280B1EF7003022BC3901988
:102ABD0031E0FF3395E0FE7C007D3D1201C974606D
:102ACD002FF974123EFA7B01A3EBF0A3EAF0A3E910
:102ADD00F0E4FD128239E4FF1285AD7F021285AD5F
:102AED00E4901921F0901921E0FFC394065017745A
:102AFD00062FF582E43400F583E0FF1285AD9019C1
:102B0D0021E004F080DFE4901921F0901921E0FF1D
:102B1D00C39404501774222FF582E43419F583E021
:102B2D00FF1285AD901921E004F080DFE4901921AA
:102B3D00F0901921E0FFC394065027901932E0FB65
:102B4D00A3E0FAA3E02408F9E43AFA7E00E92FF9AC
:102B5D00EE3AFA12011CFF1285AD901921E004F036
:102B6D0080CFE4901921F0901921E0FFC394045017
:102B7D0027901932E0FBA3E0FAA3E02404F9E43A2C
:102B8D00FA7E00E92FF9EE3AFA12011CFF1285AD1B
:102B9D00901921E004F080CF901932E0FBA3E0FA08
:102BAD00A3E0F9E4FDFC1280EED3EF648094804045
:102BBD0005E4901930F0901931E0FF126B64022C8E
:102BCD0097E4901921F0127E8A901921E0242AF5BC
:102BDD0082E43419F583EFF0901921E004F0E0C39D
:102BED00940640E2E4901921F0127E8A901921E0BA
:102BFD002426F582E43419F583EFF0901921E004D1
:102C0D00F0E0C3940440E2E4901921F0127E8A9022
:102C1D001921E004F0E0C3940640F1E4901921F08D
:102C2D00127E8A901921E02422F582E43419F5836D
:102C3D00EFF0901921E004F0E0C3940440E2901A03
:102C4D0046E0FF901922E06F7040901A47E0FF9028
:102C5D001923E06F7034901A48E0FF901924E0B505
:102C6D000728901A49E0FF901925E0B5071C901927
:102C7D00387401F0A37419F0A3742AF07B017A194A
:0F2C8D0079261266ECE4901930F0901930E0FFD0
:012C9C002215
:0F8679007E007F6E7D007B017A197954020B6EB3
:0366EC00901935CD
:1066EF0012784E90193BEBF0A3EAF0A3E9F04A7051
:1066FF000E1277DB90193BEBF0A3EAF0A3E9F090D1
:10670F00193BE0FBA3E0FAA3E0F990000A12013570
:10671F0030E0030267B2E9240AF9E43AFA12011CE5
:10672F004401120195E4FF901935E0FBA3E0FAA3B1
:10673F00E0F98F82758300120135FE90193BE0FB63
:10674F00A3E0FAA3E0F98F82758300EE1201A70F81
:10675F00EFB404D3E4FF901938E0FBA3E0FAA3E011
:10676F00F98F82758300120135FE90193BE0FBA370
:10677F00E0FAA3E02404F9E43AFAEF7C0029F9ECFB
:10678F003AFAEE1201950FEFB406CB90193BE0FBEE
:10679F00A3E0FAA3E0240AF9E43AFA12011C54FE2A
:0367AF001201953F
:0167B20022C4
:0362B70090190437
:1062BA0012784E901907EBF0A3EAF0A3E9F04A60CE
:1062CA0003026388F9901907C9F0A3F0A3E9F074EF
:1062DA00FF90193AF0A3F0A37404F0A37420F0A37A
:1062EA00E4F0A3F0A3F0A3F0A3F0901904E0FBA359
:1062FA00E0FAA3E0F974FFFDFC122C9D90190BEF54
:10630A00F0C3648094804076E0FF3395E0FE7C0021
:10631A007D3D1201C974602FF974123EFAA374010B
:10632A00F0A3EAF0A3E9F0E490190AF090190CE05E
:10633A00FBA3E0FAA3E0F9125C40EF603990190C74
:10634A00E0FBA3E0FAA3E0F9127F6EEF601C90195C
:10635A0004E0FBA3E0FAA3E0F9127856901907EBE0
:10636A00F0A3EAF0A3E9F04A700C90190AE004F0ED
:10637A00E0C3940640B690190BE0FF126B649019C3
:09638A0007E0FBA3E0FAA3E0F92F
:0163930022E7
:08784E00EBF0A3EAF0A3E9F05E
:0B78560090193EEBF0A3EAF0A3E9F06C
:10786100E4A3F0901941E0FFC3940A504BEF75F087
:107871000BA42454F9741935F0FA7B01C003C0023A
:1078810090193EE0FBA3E0FAA3E0F8AC02AD03D00F
:1078910002D0037E007F04120B4AEF70139019414E
:1078A100E075F00BA42454F9741935F0FA7B012228
:0E78B100901941E004F080AB7B007A00790072
:0178BF0022A6
:1077DB00E490193EF090193EE0FFC3940A501FEF5E
:1077EB0075F00BA42454F582E43419F583E070068C
:1077FB0090193EE0803E90193EE004F080D712864F
:10780B00A57C007D0A1201DB90193EEDF090193E2C
:10781B00E0FF75F00BA4245EF582E43419F583E0E8
:10782B0030E01090193EE004F0E075F00A84E5F0CA
:10783B00F080DAEF75F00BA42454F9741935F0FAD3
:02784B007B01BF
:01784D002218
:0B5C400090190FEBF0A3EAF0A3E9F0CD
:105C4B00E4901913F0901648E064017003025D357F
:105C5B001280B1EF7003025D3590190FE0FBA3E0EA
:105C6B00FAA3E0F97D01128239E4FF1285AD7F01C1
:105C7B001285ADE4901912F0901912E0FFC394064F
:105C8B00501774062FF582E43400F583E0FF12857C
:105C9B00AD901912E004F080DFE4901912F0901926
:105CAB0012E0FFC39404501774462FF582E4341AA4
:105CBB00F583E0FF1285AD901912E004F080DFE46C
:105CCB00901912F0E4FF1285AD901912E004F0E088
:105CDB00C3940640EFE4901912F0901912E0FFC341
:105CEB009404502790190FE0FBA3E0FAA3E02404DF
:105CFB00F9E43AFA7E00E92FF9EE3AFA12011CFFA9
:105D0B001285AD901912E004F080CF90190FE0FBD3
:105D1B00A3E0FAA3E0F9E4FDFC1280EED3EF64807C
:0F5D2B00948040069019137401F0901913E0FF53
:015D3A002246
:0B7F6E0090190FEBF0A3EAF0A3E9F07C
:107F79007B017A1979137D587C021272C17B017ACF
:107F8900197913127C14EF701D12582D901912EFE4
:107F9900F030E5037F0122901912E0FF60DF20E352
:087FA900DC12600B80D77F00A1
:017FB10022AD
:0E853700441A58C0A80202441A46C0A8020303
:0B82C6009018ADEBF0A3EAF0A3E9F084
:1082D10090000E120686E94A7004FEFF8014901881
:1082E100ADE0FBA3E0FAA3E0F99000111202BDFF9B
:0282F100AEF0ED
:0182F3002268
:0986DF00900019E4F5F002039982
:0B6C0C009018CFEBF0A3EAF0A3E9F032
:106C1700900013120686E94A7003026CB09018CFF1
:106C2700E0FBA3E0FAA3E0F9900013120686C00385
:106C3700C002C0019018CFE0FBA3E0FAA3E0F990EF
:106C470000191202BDD001D002D00329F9EA35F0AC
:106C5700FA9018D2EBF0A3EAF0A3E9F09018CFE08E
:106C6700FBA3E0FAA3E0F9900016120686C003C062
:106C770002C0019018D2A3E0FAA3E0F9D3D082D0E2
:106C870083D0E0E99582EA9583501E9018D2E0FB05
:106C9700EF1201959018CFE0FBA3E0FAA3E0F9907B
:096CA7000019E475F00112032D3F
:016CB00022C1
:030007007F012254
:106DF3009018D7EBF0A3EAF0A3E9F09018D7E0FBE3
:106E0300A3E0FAA3E0F99000111202BDFDACF0D3A8
:106E1300EF9DEE9C40028004AC06AD07AE04AF05C7
:106E23009000111202BDD39400E5F09400401E902F
:106E330018D7E0FBA3E0FAA3E02411F9E43AFA122D
:106E43000292C39FFDE5F09E8DF012037A9018D74E
:106E5300E0FBA3E0FAA3E0F99000111202BDD39482
:106E630000E5F09400400A90000EA3EE8FF00203B9
:106E73002D7B007A007900C003C002C0019018D7AF
:0F6E8300E0FBA3E0FAA3E0F990000E1206B6229E
:0386E8007F0022EE
:0386EB007F0022EB
:0386EE007F0022E8
:0B86D400C2AF128697D2AF126394224F
:10746F0090192074FFF0901642E06078E490191F95
:10747F00F0127E8A90191FE004F0E0C3940640F1E9
:10748F00E490191FF0127E8A90191FE0244AF582AA
:10749F00E4341AF583EFF090191FE004F0E0C39481
:1074AF000640E2127E8A90191EEFF0127E8A901922
:1074BF001EE0B40821EF24FA600C2406701890190E
:1074CF00207401F08010901648E0640160081229C2
:1074DF003D901920EFF0901920E0D36480948050F4
:0974EF000312600B901920E0FF6C
:0174F8002271
:0B4D86009018FAEBF0A3EAF0A3E9F0AC
:104D91004A70037F8522901642E070037F9D22AE08
:104DA10004AF05ED6003024EDAEE24F86003024E13
:104DB100DA9018FAE0FBA3E0FAA3E0F990001D12E3
:104DC100013530E44090000874011201A7900009F8
:104DD100E41201A790000A745E1201A79000051267
:104DE1000135547F90000B1201A790000612013586
:104DF10090000C1201A790000712013590000D12CE
:104E010001A7024EB49018FFE06003024EB4901A5D
:104E110054E0FFF4601EEF601BE92404F9E43AFA60
:104E21009019077401F0A3741AF0A37446F01237B5
:104E310056EF60129018FAE0FBA3E0FAA3E0240415
:104E4100F9E43AFA80067B017A1A79541262B79032
:104E51001900EBF0A3EAF0A3E9F0901900A3E0FA3E
:104E6100A3E04A604BE4A3F0901903E0FFC394066A
:104E71005041901900E0FBA3E0FAA3E02404F9E417
:104E81003AFA7E00E92FF9EE3AFA12011CFD901868
:104E9100FAE0FBA3E0FAA3E02408F9E43AFAE92FE7
:104EA100F9EE3AFAED120195901903E004F080B899
:104EB1007FA1221280B1EF70037F8F229018FAE058
:104EC100FBA3E0FAA3E0F99018FFE0FD1274F97F6B
:0B4ED100081285ADE4FF1285AD7F01E3
:014EDC0022B3
:10823900E94A602B1274F97F081285AD7F06128511
:10824900ADE4FF1285AD7F011285AD7F081285ADC2
:10825900E4FF1285AD7F061285AD7F041285AD223C
:10854600900A52E0FBA3E0FAA3E0F912011CFF90A7
:098556000A53E475F001120266FB
:01855F0022F9
:107F2500900A55E0FBA3E0FAA3E0F9EF1201959062
:107F35000A56E475F001120266900A55A3E0FAA309
:107F4500E0D390125C9582EA9583400E900A5574B1
:107F550001F0A3740EF0A3745DF090125EE004F0DE
:097F6500700690125DE004F022A8
:0B74F900901935EBF0A3EAF0A3E9F0D6
:107504004A6075ED6016E4A3F07FFF1285AD901913
:1075140038E004F0E0C3940640EF8036E490193874
:10752400F0901938E0FFC394065027901935E0FB1A
:10753400A3E0FAA3E02408F9E43AFA7E00E92FF97B
:10754400EE3AFA12011CFF1285AD901938E004F0EE
:1075540080CFE4901938F0901938E0FFC3940650B6
:107564001774062FF582E43400F583E0FF1285AD2D
:08757400901938E004F080DFFB
:01757C0022EC
:0B375600901904EBF0A3EAF0A3E9F0E7
:10376100900001120135FFE4FCFDFE78101204DB2C
:10377100C004C005C006C007901904E0FBA3E0FA2D
:10378100A3E0F912011CFFE4FCFDFE78181204DB32
:10379100D003D002D001D000EF4BFFEE4AFEED493D
:1037A100FDEC48FCC004C005C006C007901904E048
:1037B100FBA3E0FAA3E0F9900002120135FFE4FC5B
:1037C100FDFE78081204DBD003D002D001D000EF57
:1037D1004BFFEE4AFEED49FDEC48FCC004C005C0BC
:1037E10006C007901904E0FBA3E0FAA3E0F99000FA
:1037F10003120135FFD003D002D001D000EB4FFFFF
:10380100EAFEE9FDE8FC90190A120598901A51E0C8
:10381100FFE4FCFDFE78101204DBC004C005C00605
:10382100C007901A50E0FFE4FCFDFE78181204DB9B
:10383100D003D002D001D000EF4BFFEE4AFEED499C
:10384100FDEC48FCC004C005C006C007901A52E058
:10385100FFE4FCFDFE78081204DBD003D002D001A6
:10386100D000EF4BFBEE4AFAED49F9EC48F8A3E042
:10387100FFEB4FFFEAFEE9FDE8FC90190E120598F7
:1038810090190EE0FCA3E0FDA3E0FEA3E0FF901978
:103891000AE0F8A3E0F9A3E0FAA3E05FFFEA5EFE25
:1038A100E95DFDE85CFC901912120598901907E09A
:1038B100FBA3E0FAA3E0F9900001120135FFE4FC5B
:1038C100FDFE78101204DBC004C005C006C007125B
:1038D100011CFFE4FCFDFE78181204DBD003D002CA
:1038E100D001D000EF4BFFEE4AFEED49FDEC48FC64
:1038F100C004C005C006C007901907E0FBA3E0FAA9
:10390100A3E0F9900002120135FFE4FCFDFE780806
:103911001204DBD003D002D001D000EF4BFFEE4AFE
:10392100FEED49FDEC48FCC004C005C006C007908F
:103931001907E0FBA3E0FAA3E0F9900003120135B7
:10394100FFD003D002D001D000EB4FFFEAFEE9FD2A
:10395100E8FC90190A12059890190EE0FCA3E0FD0D
:10396100A3E0FEA3E0FF90190AE0F8A3E0F9A3E0C9
:10397100FAA3E05FFFEA5EFEE95DFDE85CFC9019F9
:1039810012E0F8A3E0F9A3E0FAA3E0FBC31204B745
:10399100700790191604F08005E4901916F090193B
:0339A10016E0FF2E
:0139A4002200
:1063940090C00BE0FE90C00AE07C002400FFEC3EBD
:1063A400FEEF7003EE64306002803BE4FFFE128572
:1063B40060EF640E7003EE6463600280297F207EC8
:1063C40000128560EF7003EE64036002801812838C
:1063D40079E4FDFC7F22FE12860E7F227E00128568
:1063E40060EF540F60057EFF7F8B227F0A128609BF
:1063F4007F021286097D807C097F047E0112860E4D
:10640400E4FDFC7F067E0112860E900007E0FE90FC
:106414000006E0FDEEFCED7F587E0112860E900032
:1064240009E0FE900008E0FDEEFCED7F5A7E0112CB
:10643400860E90000BE0FE90000AE0FDEEFCED7F7E
:106444005C7E0112860EE4FDFC7F187E0112860E2E
:10645400E4FDFC7F167E0112860E7DC07C007F1257
:0A6464007E0112860E7E007F0122E9
:102FD000901935EBF0A3EAF0A3E9F0A3ECF0A3ED30
:012FE000F000
:102FE100E4901944F0A3F0A3F0900A4FE0FBA3E0B2
:102FF100FAA3E0F9C003C002C001900A52E0FBA3AA
:10300100E0FAA3E0F9D082D083D0E06B7008E965E3
:10301100827003EA65837003023275900A52A3E05D
:10302100FAA3E0AE02FF900A4FA3E0FAA3E0C39F28
:10303100FFEA9E901940F0A3EFF0901938E0FEA34B
:10304100E0FF4E6029901935E0FBA3E0FAA3E0F917
:1030510090000E120686E94A601490194CEBF0A319
:10306100EAF0A3E9F0EF5401901946F0801A9019A3
:1030710041E030E013E4FF1285AD901941E004F026
:103081007006901940E004F0901940E0FEA3E0FFC3
:10309100901939E02FFF901938E03EFE901942F067
:1030A100A3EFF0D394EEEE94054002806290C00449
:1030B10074C0F0A3E4F0901942E0FEA3E090C006D2
:1030C100F0EEA3F07B017A1979477D057C0012723D
:1030D100C17B017A197947127C14EF70187F387E11
:1030E10001128560EE30E0E9901942E0FFA3E0A310
:1030F100CFF0A3EFF0901944E07002A3E070057ED9
:10310100FF7F8F227F387E01128560EF30E7057ED9
:10311100FF7F8C22E490193AF0A3F0901940E0FE71
:10312100A3E0FFC390193BE09F90193AE09E5048FD
:10313100900A52E0FBA3E0FAA3E0F912011C90C04F
:1031410000F0900A53E475F001120266900A52E011
:10315100FBA3E0FAA3E0F912011C90C001F0900A70
:1031610053E475F00112026690193BE02402F090DD
:10317100193AE03400F080A3901946E0600E9019EE
:1031810039E024FFF0901938E034FFF0E490193A67
:10319100F0A3F0901938E0FEA3E0FFC390193BE0E3
:1031A1009F90193AE09E503E90194CE0FBA3E475C4
:1031B100F00112027CA9F0FA12011C90C000F090FB
:1031C100194CE0FBA3E475F00112027CA9F0FA129C
:1031D100011C90C001F090193BE02402F090193AD3
:1031E100E03400F080AD901946E0601590194CE094
:1031F100FBA3E0FAA3E0F912011C90C000F0A3E4E4
:10320100F090193C1205A4000000007F407E0D7D66
:10321100037C0090193CE0F8A3E0F9A3E0FAA3E0F5
:10322100FBC31204B7504D7F287E011285609019AF
:103231003AEEF0A3EFF0EE5486FEEF54C04E600C70
:1032410090194474FFF0A3748CF0802890193AE02F
:1032510020E02190193CE0FCA3E0FDA3E0FEA3E007
:103261002401FFE43EFEE43DFDE43CFC90193C12E8
:0C32710005988097901944E0FEA3E0FF50
:01327D00222E
:103DF700E4901927F0A3F07F247E01128560EE205E
:103E0700E03B7B017A1979227D057C001272C17B28
:103E1700017A197922127C14EF70137F247E011224
:103E27008560EE30E0E9901927E4F0A304F09019DB
:103E370027E07002A3E070057EFF7F872290C00114
:103E4700E0FE90C000E07C002400FFEC3E90191ECD
:103E5700F0A3EFF090191EE0FEA3E0FF1286F190A9
:103E6700C001E0FE90C000E07C002400FFEC3E9023
:103E77001920F0A3EFF0901920E0FCA3E0FD540116
:103E8700901929F090125DE0FEA3E0FFC374FE9F36
:103E9700FF74039EFED3ED9FEC9E4003023FCA9042
:103EA7001920E0FEA3E0FF901927EEF0A3EFF0EE54
:103EB700FF127F25901920A3E0FF127F2590192973
:103EC700E0600E901921E024FFF0901920E034FF04
:103ED700F0E4FFFED3901921E09F901920E09E5057
:103EE70003023F7990C000E0FD900A55E0FBA3E094
:103EF700FAA3E0F9ED120195900A55A3E475F001D4
:103F0700120266FAD390125CE5F09582EA95834037
:103F17000E900A557401F0A3740EF0A3745DF0902F
:103F2700C001E0FD900A55E0FBA3E0FAA3E0F9ED3C
:103F3700120195900A55A3E475F001120266FAD3AF
:103F470090125CE5F09582EA9583400E900A5574CD
:103F570001F0A3740EF0A3745DF090125EE02402EA
:103F6700F090125DE03400F074022FFFE43EFE0291
:103F77003EDB901929E0606090C000E0FF900A5591
:103F8700E0FBA3E0FAA3E0F9EF120195900A55A32D
:103F9700E475F001120266FAD390125CE5F095829F
:103FA700EA9583400E900A557401F0A3740EF0A3AE
:103FB700745DF090125EE004F0700690125DE0040C
:103FC700F080157D407C007F027E0112860E9019DD
:103FD7002774FFF0A3748DF0901927E0FEA3E0FF8C
:013FE70022B7
:10856000EF90C00AF0EEA3F090C00DE0FE90C00CBA
:0A857000E07C002400FFEC3EFE2238
:05860900E4FDFC7E0110
:0F860E00EF90C00AF0EEA3F0EDA3F0ECA3F02282
:108379007D407C007F147E0112860E7F021E1285CD
:108389007A7F017E0012857A7F147E011285607FD3
:0B839900367E01128560EF30E7E7221E
:0186F1002266
:10861D007F347E01128560EF30E7057E007F0122F9
:03862D00E4FEFF69
:018630002227
:103BF3009018E9EFF0A3ECF0A3EDF0A3EAF0A3EB48
:013C0300F0D0
:103C04009018F0E0FBA3E0FAA3E0F99000011201A0
:103C140035FD12011CFEEDFFE4FCFD9018F61205C3
:103C2400989018F6E0F8A3E0F9A3E0FAA3E0FBC04B
:103C340000C001C002C0039018F0E0FBA3E0FAA3A7
:103C4400E0F9900002120135FE900003120135FDE7
:103C5400EDFFE4FCFDD003D002D001D000EB2FFF38
:103C6400EA3EFEED39FDEC38FC9018F6120598900A
:103C740018F6E0F8A3E0F9A3E0FAA3E0FBC000C063
:103C840001C002C0039018F3E0FBA3E0FAA3E0F93B
:103C9400900001120135FD12011CFEEDFFE4FCFD54
:103CA400D003D002D001D000EB2FFFEA3EFEED3965
:103CB400FDEC38FC9018F61205989018F6E0F8A37D
:103CC400E0F9A3E0FAA3E0FBC000C001C002C00316
:103CD4009018F3E0FBA3E0FAA3E0F99000021201CC
:103CE40035FE900003120135FDEDFFE4FCFDD00329
:103CF400D002D001D000EB2FFFEA3EFEED39FDECFF
:103D040038FC9018F61205989018F6E0F8A3E0F93C
:103D1400A3E0FAA3E0FB9018E9E0FFE4FCFDFEEB6E
:103D24002FFFEE3AFEED39FDEC38FC9018F6120543
:103D3400989018F6E0F8A3E0F9A3E0FAA3E0FB906A
:103D440018EAE0FEA3E0FFE4FCFDEB2FFFEA3EFEF1
:103D5400ED39FDEC38FC9018F61205989018F6E051
:103D6400F8A3E0F9A3E0FAA3E0FB9018ECE0FEA3CB
:103D7400E0FFE4FCFDEB2FFFEA3EFEED39FDEC38FD
:103D8400FC9018F61205989018F6E0F8A3E0F9A351
:103D9400E0FAA3E0FB9018EEE0FEA3E0FFE4FCFDF4
:103DA400EB2FFFEA3EFEED39FDEC38FC9018F612DD
:103DB40005989018E9E0B4112B9018F6E0F8A3E008
:103DC400F9A3E0FAA3E0FB9018EAE0FEA3E0FFE425
:103DD400FCFDEB2FFFEA3EFEED39FDEC38FC9018BC
:103DE400F61205989018F6E0FCA3E0FDA3E0FEA30C
:023DF400E0FFEE
:013DF60022AA
:10571F009018E91205989018EDEBF0A3EAF0A3E9C1
:01572F00F089
:10573000A3E07002A3E0700302581E9018F0E0FC92
:10574000A3E0FD54019018F4F0ECC313FFED1390A7
:1057500018F0CFF0A3EFF09018F074FFF5F01202FC
:105760007C45F060689018EDE0FBA3E475F0011251
:10577000027CA9F0FA12011C9018F2F0A3E4F09058
:1057800018EDE0FBA3E475F00112027CA9F0FA1217
:10579000011CFF9018F3E02FF09018F2E03400F0B5
:1057A0009018E9E0F8A3E0F9A3E0FAA3E0FB901871
:1057B000F2E0FEA3E0FFE4FCFDEB2FFFEA3EFEED8E
:1057C00039FDEC38FC9018E9120598808A9018F49D
:1057D000E0604B9018EDE0FBA3E0FAA3E0F91201C2
:1057E0001C7F00FE9018F2F0A3EFF09018F2EEF09C
:1057F000A3EFF09018E9E0F8A3E0F9A3E0FAA3E042
:10580000FB9018F2E0FEA3E0FFE4FCFDEB2FFFEAC3
:105810003EFEED39FDEC38FC9018E9120598901821
:0C582000E9E0FCA3E0FDA3E0FEA3E0FF34
:01582C002259
:107931008052901947E0FCA3E0FDA3E0FEA3E0FF25
:1079410078101204C8EC4D4E4F6041901947A3A323
:10795100E0FEA3E0FFE4FDFCC004C005C006C007D3
:10796100901947E0FCA3E0FDA3A3E078101204C83E
:10797100D003D002D001D000EF2BFFEE3AFEED395B
:10798100FDEC38FC90194712059880A6901947E044
:10799100FCA3E0FDA3E0FEA3E0FF120494E4FDFCE0
:0179A10022C3
:1072C10090194FEBF0A3EAF0A3E9F0A3ECF0A3EDE2
:1072D100F01286A590194FE0FBA3E0FAA3E0F9EEC6
:1072E1008FF012037A90194FE0FBA3E0FAA3E0F9C3
:1072F100120292FF901953E02FFF901952E035F0DE
:107301009000028FF01203999000021202BDFFAEAD
:10731100F0120292FDACF0D39FEC9E90194FE0FB6E
:10732100A3E0FAA3E0F95006900004E48020C3E44E
:107331009DFFE49CFEC3901953E09FFF901952E01A
:107341009E9000028FF012039990000474011201C3
:02735100A72271
:0B7C140090194FEBF0A3EAF0A3E9F099
:107C1F001286A590194FE0FBA3E0FAA3E0F99000BC
:107C2F0004120135601E120292FDC3EF9DEE95F016
:107C3F0050309000021202BDFDD3EF9DEE95F04043
:107C4F00217F01229000021202BDFDD3EF9DEE9520
:107C5F00F0500C120292FDC3EF9DEE95F050037F92
:047C6F0001227F006F
:017C730022EE
:0C86A500C2AF900A5BE0FEA3E0FFD2AF82
:0186B10022A6
:10857A007B017A1879A1AD07AC061272C17B017A28
:09858A001879A1127C14EF60F4D1
:0185930022C5
:1085AD00900A4FE0FBA3E0FAA3E0F9EF12019590DA
